{
  "address": "0x821Fc7f1bFb685EBA3d5dC3118e154316bE7EC3D",
  "abi": [
    {
      "inputs": [],
      "stateMutability": "nonpayable",
      "type": "constructor"
    },
    {
      "anonymous": false,
      "inputs": [
        {
          "indexed": true,
          "internalType": "address",
          "name": "router",
          "type": "address"
        },
        {
          "indexed": true,
          "internalType": "address",
          "name": "token",
          "type": "address"
        },
        {
          "indexed": false,
          "internalType": "uint256",
          "name": "amount",
          "type": "uint256"
        }
      ],
      "name": "Liquidate",
      "type": "event"
    },
    {
      "anonymous": false,
      "inputs": [
        {
          "indexed": true,
          "internalType": "address",
          "name": "token",
          "type": "address"
        },
        {
          "indexed": false,
          "internalType": "uint256",
          "name": "amount",
          "type": "uint256"
        },
        {
          "indexed": false,
          "internalType": "address",
          "name": "recipient",
          "type": "address"
        }
      ],
      "name": "Sweep",
      "type": "event"
    },
    {
      "inputs": [],
      "name": "bank",
      "outputs": [
        {
          "internalType": "address",
          "name": "",
          "type": "address"
        }
      ],
      "stateMutability": "view",
      "type": "function"
    },
    {
      "inputs": [],
      "name": "creamUSDCeToken",
      "outputs": [
        {
          "internalType": "address",
          "name": "",
          "type": "address"
        }
      ],
      "stateMutability": "view",
      "type": "function"
    },
    {
      "inputs": [],
      "name": "derivative",
      "outputs": [
        {
          "internalType": "address",
          "name": "",
          "type": "address"
        }
      ],
      "stateMutability": "view",
      "type": "function"
    },
    {
      "inputs": [],
      "name": "derivativeBalance",
      "outputs": [
        {
          "internalType": "uint256",
          "name": "",
          "type": "uint256"
        }
      ],
      "stateMutability": "view",
      "type": "function"
    },
    {
      "inputs": [],
      "name": "governance",
      "outputs": [
        {
          "internalType": "address",
          "name": "",
          "type": "address"
        }
      ],
      "stateMutability": "view",
      "type": "function"
    },
    {
      "inputs": [
        {
          "internalType": "address",
          "name": "registry_",
          "type": "address"
        },
        {
          "internalType": "address",
          "name": "bank_",
          "type": "address"
        },
        {
          "internalType": "address",
          "name": "underlying_",
          "type": "address"
        },
        {
          "internalType": "address",
          "name": "derivative_",
          "type": "address"
        },
        {
          "internalType": "address",
          "name": "reward_",
          "type": "address"
        },
        {
          "internalType": "address",
          "name": "secondaryReward_",
          "type": "address"
        },
        {
          "internalType": "address",
          "name": "creamUSDCToken_",
          "type": "address"
        },
        {
          "internalType": "address",
          "name": "safeBox_",
          "type": "address"
        }
      ],
      "name": "initializeAlphaHomoraV2Strategy",
      "outputs": [],
      "stateMutability": "nonpayable",
      "type": "function"
    },
    {
      "inputs": [],
      "name": "invest",
      "outputs": [],
      "stateMutability": "nonpayable",
      "type": "function"
    },
    {
      "inputs": [],
      "name": "investedBalance",
      "outputs": [
        {
          "internalType": "uint256",
          "name": "",
          "type": "uint256"
        }
      ],
      "stateMutability": "view",
      "type": "function"
    },
    {
      "inputs": [],
      "name": "manager",
      "outputs": [
        {
          "internalType": "address",
          "name": "",
          "type": "address"
        }
      ],
      "stateMutability": "view",
      "type": "function"
    },
    {
      "inputs": [],
      "name": "registry",
      "outputs": [
        {
          "internalType": "address",
          "name": "",
          "type": "address"
        }
      ],
      "stateMutability": "view",
      "type": "function"
    },
    {
      "inputs": [],
      "name": "reward",
      "outputs": [
        {
          "internalType": "address",
          "name": "",
          "type": "address"
        }
      ],
      "stateMutability": "view",
      "type": "function"
    },
    {
      "inputs": [],
      "name": "rewardBalance",
      "outputs": [
        {
          "internalType": "uint256",
          "name": "",
          "type": "uint256"
        }
      ],
      "stateMutability": "view",
      "type": "function"
    },
    {
      "inputs": [],
      "name": "safeBox",
      "outputs": [
        {
          "internalType": "address",
          "name": "",
          "type": "address"
        }
      ],
      "stateMutability": "view",
      "type": "function"
    },
    {
      "inputs": [],
      "name": "secondaryReward",
      "outputs": [
        {
          "internalType": "address",
          "name": "",
          "type": "address"
        }
      ],
      "stateMutability": "view",
      "type": "function"
    },
    {
      "inputs": [],
      "name": "secondaryRewardBalance",
      "outputs": [
        {
          "internalType": "uint256",
          "name": "",
          "type": "uint256"
        }
      ],
      "stateMutability": "view",
      "type": "function"
    },
    {
      "inputs": [
        {
          "internalType": "address",
          "name": "registry_",
          "type": "address"
        }
      ],
      "name": "setRegistry",
      "outputs": [],
      "stateMutability": "nonpayable",
      "type": "function"
    },
    {
      "inputs": [
        {
          "internalType": "address",
          "name": "token",
          "type": "address"
        },
        {
          "internalType": "uint256",
          "name": "amount",
          "type": "uint256"
        },
        {
          "internalType": "address",
          "name": "recipient",
          "type": "address"
        }
      ],
      "name": "sweep",
      "outputs": [],
      "stateMutability": "nonpayable",
      "type": "function"
    },
    {
      "inputs": [],
      "name": "underlying",
      "outputs": [
        {
          "internalType": "address",
          "name": "",
          "type": "address"
        }
      ],
      "stateMutability": "view",
      "type": "function"
    },
    {
      "inputs": [],
      "name": "underlyingBalance",
      "outputs": [
        {
          "internalType": "uint256",
          "name": "",
          "type": "uint256"
        }
      ],
      "stateMutability": "view",
      "type": "function"
    },
    {
      "inputs": [
        {
          "internalType": "uint256",
          "name": "amount",
          "type": "uint256"
        }
      ],
      "name": "withdraw",
      "outputs": [
        {
          "internalType": "uint256",
          "name": "",
          "type": "uint256"
        }
      ],
      "stateMutability": "nonpayable",
      "type": "function"
    },
    {
      "inputs": [],
      "name": "withdrawAll",
      "outputs": [],
      "stateMutability": "nonpayable",
      "type": "function"
    },
    {
      "stateMutability": "payable",
      "type": "receive"
    }
  ],
  "transactionHash": "0xf270a65d773a5f265938f9c69fd44123c400436901e706acb68594a9f9e57666",
  "args": [],
  "solcInputHash": "cd5b5d48ed07e8ab38d3ae7423255f1c",
  "bytecode": "0x60806040523480156200001157600080fd5b50600054610100900460ff16806200002e57506200002e62000134565b806200003d575060005460ff16155b6200007a5760405162461bcd60e51b815260040180806020018281038252602e81526020018062001c20602e913960400191505060405180910390fd5b600054610100900460ff16158015620000a6576000805460ff1961ff0019909116610100171660011790555b6000620000b262000152565b6001600160a01b031614620000c357fe5b6000620000cf62000184565b6001600160a01b031614620000e057fe5b6000620000ec620001b1565b6001600160a01b031614620000fd57fe5b600062000109620001de565b6001600160a01b0316146200011a57fe5b80156200012d576000805461ff00191690555b5062000215565b60006200014c306200020b60201b62000b571760201c565b15905090565b60006200017f7f1b5717851286d5e98a28354be764b8c0a20eb2fbd059120090ee8bcfe1a9bf6c62000211565b905090565b60006200017f7fd2eff96e29993ca5431993c3a205e12e198965c0e1fdd87b4899b57f1e611c7462000211565b60006200017f7f0fad97fe3ec7d6c1e9191a09a0c4ccb7a831b6605392e57d2fedb8501a4dc81262000211565b60006200017f7faeb865605058f37eedb4467ee2609ddec592b0c9a6f7f7cb0db3feabe544c71c62000211565b3b151590565b5490565b6119fb80620002256000396000f3fe60806040526004361061012e5760003560e01c80636f307dc3116100ab578063aa5c3ab41161006f578063aa5c3ab4146102d8578063c9168a59146102ed578063d081588514610302578063dc2c256f1461036e578063e8b5e51f146103b1578063f1d742d5146103c657610135565b80636f307dc31461024f57806376cdb03b146102645780637b10399914610279578063853828b61461028e578063a91ee0dc146102a557610135565b806330ff0b4e116100f257806330ff0b4e146101e6578063481c6a75146101fb57806348663e951461021057806359356c5c146102255780635aa6e6751461023a57610135565b806303379dfd1461013a57806319776d8e1461016b5780631985a89f14610192578063228cb733146101a75780632e1a7d4d146101bc57610135565b3661013557005b600080fd5b34801561014657600080fd5b5061014f6103db565b604080516001600160a01b039092168252519081900360200190f35b34801561017757600080fd5b5061018061040c565b60408051918252519081900360200190f35b34801561019e57600080fd5b5061014f6104b3565b3480156101b357600080fd5b5061014f6104de565b3480156101c857600080fd5b50610180600480360360208110156101df57600080fd5b5035610509565b3480156101f257600080fd5b5061014f610581565b34801561020757600080fd5b5061014f6105ac565b34801561021c57600080fd5b5061014f6105ee565b34801561023157600080fd5b50610180610619565b34801561024657600080fd5b5061014f610623565b34801561025b57600080fd5b5061014f610665565b34801561027057600080fd5b5061014f610690565b34801561028557600080fd5b5061014f6106bb565b34801561029a57600080fd5b506102a36106e6565b005b3480156102b157600080fd5b506102a3600480360360208110156102c857600080fd5b50356001600160a01b0316610763565b3480156102e457600080fd5b50610180610849565b3480156102f957600080fd5b50610180610873565b34801561030e57600080fd5b506102a3600480360361010081101561032657600080fd5b506001600160a01b038135811691602081013582169160408201358116916060810135821691608082013581169160a081013582169160c082013581169160e00135166108b2565b34801561037a57600080fd5b506102a36004803603606081101561039157600080fd5b506001600160a01b0381358116916020810135916040909101351661098a565b3480156103bd57600080fd5b506102a3610a4d565b3480156103d257600080fd5b50610180610aba565b60006104067fcf850a8a0343f5d7e3be556a74e900ac0ec14e17da77020f5b9d8f30a1dbf843610b5d565b90505b90565b6000806104176104b3565b6001600160a01b0316141561042e57506000610409565b6104366104b3565b6001600160a01b03166370a08231306040518263ffffffff1660e01b815260040180826001600160a01b0316815260200191505060206040518083038186803b15801561048257600080fd5b505afa158015610496573d6000803e3d6000fd5b505050506040513d60208110156104ac57600080fd5b5051905090565b60006104067f4ff4c9b81c0bf267e01129f4817e03efc0163ee7133b87bd58118a96bbce43d3610b5d565b60006104067faeb865605058f37eedb4467ee2609ddec592b0c9a6f7f7cb0db3feabe544c71c610b5d565b6000610513610690565b6001600160a01b0316336001600160a01b03161461056e576040805162461bcd60e51b815260206004820152601360248201527253747261746567793a204f6e6c792042616e6b60681b604482015290519081900360640190fd5b600061057a3384610b61565b9392505050565b60006104067ffc40feddd2ec402785b29ba05b6eed44f4e3923230f1e3fd37723c1ad4994568610b5d565b60006105b66106bb565b6001600160a01b031663481c6a756040518163ffffffff1660e01b815260040160206040518083038186803b15801561048257600080fd5b60006104067f64c173a9d92a9628af3aca85e581c8e5ecef29fd894ebb0b189d65966a8666a1610b5d565b6000610436610665565b600061062d6106bb565b6001600160a01b0316635aa6e6756040518163ffffffff1660e01b815260040160206040518083038186803b15801561048257600080fd5b60006104067f0fad97fe3ec7d6c1e9191a09a0c4ccb7a831b6605392e57d2fedb8501a4dc812610b5d565b60006104067fd2eff96e29993ca5431993c3a205e12e198965c0e1fdd87b4899b57f1e611c74610b5d565b60006104067f1b5717851286d5e98a28354be764b8c0a20eb2fbd059120090ee8bcfe1a9bf6c610b5d565b6106ee610690565b6001600160a01b0316336001600160a01b031614610749576040805162461bcd60e51b815260206004820152601360248201527253747261746567793a204f6e6c792042616e6b60681b604482015290519081900360640190fd5b6000610753610873565b905061075f3382610b61565b5050565b61076b610623565b6001600160a01b0316336001600160a01b0316146107d0576040805162461bcd60e51b815260206004820152601b60248201527f537562736372696265723a204f6e6c7920476f7665726e616e63650000000000604482015290519081900360640190fd5b6107d981610c1a565b6107e1610623565b6001600160a01b0316336001600160a01b031614610846576040805162461bcd60e51b815260206004820152601a60248201527f537562736372696265723a2042616420476f7665726e616e6365000000000000604482015290519081900360640190fd5b50565b6000806108546104de565b6001600160a01b0316141561086b57506000610409565b6104366104de565b6000806108866108816103db565b610c44565b90506108ac670de0b6b3a76400006108a661089f61040c565b8490610cb1565b90610d0a565b91505090565b600054610100900460ff16806108cb57506108cb610d71565b806108d9575060005460ff16155b6109145760405162461bcd60e51b815260040180806020018281038252602e815260200180611917602e913960400191505060405180910390fd5b600054610100900460ff1615801561093f576000805460ff1961ff0019909116610100171660011790555b61094c8989898989610d82565b610957848484610e3e565b61096d6001600160a01b03881687600019610efe565b801561097f576000805461ff00191690555b505050505050505050565b610992610623565b6001600160a01b0316336001600160a01b0316146109f7576040805162461bcd60e51b815260206004820152601b60248201527f537562736372696265723a204f6e6c7920476f7665726e616e63650000000000604482015290519081900360640190fd5b610a02818484611016565b50604080518381526001600160a01b0383811660208301528251908616927f8d71d334346acd8aade4cdca3af39a37fca2620cd870d28ccf94ae4ade61c8f3928290030190a2505050565b610a55610690565b6001600160a01b0316336001600160a01b031614610ab0576040805162461bcd60e51b815260206004820152601360248201527253747261746567793a204f6e6c792042616e6b60681b604482015290519081900360640190fd5b610ab86110e2565b565b600080610ac5610581565b90506001600160a01b038116610adf576000915050610409565b604080516370a0823160e01b815230600482015290516001600160a01b038316916370a08231916024808301926020929190829003018186803b158015610b2557600080fd5b505afa158015610b39573d6000803e3d6000fd5b505050506040513d6020811015610b4f57600080fd5b505191505090565b3b151590565b5490565b600081610b7057506000610c14565b6000610b7a610873565b905080610b8b576000915050610c14565b6000610ba3826108a686670de0b6b3a7640000610cb1565b90506000610bbd670de0b6b3a76400006108a68486610cb1565b905082811115610be557610be0610bd26104b3565b610bdb85611135565b61115b565b610bf9565b610bf9610bf06104b3565b610bdb83611135565b6000610c0d87610c07610665565b88611016565b9450505050505b92915050565b6108467f1b5717851286d5e98a28354be764b8c0a20eb2fbd059120090ee8bcfe1a9bf6c826111bf565b6000816001600160a01b031663182df0f56040518163ffffffff1660e01b815260040160206040518083038186803b158015610c7f57600080fd5b505afa158015610c93573d6000803e3d6000fd5b505050506040513d6020811015610ca957600080fd5b505192915050565b600082610cc057506000610c14565b82820282848281610ccd57fe5b041461057a5760405162461bcd60e51b81526004018080602001828103825260218152602001806119456021913960400191505060405180910390fd5b6000808211610d60576040805162461bcd60e51b815260206004820152601a60248201527f536166654d6174683a206469766973696f6e206279207a65726f000000000000604482015290519081900360640190fd5b818381610d6957fe5b049392505050565b6000610d7c30610b57565b15905090565b600054610100900460ff1680610d9b5750610d9b610d71565b80610da9575060005460ff16155b610de45760405162461bcd60e51b815260040180806020018281038252602e815260200180611917602e913960400191505060405180910390fd5b600054610100900460ff16158015610e0f576000805460ff1961ff0019909116610100171660011790555b610e18866111c3565b610e24858585856112c8565b8015610e36576000805461ff00191690555b505050505050565b600054610100900460ff1680610e575750610e57610d71565b80610e65575060005460ff16155b610ea05760405162461bcd60e51b815260040180806020018281038252602e815260200180611917602e913960400191505060405180910390fd5b600054610100900460ff16158015610ecb576000805460ff1961ff0019909116610100171660011790555b610ed484611392565b610edd836113bc565b610ee6826113e6565b8015610ef8576000805461ff00191690555b50505050565b801580610f84575060408051636eb1769f60e11b81523060048201526001600160a01b03848116602483015291519185169163dd62ed3e91604480820192602092909190829003018186803b158015610f5657600080fd5b505afa158015610f6a573d6000803e3d6000fd5b505050506040513d6020811015610f8057600080fd5b5051155b610fbf5760405162461bcd60e51b81526004018080602001828103825260368152602001806119906036913960400191505060405180910390fd5b604080516001600160a01b038416602482015260448082018490528251808303909101815260649091019091526020810180516001600160e01b031663095ea7b360e01b179052611011908490611410565b505050565b6000816110255750600061057a565b6000836001600160a01b03166370a08231306040518263ffffffff1660e01b815260040180826001600160a01b0316815260200191505060206040518083038186803b15801561107457600080fd5b505afa158015611088573d6000803e3d6000fd5b505050506040513d602081101561109e57600080fd5b50519050828110156110c5576110be6001600160a01b03851686836114c1565b905061057a565b6110d96001600160a01b03851686856114c1565b50909392505050565b60006110ec610619565b90508015610846576111246040518060400160405280600e81526020016d6465706f736974696e673a20257360901b81525082611513565b61084661112f6104b3565b826115c1565b6000806111436108816103db565b905061057a816108a685670de0b6b3a7640000610cb1565b806111655761075f565b816001600160a01b0316632e1a7d4d826040518263ffffffff1660e01b815260040180828152602001915050600060405180830381600087803b1580156111ab57600080fd5b505af1158015610e36573d6000803e3d6000fd5b9055565b600054610100900460ff16806111dc57506111dc610d71565b806111ea575060005460ff16155b6112255760405162461bcd60e51b815260040180806020018281038252602e815260200180611917602e913960400191505060405180910390fd5b600054610100900460ff16158015611250576000805460ff1961ff0019909116610100171660011790555b61125982610b57565b6112aa576040805162461bcd60e51b815260206004820152601c60248201527f537562736372696265723a20496e76616c696420526567697374727900000000604482015290519081900360640190fd5b6112b382610c1a565b801561075f576000805461ff00191690555050565b600054610100900460ff16806112e157506112e1610d71565b806112ef575060005460ff16155b61132a5760405162461bcd60e51b815260040180806020018281038252602e815260200180611917602e913960400191505060405180910390fd5b600054610100900460ff16158015611355576000805460ff1961ff0019909116610100171660011790555b61135e85611611565b6113678461163b565b61137083611665565b6113798261168f565b801561138b576000805461ff00191690555b5050505050565b6108467ffc40feddd2ec402785b29ba05b6eed44f4e3923230f1e3fd37723c1ad4994568826111bf565b6108467fcf850a8a0343f5d7e3be556a74e900ac0ec14e17da77020f5b9d8f30a1dbf843826111bf565b6108467f64c173a9d92a9628af3aca85e581c8e5ecef29fd894ebb0b189d65966a8666a1826111bf565b6000611465826040518060400160405280602081526020017f5361666545524332303a206c6f772d6c6576656c2063616c6c206661696c6564815250856001600160a01b03166116b99092919063ffffffff16565b8051909150156110115780806020019051602081101561148457600080fd5b50516110115760405162461bcd60e51b815260040180806020018281038252602a815260200180611966602a913960400191505060405180910390fd5b604080516001600160a01b038416602482015260448082018490528251808303909101815260649091019091526020810180516001600160e01b031663a9059cbb60e01b179052611011908490611410565b61075f82826040516024018080602001838152602001828103825284818151815260200191508051906020019080838360005b8381101561155e578181015183820152602001611546565b50505050905090810190601f16801561158b5780820380516001836020036101000a031916815260200191505b5060408051601f198184030181529190526020810180516001600160e01b03166309710a9d60e41b17905293506116d092505050565b806115cb5761075f565b816001600160a01b031663b6b55f25826040518263ffffffff1660e01b815260040180828152602001915050600060405180830381600087803b1580156111ab57600080fd5b6108467fd2eff96e29993ca5431993c3a205e12e198965c0e1fdd87b4899b57f1e611c74826111bf565b6108467f0fad97fe3ec7d6c1e9191a09a0c4ccb7a831b6605392e57d2fedb8501a4dc812826111bf565b6108467f4ff4c9b81c0bf267e01129f4817e03efc0163ee7133b87bd58118a96bbce43d3826111bf565b6108467faeb865605058f37eedb4467ee2609ddec592b0c9a6f7f7cb0db3feabe544c71c826111bf565b60606116c884846000856116f1565b949350505050565b80516a636f6e736f6c652e6c6f67602083016000808483855afa5050505050565b6060824710156117325760405162461bcd60e51b81526004018080602001828103825260268152602001806118f16026913960400191505060405180910390fd5b61173b85610b57565b61178c576040805162461bcd60e51b815260206004820152601d60248201527f416464726573733a2063616c6c20746f206e6f6e2d636f6e7472616374000000604482015290519081900360640190fd5b600080866001600160a01b031685876040518082805190602001908083835b602083106117ca5780518252601f1990920191602091820191016117ab565b6001836020036101000a03801982511681845116808217855250505050505090500191505060006040518083038185875af1925050503d806000811461182c576040519150601f19603f3d011682016040523d82523d6000602084013e611831565b606091505b509150915061184182828661184c565b979650505050505050565b6060831561185b57508161057a565b82511561186b5782518084602001fd5b8160405162461bcd60e51b81526004018080602001828103825283818151815260200191508051906020019080838360005b838110156118b557818101518382015260200161189d565b50505050905090810190601f1680156118e25780820380516001836020036101000a031916815260200191505b509250505060405180910390fdfe416464726573733a20696e73756666696369656e742062616c616e636520666f722063616c6c496e697469616c697a61626c653a20636f6e747261637420697320616c726561647920696e697469616c697a6564536166654d6174683a206d756c7469706c69636174696f6e206f766572666c6f775361666545524332303a204552433230206f7065726174696f6e20646964206e6f7420737563636565645361666545524332303a20617070726f76652066726f6d206e6f6e2d7a65726f20746f206e6f6e2d7a65726f20616c6c6f77616e6365a26469706673582212206d3d5a9f52349a9f709813d661f8fdad94ec1e72d78f094310f1c5f364a9605264736f6c63430007060033496e697469616c697a61626c653a20636f6e747261637420697320616c726561647920696e697469616c697a6564",
  "devdoc": {
    "details": "https://compound.finance/docs/ctokens",
    "kind": "dev",
    "methods": {
      "derivativeBalance()": {
        "details": "Balance of derivative tokens received from Strategy, if applicable",
        "returns": {
          "_0": "The balance of derivative tokens"
        }
      },
      "governance()": {
        "returns": {
          "_0": "The current Governance address"
        }
      },
      "initializeAlphaHomoraV2Strategy(address,address,address,address,address,address,address,address)": {
        "details": "The function should be called at time of deployment",
        "params": {
          "bank_": "the bank associated with the strategy",
          "creamUSDCToken_": "the ibUSDCv2Token address",
          "derivative_": "the ibUSDCv2Token address",
          "registry_": "the registry contract",
          "reward_": "the address of the reward token QI",
          "safeBox_": "the Alpha Homora V2 SafeBox contract",
          "secondaryReward_": "the address of the reward token WAVAX",
          "underlying_": "the underlying token that is deposited"
        }
      },
      "investedBalance()": {
        "details": "Get the exchange rate (which is scaled up by 1e18) and multiply by amount of ibUSDCev2Token",
        "returns": {
          "_0": "The amount of underlying the strategy has invested"
        }
      },
      "manager()": {
        "returns": {
          "_0": "The current Manager address"
        }
      },
      "registry()": {
        "returns": {
          "_0": "The current Registry address"
        }
      },
      "rewardBalance()": {
        "details": "Balance of reward tokens awaiting liquidation, if applicable"
      },
      "setRegistry(address)": {
        "details": "Requires sender to be Governance of the new Registry to avoid bricking.Ideally should not be used",
        "params": {
          "registry_": "The new registry"
        }
      },
      "sweep(address,uint256,address)": {
        "params": {
          "amount": "The amount of tokens to sweep",
          "recipient": "The address to send the sweeped tokens to",
          "token": "The address of the token to sweep"
        }
      },
      "underlyingBalance()": {
        "details": "Balance of underlying awaiting Strategy investment"
      }
    },
    "title": "Oh! Finance Benqi Strategy",
    "version": 1
  },
  "userdoc": {
    "kind": "user",
    "methods": {
      "bank()": {
        "notice": "The Bank that the Strategy is associated with"
      },
      "constructor": {
        "notice": "Initialize the Benqi Strategy Logic"
      },
      "derivative()": {
        "notice": "The derivative token received from AaveV2 (aToken)"
      },
      "governance()": {
        "notice": "Get the Governance address"
      },
      "initializeAlphaHomoraV2Strategy(address,address,address,address,address,address,address,address)": {
        "notice": "Initializes the Benqi Strategy Proxy"
      },
      "investedBalance()": {
        "notice": "Get the balance of underlying invested by the Strategy"
      },
      "manager()": {
        "notice": "Get the Manager address"
      },
      "registry()": {
        "notice": "Get the Registry address"
      },
      "reward()": {
        "notice": "The reward token received from AaveV2 (stkAave)"
      },
      "setRegistry(address)": {
        "notice": "Set the Registry for the contract. Only callable by Governance."
      },
      "sweep(address,uint256,address)": {
        "notice": "Governance function to sweep any stuck / airdrop tokens to a given recipient"
      },
      "underlying()": {
        "notice": "The underlying token the Strategy invests in AaveV2"
      }
    },
    "notice": "Standard, unleveraged strategy. Invest underlying tokens into derivative cTokens",
    "version": 1
  },
  "storageLayout": {
    "storage": [
      {
        "astId": 3184,
        "contract": "contracts/strategies/alpha-homora/OhAlphaHomoraV2Strategy.sol:OhAlphaHomoraV2Strategy",
        "label": "_initialized",
        "offset": 0,
        "slot": "0",
        "type": "t_bool"
      },
      {
        "astId": 3187,
        "contract": "contracts/strategies/alpha-homora/OhAlphaHomoraV2Strategy.sol:OhAlphaHomoraV2Strategy",
        "label": "_initializing",
        "offset": 1,
        "slot": "0",
        "type": "t_bool"
      }
    ],
    "types": {
      "t_bool": {
        "encoding": "inplace",
        "label": "bool",
        "numberOfBytes": "1"
      }
    }
  }
}