{
  "address": "0xFB288999e57DA77de3832D425816F87856DC40B9",
  "abi": [
    {
      "inputs": [
        {
          "internalType": "address",
          "name": "registry_",
          "type": "address"
        },
        {
          "internalType": "address",
          "name": "token_",
          "type": "address"
        }
      ],
      "stateMutability": "nonpayable",
      "type": "constructor"
    },
    {
      "anonymous": false,
      "inputs": [
        {
          "indexed": true,
          "internalType": "address",
          "name": "bank",
          "type": "address"
        },
        {
          "indexed": true,
          "internalType": "address",
          "name": "strategy",
          "type": "address"
        },
        {
          "indexed": false,
          "internalType": "uint256",
          "name": "profitAmount",
          "type": "uint256"
        },
        {
          "indexed": false,
          "internalType": "uint256",
          "name": "buybackAmount",
          "type": "uint256"
        },
        {
          "indexed": false,
          "internalType": "uint256",
          "name": "managementAmount",
          "type": "uint256"
        }
      ],
      "name": "AccrueRevenue",
      "type": "event"
    },
    {
      "anonymous": false,
      "inputs": [
        {
          "indexed": true,
          "internalType": "address",
          "name": "from",
          "type": "address"
        },
        {
          "indexed": false,
          "internalType": "uint256",
          "name": "amount",
          "type": "uint256"
        },
        {
          "indexed": false,
          "internalType": "uint256",
          "name": "buybackAmount",
          "type": "uint256"
        }
      ],
      "name": "Buyback",
      "type": "event"
    },
    {
      "anonymous": false,
      "inputs": [
        {
          "indexed": true,
          "internalType": "address",
          "name": "bank",
          "type": "address"
        },
        {
          "indexed": true,
          "internalType": "address",
          "name": "strategy",
          "type": "address"
        }
      ],
      "name": "Finance",
      "type": "event"
    },
    {
      "anonymous": false,
      "inputs": [
        {
          "indexed": true,
          "internalType": "address",
          "name": "bank",
          "type": "address"
        }
      ],
      "name": "FinanceAll",
      "type": "event"
    },
    {
      "anonymous": false,
      "inputs": [
        {
          "indexed": true,
          "internalType": "address",
          "name": "bank",
          "type": "address"
        }
      ],
      "name": "Rebalance",
      "type": "event"
    },
    {
      "inputs": [],
      "name": "FEE_DENOMINATOR",
      "outputs": [
        {
          "internalType": "uint256",
          "name": "",
          "type": "uint256"
        }
      ],
      "stateMutability": "view",
      "type": "function"
    },
    {
      "inputs": [],
      "name": "MAX_BUYBACK_FEE",
      "outputs": [
        {
          "internalType": "uint256",
          "name": "",
          "type": "uint256"
        }
      ],
      "stateMutability": "view",
      "type": "function"
    },
    {
      "inputs": [],
      "name": "MAX_MANAGEMENT_FEE",
      "outputs": [
        {
          "internalType": "uint256",
          "name": "",
          "type": "uint256"
        }
      ],
      "stateMutability": "view",
      "type": "function"
    },
    {
      "inputs": [],
      "name": "MIN_BUYBACK_FEE",
      "outputs": [
        {
          "internalType": "uint256",
          "name": "",
          "type": "uint256"
        }
      ],
      "stateMutability": "view",
      "type": "function"
    },
    {
      "inputs": [],
      "name": "MIN_MANAGEMENT_FEE",
      "outputs": [
        {
          "internalType": "uint256",
          "name": "",
          "type": "uint256"
        }
      ],
      "stateMutability": "view",
      "type": "function"
    },
    {
      "inputs": [
        {
          "internalType": "address",
          "name": "bank",
          "type": "address"
        },
        {
          "internalType": "address",
          "name": "underlying",
          "type": "address"
        },
        {
          "internalType": "uint256",
          "name": "amount",
          "type": "uint256"
        }
      ],
      "name": "accrueRevenue",
      "outputs": [],
      "stateMutability": "nonpayable",
      "type": "function"
    },
    {
      "inputs": [
        {
          "internalType": "uint256",
          "name": "i",
          "type": "uint256"
        }
      ],
      "name": "banks",
      "outputs": [
        {
          "internalType": "address",
          "name": "",
          "type": "address"
        }
      ],
      "stateMutability": "view",
      "type": "function"
    },
    {
      "inputs": [],
      "name": "burn",
      "outputs": [],
      "stateMutability": "nonpayable",
      "type": "function"
    },
    {
      "inputs": [],
      "name": "burner",
      "outputs": [
        {
          "internalType": "address",
          "name": "",
          "type": "address"
        }
      ],
      "stateMutability": "view",
      "type": "function"
    },
    {
      "inputs": [
        {
          "internalType": "address",
          "name": "from",
          "type": "address"
        }
      ],
      "name": "buyback",
      "outputs": [],
      "stateMutability": "nonpayable",
      "type": "function"
    },
    {
      "inputs": [],
      "name": "buybackFee",
      "outputs": [
        {
          "internalType": "uint256",
          "name": "",
          "type": "uint256"
        }
      ],
      "stateMutability": "view",
      "type": "function"
    },
    {
      "inputs": [
        {
          "internalType": "address",
          "name": "bank",
          "type": "address"
        },
        {
          "internalType": "address",
          "name": "strategy",
          "type": "address"
        }
      ],
      "name": "exit",
      "outputs": [],
      "stateMutability": "nonpayable",
      "type": "function"
    },
    {
      "inputs": [
        {
          "internalType": "address",
          "name": "bank",
          "type": "address"
        }
      ],
      "name": "exitAll",
      "outputs": [],
      "stateMutability": "nonpayable",
      "type": "function"
    },
    {
      "inputs": [
        {
          "internalType": "address",
          "name": "bank",
          "type": "address"
        }
      ],
      "name": "finance",
      "outputs": [],
      "stateMutability": "nonpayable",
      "type": "function"
    },
    {
      "inputs": [
        {
          "internalType": "address",
          "name": "bank",
          "type": "address"
        }
      ],
      "name": "financeAll",
      "outputs": [],
      "stateMutability": "nonpayable",
      "type": "function"
    },
    {
      "inputs": [],
      "name": "governance",
      "outputs": [
        {
          "internalType": "address",
          "name": "",
          "type": "address"
        }
      ],
      "stateMutability": "view",
      "type": "function"
    },
    {
      "inputs": [
        {
          "internalType": "address",
          "name": "",
          "type": "address"
        },
        {
          "internalType": "address",
          "name": "",
          "type": "address"
        }
      ],
      "name": "liquidators",
      "outputs": [
        {
          "internalType": "address",
          "name": "",
          "type": "address"
        }
      ],
      "stateMutability": "view",
      "type": "function"
    },
    {
      "inputs": [],
      "name": "managementFee",
      "outputs": [
        {
          "internalType": "uint256",
          "name": "",
          "type": "uint256"
        }
      ],
      "stateMutability": "view",
      "type": "function"
    },
    {
      "inputs": [],
      "name": "manager",
      "outputs": [
        {
          "internalType": "address",
          "name": "",
          "type": "address"
        }
      ],
      "stateMutability": "view",
      "type": "function"
    },
    {
      "inputs": [
        {
          "internalType": "address",
          "name": "bank",
          "type": "address"
        }
      ],
      "name": "rebalance",
      "outputs": [],
      "stateMutability": "nonpayable",
      "type": "function"
    },
    {
      "inputs": [],
      "name": "registry",
      "outputs": [
        {
          "internalType": "address",
          "name": "",
          "type": "address"
        }
      ],
      "stateMutability": "view",
      "type": "function"
    },
    {
      "inputs": [
        {
          "internalType": "address",
          "name": "_bank",
          "type": "address"
        },
        {
          "internalType": "bool",
          "name": "_approved",
          "type": "bool"
        }
      ],
      "name": "setBank",
      "outputs": [],
      "stateMutability": "nonpayable",
      "type": "function"
    },
    {
      "inputs": [
        {
          "internalType": "address",
          "name": "_burner",
          "type": "address"
        }
      ],
      "name": "setBurner",
      "outputs": [],
      "stateMutability": "nonpayable",
      "type": "function"
    },
    {
      "inputs": [
        {
          "internalType": "uint256",
          "name": "_buybackFee",
          "type": "uint256"
        }
      ],
      "name": "setBuybackFee",
      "outputs": [],
      "stateMutability": "nonpayable",
      "type": "function"
    },
    {
      "inputs": [
        {
          "internalType": "address",
          "name": "_liquidator",
          "type": "address"
        },
        {
          "internalType": "address",
          "name": "_from",
          "type": "address"
        },
        {
          "internalType": "address",
          "name": "_to",
          "type": "address"
        }
      ],
      "name": "setLiquidator",
      "outputs": [],
      "stateMutability": "nonpayable",
      "type": "function"
    },
    {
      "inputs": [
        {
          "internalType": "uint256",
          "name": "_managementFee",
          "type": "uint256"
        }
      ],
      "name": "setManagementFee",
      "outputs": [],
      "stateMutability": "nonpayable",
      "type": "function"
    },
    {
      "inputs": [
        {
          "internalType": "address",
          "name": "registry_",
          "type": "address"
        }
      ],
      "name": "setRegistry",
      "outputs": [],
      "stateMutability": "nonpayable",
      "type": "function"
    },
    {
      "inputs": [
        {
          "internalType": "address",
          "name": "_bank",
          "type": "address"
        },
        {
          "internalType": "address",
          "name": "_strategy",
          "type": "address"
        },
        {
          "internalType": "bool",
          "name": "_approved",
          "type": "bool"
        }
      ],
      "name": "setStrategy",
      "outputs": [],
      "stateMutability": "nonpayable",
      "type": "function"
    },
    {
      "inputs": [
        {
          "internalType": "address",
          "name": "_contract",
          "type": "address"
        },
        {
          "internalType": "bool",
          "name": "_whitelisted",
          "type": "bool"
        }
      ],
      "name": "setWhitelisted",
      "outputs": [],
      "stateMutability": "nonpayable",
      "type": "function"
    },
    {
      "inputs": [
        {
          "internalType": "uint256",
          "name": "i",
          "type": "uint256"
        }
      ],
      "name": "setWithdrawIndex",
      "outputs": [],
      "stateMutability": "nonpayable",
      "type": "function"
    },
    {
      "inputs": [
        {
          "internalType": "address",
          "name": "bank",
          "type": "address"
        },
        {
          "internalType": "uint256",
          "name": "i",
          "type": "uint256"
        }
      ],
      "name": "strategies",
      "outputs": [
        {
          "internalType": "address",
          "name": "",
          "type": "address"
        }
      ],
      "stateMutability": "view",
      "type": "function"
    },
    {
      "inputs": [],
      "name": "token",
      "outputs": [
        {
          "internalType": "address",
          "name": "",
          "type": "address"
        }
      ],
      "stateMutability": "view",
      "type": "function"
    },
    {
      "inputs": [],
      "name": "totalBanks",
      "outputs": [
        {
          "internalType": "uint256",
          "name": "",
          "type": "uint256"
        }
      ],
      "stateMutability": "view",
      "type": "function"
    },
    {
      "inputs": [
        {
          "internalType": "address",
          "name": "bank",
          "type": "address"
        }
      ],
      "name": "totalStrategies",
      "outputs": [
        {
          "internalType": "uint256",
          "name": "",
          "type": "uint256"
        }
      ],
      "stateMutability": "view",
      "type": "function"
    },
    {
      "inputs": [
        {
          "internalType": "address",
          "name": "",
          "type": "address"
        }
      ],
      "name": "whitelisted",
      "outputs": [
        {
          "internalType": "bool",
          "name": "",
          "type": "bool"
        }
      ],
      "stateMutability": "view",
      "type": "function"
    },
    {
      "inputs": [
        {
          "internalType": "address",
          "name": "bank",
          "type": "address"
        }
      ],
      "name": "withdrawIndex",
      "outputs": [
        {
          "internalType": "uint256",
          "name": "",
          "type": "uint256"
        }
      ],
      "stateMutability": "view",
      "type": "function"
    }
  ],
  "transactionHash": "0xea1413ca71fa0757668cd5e34ce8123ff4279467cdf972907835b0fc6c2e6a82",
  "args": [
    "0x2046547d3768A94de530FBbA86CD821D4cCf0165",
    "0x937E077aBaEA52d3abf879c9b9d3f2eBd15BAA21"
  ],
  "solcInputHash": "bda25618f447c2b914f654c498263762",
  "bytecode": "0x60806040523480156200001157600080fd5b50604051620027b7380380620027b7833981810160405260408110156200003757600080fd5b50805160209182015190918290829082906200005e90829062001eb8620000f2821b17901c565b620000b0576040805162461bcd60e51b815260206004820152601c60248201527f537562736372696265723a20496e76616c696420526567697374727900000000604482015290519081900360640190fd5b600080546001600160a01b039283166001600160a01b03199182161790915560018054939092169216919091179055505060c8600255506014600355620000f8565b3b151590565b6126af80620001086000396000f3fe608060405234801561001057600080fd5b506004361061021b5760003560e01c8063a1b8272311610125578063d73792a9116100ad578063f697a0361161007c578063f697a036146105a7578063fb3e6f29146105cd578063fc0c546a146105f3578063fd263390146105fb578063fe56e232146106295761021b565b8063d73792a914610537578063d936547e1461053f578063eb0dff6614610579578063f01cc0a61461059f5761021b565b8063a996d6ce116100f4578063a996d6ce14610485578063aa4fbf4a146104ab578063b19c0aa3146104e3578063bae7c80d14610509578063d36b59371461052f5761021b565b8063a1b8272314610421578063a625403a14610429578063a6f7f5d614610457578063a91ee0dc1461045f5761021b565b80635aa6e675116101a85780637b103999116101775780637b10399914610391578063921c86d2146103995780639281aa0b146103c75780639908840c146103895780639f8f3244146103f55761021b565b80635aa6e67514610323578063606b473a1461032b5780636ed77343146103515780637140f2e8146103895761021b565b80633b2d081c116101ef5780633b2d081c146102a657806344df8e70146102c05780634567bfba146102c8578063481c6a75146102e557806348930428146102ed5761021b565b806285ae2b146102205780630e3da0b81461025957806321c281911461027857806327810b6e1461029e575b600080fd5b61023d6004803603602081101561023657600080fd5b5035610646565b604080516001600160a01b039092168252519081900360200190f35b6102766004803603602081101561026f57600080fd5b5035610659565b005b6102766004803603602081101561028e57600080fd5b50356001600160a01b03166106cf565b61023d61098c565b6102ae61099b565b60408051918252519081900360200190f35b6102766109a1565b610276600480360360208110156102de57600080fd5b5035610aea565b61023d610bf5565b6102766004803603606081101561030357600080fd5b506001600160a01b03813581169160208101359091169060400135610c68565b61023d610da3565b6102766004803603602081101561034157600080fd5b50356001600160a01b0316610de5565b6102766004803603606081101561036757600080fd5b506001600160a01b038135811691602081013582169160409091013516611059565b6102ae61114b565b61023d611150565b61023d600480360360408110156103af57600080fd5b506001600160a01b038135811691602001351661115f565b610276600480360360408110156103dd57600080fd5b506001600160a01b0381351690602001351515611185565b61023d6004803603604081101561040b57600080fd5b506001600160a01b038135169060200135611267565b6102ae611290565b6102766004803603604081101561043f57600080fd5b506001600160a01b0381358116916020013516611296565b6102ae61135c565b6102766004803603602081101561047557600080fd5b50356001600160a01b0316611362565b6102766004803603602081101561049b57600080fd5b50356001600160a01b03166114a2565b610276600480360360608110156104c157600080fd5b506001600160a01b03813581169160208101359091169060400135151561151f565b6102ae600480360360208110156104f957600080fd5b50356001600160a01b03166116c2565b6102766004803603602081101561051f57600080fd5b50356001600160a01b03166116e3565b6102ae61191c565b6102ae611921565b6105656004803603602081101561055557600080fd5b50356001600160a01b0316611927565b604080519115158252519081900360200190f35b6102766004803603602081101561058f57600080fd5b50356001600160a01b031661193c565b6102ae611a55565b6102ae600480360360208110156105bd57600080fd5b50356001600160a01b0316611a66565b610276600480360360208110156105e357600080fd5b50356001600160a01b0316611a84565b61023d611c68565b6102766004803603604081101561061157600080fd5b506001600160a01b0381351690602001351515611c77565b6102766004803603602081101561063f57600080fd5b5035611db5565b6000610653600683611ebe565b92915050565b33610665600682611eca565b6106ab576040805162461bcd60e51b81526020600482015260126024820152714d616e616765723a204f6e6c792042616e6b60701b604482015290519081900360640190fd5b50336000908152600a60205260409020805460ff191660ff92909216919091179055565b333214806106ec57503360009081526005602052604090205460ff165b61072b576040805162461bcd60e51b815260206004820152601e6024820152600080516020612630833981519152604482015290519081900360640190fd5b80610737600682611eca565b61077d576040805162461bcd60e51b81526020600482015260126024820152714d616e616765723a204f6e6c792042616e6b60701b604482015290519081900360640190fd5b6001600160a01b038216600090815260086020526040812061079e90611edf565b905060005b81811015610836576001600160a01b038416600081815260086020526040902063eb0dff66906107d39084611ebe565b6040518263ffffffff1660e01b815260040180826001600160a01b03168152602001915050600060405180830381600087803b15801561081257600080fd5b505af1158015610826573d6000803e3d6000fd5b5050600190920191506107a39050565b506000836001600160a01b03166359356c5c6040518163ffffffff1660e01b815260040160206040518083038186803b15801561087257600080fd5b505afa158015610886573d6000803e3d6000fd5b505050506040513d602081101561089c57600080fd5b5051905060005b828110156109515760008383816108b657fe5b6001600160a01b03881660008181526008602052604090209290910492509063b9b8c246906108e59085611ebe565b836040518363ffffffff1660e01b815260040180836001600160a01b0316815260200182815260200192505050600060405180830381600087803b15801561092c57600080fd5b505af1158015610940573d6000803e3d6000fd5b5050600190930192506108a3915050565b506040516001600160a01b038516907fa61bd16ebda9d1c8ec2a61970b39e6640e55ed8433a22765a1b5217b72c4a81290600090a250505050565b600b546001600160a01b031681565b60025481565b333214806109be57503360009081526005602052604090205460ff165b6109fd576040805162461bcd60e51b815260206004820152601e6024820152600080516020612630833981519152604482015290519081900360640190fd5b600b546001600160a01b0316610a4f576040805162461bcd60e51b815260206004820152601260248201527126b0b730b3b2b91d10273790213ab93732b960711b604482015290519081900360640190fd5b600154604080516370a0823160e01b815230600482015290516000926001600160a01b0316916370a08231916024808301926020929190829003018186803b158015610a9a57600080fd5b505afa158015610aae573d6000803e3d6000fd5b505050506040513d6020811015610ac457600080fd5b5051600b54600154919250610ae6916001600160a01b03918216911683611eea565b5050565b610af2610da3565b6001600160a01b0316336001600160a01b031614610b45576040805162461bcd60e51b815260206004820152601b60248201526000805160206125ef833981519152604482015290519081900360640190fd5b60648111610b9a576040805162461bcd60e51b815260206004820152601960248201527f52656769737472793a20496e76616c6964204275796261636b00000000000000604482015290519081900360640190fd5b6101f48110610bf0576040805162461bcd60e51b815260206004820152601a60248201527f52656769737472793a204275796261636b20546f6f2048696768000000000000604482015290519081900360640190fd5b600255565b6000610bff611150565b6001600160a01b031663481c6a756040518163ffffffff1660e01b815260040160206040518083038186803b158015610c3757600080fd5b505afa158015610c4b573d6000803e3d6000fd5b505050506040513d6020811015610c6157600080fd5b5051905090565b6001600160a01b038316600090815260086020526040902083903390610c8e9082611eca565b610cd8576040805162461bcd60e51b81526020600482015260166024820152754d616e616765723a204f6e6c7920537472617465677960501b604482015290519081900360640190fd5b6000610cfb6103e8610cf560025487611fb690919063ffffffff16565b9061200f565b90506000610d1a6103e8610cf560035488611fb690919063ffffffff16565b90506000610d3282610d2c8886612076565b90612076565b9050610d3f328884611eea565b50610d4b338883611eea565b506040805182815260208101859052808201849052905133916001600160a01b038b16917faa199a16983a8f166eb461939bd1b0bd1881e692fa38dbb98bd89c856052cd849181900360600190a35050505050505050565b6000610dad611150565b6001600160a01b0316635aa6e6756040518163ffffffff1660e01b815260040160206040518083038186803b158015610c3757600080fd5b33321480610e0257503360009081526005602052604090205460ff165b610e41576040805162461bcd60e51b815260206004820152601e6024820152600080516020612630833981519152604482015290519081900360640190fd5b80610e4d600682611eca565b610e93576040805162461bcd60e51b81526020600482015260126024820152714d616e616765723a204f6e6c792042616e6b60701b604482015290519081900360640190fd5b6001600160a01b0382166000908152600860205260408120610eb490611edf565b905060008111610f04576040805162461bcd60e51b81526020600482015260166024820152754d616e616765723a204e6f205374726174656769657360501b604482015290519081900360640190fd5b6000836001600160a01b03166359356c5c6040518163ffffffff1660e01b815260040160206040518083038186803b158015610f3f57600080fd5b505afa158015610f53573d6000803e3d6000fd5b505050506040513d6020811015610f6957600080fd5b5051905060005b8281101561101e576000838381610f8357fe5b6001600160a01b03881660008181526008602052604090209290910492509063b9b8c24690610fb29085611ebe565b836040518363ffffffff1660e01b815260040180836001600160a01b0316815260200182815260200192505050600060405180830381600087803b158015610ff957600080fd5b505af115801561100d573d6000803e3d6000fd5b505060019093019250610f70915050565b506040516001600160a01b038516907fb888c73f8596c5d056c9c67c35e5ed784af064b3112cd851b2b860f9c2b6ccc990600090a250505050565b611061610da3565b6001600160a01b0316336001600160a01b0316146110b4576040805162461bcd60e51b815260206004820152601b60248201526000805160206125ef833981519152604482015290519081900360640190fd5b6110c6836001600160a01b0316611eb8565b61110f576040805162461bcd60e51b815260206004820152601560248201527413585b9859d95c8e88139bdd0810dbdb9d1c9858dd605a1b604482015290519081900360640190fd5b6001600160a01b0391821660009081526004602090815260408083209385168352929052208054919092166001600160a01b0319909116179055565b606481565b6000546001600160a01b031690565b60046020908152600092835260408084209091529082529020546001600160a01b031681565b61118d610da3565b6001600160a01b0316336001600160a01b0316146111e0576040805162461bcd60e51b815260206004820152601b60248201526000805160206125ef833981519152604482015290519081900360640190fd5b6111f2826001600160a01b0316611eb8565b61123c576040805162461bcd60e51b8152602060048201526016602482015275149959da5cdd1c9e4e88139bdd0810dbdb9d1c9858dd60521b604482015290519081900360640190fd5b6001600160a01b03919091166000908152600560205260409020805460ff1916911515919091179055565b6001600160a01b03821660009081526008602052604081206112899083611ebe565b9392505050565b6101f481565b61129e610da3565b6001600160a01b0316336001600160a01b0316146112f1576040805162461bcd60e51b815260206004820152601b60248201526000805160206125ef833981519152604482015290519081900360640190fd5b816001600160a01b031663eb0dff66826040518263ffffffff1660e01b815260040180826001600160a01b03168152602001915050600060405180830381600087803b15801561134057600080fd5b505af1158015611354573d6000803e3d6000fd5b505050505050565b60035481565b61136a610da3565b6001600160a01b0316336001600160a01b0316146113bd576040805162461bcd60e51b815260206004820152601b60248201526000805160206125ef833981519152604482015290519081900360640190fd5b6113c681611eb8565b611417576040805162461bcd60e51b815260206004820152601c60248201527f537562736372696265723a20496e76616c696420526567697374727900000000604482015290519081900360640190fd5b600080546001600160a01b0319166001600160a01b03831617905561143a610da3565b6001600160a01b0316336001600160a01b03161461149f576040805162461bcd60e51b815260206004820152601a60248201527f537562736372696265723a2042616420476f7665726e616e6365000000000000604482015290519081900360640190fd5b50565b6114aa610da3565b6001600160a01b0316336001600160a01b0316146114fd576040805162461bcd60e51b815260206004820152601b60248201526000805160206125ef833981519152604482015290519081900360640190fd5b600b80546001600160a01b0319166001600160a01b0392909216919091179055565b611527610da3565b6001600160a01b0316336001600160a01b03161461157a576040805162461bcd60e51b815260206004820152601b60248201526000805160206125ef833981519152604482015290519081900360640190fd5b61158c826001600160a01b0316611eb8565b80156115a557506115a5836001600160a01b0316611eb8565b6115ee576040805162461bcd60e51b815260206004820152601560248201527413585b9859d95c8e88139bdd0810dbdb9d1c9858dd605a1b604482015290519081900360640190fd5b6001600160a01b03831660009081526008602052604081206116109084611eca565b90508115158115151415611660576040805162461bcd60e51b81526020600482015260126024820152714d616e616765723a204e6f204368616e676560701b604482015290519081900360640190fd5b8015611698576116708484611296565b6001600160a01b038416600090815260086020526040902061169290846120d3565b506116bc565b6001600160a01b03841660009081526008602052604090206116ba90846120e8565b505b50505050565b6001600160a01b038116600090815260086020526040812061065390611edf565b3332148061170057503360009081526005602052604090205460ff165b61173f576040805162461bcd60e51b815260206004820152601e6024820152600080516020612630833981519152604482015290519081900360640190fd5b8061174b600682611eca565b611791576040805162461bcd60e51b81526020600482015260126024820152714d616e616765723a204f6e6c792042616e6b60701b604482015290519081900360640190fd5b6001600160a01b03821660009081526008602052604081206117b290611edf565b905060008111611802576040805162461bcd60e51b81526020600482015260166024820152754d616e616765723a204e6f205374726174656769657360501b604482015290519081900360640190fd5b6001600160a01b03831660009081526009602052604081205460ff168281101561182e57809150611833565b600091505b6001600160a01b03851660009081526008602052604081206118589060ff8516611ebe565b9050856001600160a01b031663753842db826040518263ffffffff1660e01b815260040180826001600160a01b03168152602001915050600060405180830381600087803b1580156118a957600080fd5b505af11580156118bd573d6000803e3d6000fd5b505050506001600160a01b03868116600081815260096020526040808220805460ff19166001890160ff1617905551928416927fffdb70e99f7f3262c2641a400deab1ad02aa7c2a59e0be6a116e71867296b20b9190a3505050505050565b600081565b6103e881565b60056020526000908152604090205460ff1681565b611944610da3565b6001600160a01b0316336001600160a01b031614611997576040805162461bcd60e51b815260206004820152601b60248201526000805160206125ef833981519152604482015290519081900360640190fd5b6001600160a01b03811660009081526008602052604081206119b890611edf565b905060005b81811015611a50576001600160a01b038316600081815260086020526040902063eb0dff66906119ed9084611ebe565b6040518263ffffffff1660e01b815260040180826001600160a01b03168152602001915050600060405180830381600087803b158015611a2c57600080fd5b505af1158015611a40573d6000803e3d6000fd5b5050600190920191506119bd9050565b505050565b6000611a616006611edf565b905090565b6001600160a01b03166000908152600a602052604090205460ff1690565b33321480611aa157503360009081526005602052604090205460ff165b611ae0576040805162461bcd60e51b815260206004820152601e6024820152600080516020612630833981519152604482015290519081900360640190fd5b6001546001600160a01b0382811660008181526004602081815260408084209686168085529682528084205481516370a0823160e01b8152309481019490945290519516949293926370a08231926024808201939291829003018186803b158015611b4a57600080fd5b505afa158015611b5e573d6000803e3d6000fd5b505050506040513d6020811015611b7457600080fd5b50519050611b83828583611eea565b5060408051636f70e66f60e01b81523060048201526001600160a01b038681166024830152858116604483015260648201849052600160848301529151600092851691636f70e66f9160a480830192602092919082900301818787803b158015611bec57600080fd5b505af1158015611c00573d6000803e3d6000fd5b505050506040513d6020811015611c1657600080fd5b5051604080518481526020810183905281519293506001600160a01b038816927f2dcc2439519c7d06fca9f8ae01e07f4f3c6ca21b5cdf8eff42cb75cf34d223c9929181900390910190a25050505050565b6001546001600160a01b031681565b611c7f610da3565b6001600160a01b0316336001600160a01b031614611cd2576040805162461bcd60e51b815260206004820152601b60248201526000805160206125ef833981519152604482015290519081900360640190fd5b611ce4826001600160a01b0316611eb8565b611d2d576040805162461bcd60e51b815260206004820152601560248201527413585b9859d95c8e88139bdd0810dbdb9d1c9858dd605a1b604482015290519081900360640190fd5b6000611d3a600684611eca565b90508115158115151415611d8a576040805162461bcd60e51b81526020600482015260126024820152714d616e616765723a204e6f204368616e676560701b604482015290519081900360640190fd5b8015611daa57611d998361193c565b611da46006846120d3565b50611a50565b6116bc6006846120e8565b611dbd610da3565b6001600160a01b0316336001600160a01b031614611e10576040805162461bcd60e51b815260206004820152601b60248201526000805160206125ef833981519152604482015290519081900360640190fd5b60008111611e5e576040805162461bcd60e51b8152602060048201526016602482015275149959da5cdd1c9e4e88125b9d985b1a59081359db5d60521b604482015290519081900360640190fd5b60648110611eb3576040805162461bcd60e51b815260206004820152601760248201527f52656769737472793a204d676d7420546f6f2048696768000000000000000000604482015290519081900360640190fd5b600355565b3b151590565b600061128983836120fd565b6000611289836001600160a01b038416612161565b600061065382612179565b600081611ef957506000611289565b6000836001600160a01b03166370a08231306040518263ffffffff1660e01b815260040180826001600160a01b0316815260200191505060206040518083038186803b158015611f4857600080fd5b505afa158015611f5c573d6000803e3d6000fd5b505050506040513d6020811015611f7257600080fd5b5051905082811015611f9957611f926001600160a01b038516868361217d565b9050611289565b611fad6001600160a01b038516868561217d565b50909392505050565b600082611fc557506000610653565b82820282848281611fd257fe5b04146112895760405162461bcd60e51b815260040180806020018281038252602181526020018061260f6021913960400191505060405180910390fd5b6000808211612065576040805162461bcd60e51b815260206004820152601a60248201527f536166654d6174683a206469766973696f6e206279207a65726f000000000000604482015290519081900360640190fd5b81838161206e57fe5b049392505050565b6000828211156120cd576040805162461bcd60e51b815260206004820152601e60248201527f536166654d6174683a207375627472616374696f6e206f766572666c6f770000604482015290519081900360640190fd5b50900390565b6000611289836001600160a01b0384166121cf565b6000611289836001600160a01b038416612295565b8154600090821061213f5760405162461bcd60e51b81526004018080602001828103825260228152602001806125a76022913960400191505060405180910390fd5b82600001828154811061214e57fe5b9060005260206000200154905092915050565b60009081526001919091016020526040902054151590565b5490565b604080516001600160a01b038416602482015260448082018490528251808303909101815260649091019091526020810180516001600160e01b031663a9059cbb60e01b179052611a509084906122df565b6000818152600183016020526040812054801561228b578354600019808301919081019060009087908390811061220257fe5b906000526020600020015490508087600001848154811061221f57fe5b60009182526020808320909101929092558281526001898101909252604090209084019055865487908061224f57fe5b60019003818190600052602060002001600090559055866001016000878152602001908152602001600020600090556001945050505050610653565b6000915050610653565b60006122a18383612161565b6122d757508154600181810184556000848152602080822090930184905584548482528286019093526040902091909155610653565b506000610653565b6000612334826040518060400160405280602081526020017f5361666545524332303a206c6f772d6c6576656c2063616c6c206661696c6564815250856001600160a01b03166123909092919063ffffffff16565b805190915015611a505780806020019051602081101561235357600080fd5b5051611a505760405162461bcd60e51b815260040180806020018281038252602a815260200180612650602a913960400191505060405180910390fd5b606061239f84846000856123a7565b949350505050565b6060824710156123e85760405162461bcd60e51b81526004018080602001828103825260268152602001806125c96026913960400191505060405180910390fd5b6123f185611eb8565b612442576040805162461bcd60e51b815260206004820152601d60248201527f416464726573733a2063616c6c20746f206e6f6e2d636f6e7472616374000000604482015290519081900360640190fd5b600080866001600160a01b031685876040518082805190602001908083835b602083106124805780518252601f199092019160209182019101612461565b6001836020036101000a03801982511681845116808217855250505050505090500191505060006040518083038185875af1925050503d80600081146124e2576040519150601f19603f3d011682016040523d82523d6000602084013e6124e7565b606091505b50915091506124f7828286612502565b979650505050505050565b60608315612511575081611289565b8251156125215782518084602001fd5b8160405162461bcd60e51b81526004018080602001828103825283818151815260200191508051906020019080838360005b8381101561256b578181015183820152602001612553565b50505050905090810190601f1680156125985780820380516001836020036101000a031916815260200191505b509250505060405180910390fdfe456e756d657261626c655365743a20696e646578206f7574206f6620626f756e6473416464726573733a20696e73756666696369656e742062616c616e636520666f722063616c6c537562736372696265723a204f6e6c7920476f7665726e616e63650000000000536166654d6174683a206d756c7469706c69636174696f6e206f766572666c6f774d616e616765723a204f6e6c7920454f41206f722057686974656c69737400005361666545524332303a204552433230206f7065726174696f6e20646964206e6f742073756363656564a26469706673582212208f8d2a0dfa4c7edabab6fdf6c83f982e55417a19ee506c562f1bad25a0b4cdad64736f6c63430007060033",
  "devdoc": {
    "kind": "dev",
    "methods": {
      "accrueRevenue(address,address,uint256)": {
        "details": "Only callable by approved Strategies",
        "params": {
          "amount": "The total amount of profit received from liquidation",
          "bank": "The address of the Bank which uses the Strategy"
        }
      },
      "buyback(address)": {
        "details": "Burns all proceeds",
        "params": {
          "from": "The address of the token to liquidate for Oh! Tokens"
        }
      },
      "constructor": {
        "details": "Sets initial buyback and management fee parameters",
        "params": {
          "registry_": "The address of the registry",
          "token_": "The address of the Oh! Token"
        }
      },
      "exit(address,address)": {
        "params": {
          "bank": "The bank that will be used to exit the strategy",
          "strategy": "The strategy to be exited"
        }
      },
      "exitAll(address)": {
        "params": {
          "bank": "The bank that will be used to exit the strategy"
        }
      },
      "finance(address)": {
        "details": "Only allow this function to be called on approved Banks",
        "params": {
          "bank": "The address of the Bank to finance"
        }
      },
      "financeAll(address)": {
        "details": "Deposit queue not needed here as all Strategies are equally invested inOnly allow this function to be called on approved Banks",
        "params": {
          "bank": "The address of the Bank to finance"
        }
      },
      "governance()": {
        "returns": {
          "_0": "The current Governance address"
        }
      },
      "manager()": {
        "returns": {
          "_0": "The current Manager address"
        }
      },
      "rebalance(address)": {
        "params": {
          "bank": "The bank to rebalance"
        }
      },
      "registry()": {
        "returns": {
          "_0": "The current Registry address"
        }
      },
      "setBank(address,bool)": {
        "details": "Only Governance can call this function",
        "params": {
          "_approved": "the approval status of the bank",
          "_bank": "the bank to be approved/unapproved"
        }
      },
      "setBuybackFee(uint256)": {
        "details": "Only Governance; base 1000, 1% = 10",
        "params": {
          "_buybackFee": "The new buyback fee"
        }
      },
      "setLiquidator(address,address,address)": {
        "details": "Only Governance can call this function",
        "params": {
          "_from": "the token we have to liquidate",
          "_liquidator": "the liquidator contract",
          "_to": "the token we want to receive"
        }
      },
      "setManagementFee(uint256)": {
        "details": "Only Governance; base 1000, 1% = 10",
        "params": {
          "_managementFee": "The new management fee"
        }
      },
      "setRegistry(address)": {
        "details": "Requires sender to be Governance of the new Registry to avoid bricking.Ideally should not be used",
        "params": {
          "registry_": "The new registry"
        }
      },
      "setStrategy(address,address,bool)": {
        "details": "Only Governance can call this function",
        "params": {
          "_approved": "the approval status of the Strategy",
          "_bank": "the bank which uses the strategy",
          "_strategy": "the strategy to be approved/unapproved"
        }
      },
      "setWhitelisted(address,bool)": {
        "details": "Only Governance can call this function",
        "params": {
          "_contract": "the strategy contract",
          "_whitelisted": "the whitelisted status of the strategy"
        }
      },
      "setWithdrawIndex(uint256)": {
        "params": {
          "i": "The index value"
        }
      },
      "strategies(address,uint256)": {
        "params": {
          "bank": "The address of the Bank that contains the Strategy",
          "i": "The Bank queue index to check"
        }
      },
      "totalStrategies(address)": {
        "params": {
          "bank": "The Bank we are checking"
        },
        "returns": {
          "_0": "Amount of active strategies"
        }
      },
      "withdrawIndex(address)": {
        "params": {
          "bank": "The Bank to check the next Strategy for"
        },
        "returns": {
          "_0": "The index of the Strategy"
        }
      }
    },
    "version": 1
  },
  "userdoc": {
    "events": {
      "AccrueRevenue(address,address,uint256,uint256,uint256)": {
        "notice": "Emitted when a Bank realizes profit via liquidation "
      },
      "Buyback(address,uint256,uint256)": {
        "notice": "Emitted when a buyback is performed with an amount of from tokens"
      },
      "Finance(address,address)": {
        "notice": "Emitted when a Bank's capital is invested in a single Strategy "
      },
      "FinanceAll(address)": {
        "notice": "Emitted when a Bank's capital is invested in all Strategies"
      },
      "Rebalance(address)": {
        "notice": "Emitted when a Bank's capital is rebalanced"
      }
    },
    "kind": "user",
    "methods": {
      "FEE_DENOMINATOR()": {
        "notice": "Denominator for calculating protocol fees"
      },
      "MAX_BUYBACK_FEE()": {
        "notice": "Maximum buyback fee, 50%"
      },
      "MAX_MANAGEMENT_FEE()": {
        "notice": "Maximum management fee, 10%"
      },
      "MIN_BUYBACK_FEE()": {
        "notice": "Minimum buyback fee, 10%"
      },
      "MIN_MANAGEMENT_FEE()": {
        "notice": "Minimum management fee, 0%"
      },
      "accrueRevenue(address,address,uint256)": {
        "notice": "Accrue revenue from a Strategy"
      },
      "banks(uint256)": {
        "notice": "Get the Bank"
      },
      "buyback(address)": {
        "notice": "Perform a token buyback with accrued revenue"
      },
      "buybackFee()": {
        "notice": "The amount of profits reserved for protocol buybacks, base 1000"
      },
      "constructor": {
        "notice": "Deploy the Manager with the Registry reference"
      },
      "exit(address,address)": {
        "notice": "Exit a given strategy for a given bank"
      },
      "exitAll(address)": {
        "notice": "Exit from all strategies for a given bank"
      },
      "finance(address)": {
        "notice": "Finance the next Strategy in the Bank queue with all available underlying"
      },
      "financeAll(address)": {
        "notice": "Evenly finance underlying to all strategies"
      },
      "governance()": {
        "notice": "Get the Governance address"
      },
      "liquidators(address,address)": {
        "notice": "The mapping of `from` token to `to` token to liquidator contract"
      },
      "managementFee()": {
        "notice": "The amount of profits reserved for fund management, base 1000"
      },
      "manager()": {
        "notice": "Get the Manager address"
      },
      "rebalance(address)": {
        "notice": "Rebalance Bank exposure by withdrawing all, then evenly distributing underlying to all strategies"
      },
      "registry()": {
        "notice": "Get the Registry address"
      },
      "setBank(address,bool)": {
        "notice": "Adds or removes a Bank for investment"
      },
      "setBuybackFee(uint256)": {
        "notice": "Sets the protocol buyback percentage (Profit Share)"
      },
      "setLiquidator(address,address,address)": {
        "notice": "Sets the Liquidator contract for a given token"
      },
      "setManagementFee(uint256)": {
        "notice": "Sets the protocol management fee percentage"
      },
      "setRegistry(address)": {
        "notice": "Set the Registry for the contract. Only callable by Governance."
      },
      "setStrategy(address,address,bool)": {
        "notice": "Adds or removes a Strategy for a given Bank"
      },
      "setWhitelisted(address,bool)": {
        "notice": "Whitelists strategy for Bank use/management"
      },
      "setWithdrawIndex(uint256)": {
        "notice": "Set the withdrawal index"
      },
      "strategies(address,uint256)": {
        "notice": "Get the Strategy at a given index for a given Bank"
      },
      "token()": {
        "notice": "The address of the Oh! Finance Token"
      },
      "totalStrategies(address)": {
        "notice": "Get total number of strategies for a given bank"
      },
      "whitelisted(address)": {
        "notice": "The mapping of contracts that are whitelisted for Bank use/management"
      },
      "withdrawIndex(address)": {
        "notice": "Get the index of the Strategy to withdraw from for a given Bank"
      }
    },
    "version": 1
  },
  "storageLayout": {
    "storage": [
      {
        "astId": 1578,
        "contract": "contracts/manager/OhAvalancheManager.sol:OhAvalancheManager",
        "label": "_registry",
        "offset": 0,
        "slot": "0",
        "type": "t_address"
      },
      {
        "astId": 556,
        "contract": "contracts/manager/OhAvalancheManager.sol:OhAvalancheManager",
        "label": "token",
        "offset": 0,
        "slot": "1",
        "type": "t_address"
      },
      {
        "astId": 560,
        "contract": "contracts/manager/OhAvalancheManager.sol:OhAvalancheManager",
        "label": "buybackFee",
        "offset": 0,
        "slot": "2",
        "type": "t_uint256"
      },
      {
        "astId": 564,
        "contract": "contracts/manager/OhAvalancheManager.sol:OhAvalancheManager",
        "label": "managementFee",
        "offset": 0,
        "slot": "3",
        "type": "t_uint256"
      },
      {
        "astId": 572,
        "contract": "contracts/manager/OhAvalancheManager.sol:OhAvalancheManager",
        "label": "liquidators",
        "offset": 0,
        "slot": "4",
        "type": "t_mapping(t_address,t_mapping(t_address,t_address))"
      },
      {
        "astId": 578,
        "contract": "contracts/manager/OhAvalancheManager.sol:OhAvalancheManager",
        "label": "whitelisted",
        "offset": 0,
        "slot": "5",
        "type": "t_mapping(t_address,t_bool)"
      },
      {
        "astId": 581,
        "contract": "contracts/manager/OhAvalancheManager.sol:OhAvalancheManager",
        "label": "_banks",
        "offset": 0,
        "slot": "6",
        "type": "t_struct(AddressSet)4705_storage"
      },
      {
        "astId": 586,
        "contract": "contracts/manager/OhAvalancheManager.sol:OhAvalancheManager",
        "label": "_strategies",
        "offset": 0,
        "slot": "8",
        "type": "t_mapping(t_address,t_struct(AddressSet)4705_storage)"
      },
      {
        "astId": 591,
        "contract": "contracts/manager/OhAvalancheManager.sol:OhAvalancheManager",
        "label": "_depositQueue",
        "offset": 0,
        "slot": "9",
        "type": "t_mapping(t_address,t_uint8)"
      },
      {
        "astId": 596,
        "contract": "contracts/manager/OhAvalancheManager.sol:OhAvalancheManager",
        "label": "_withdrawQueue",
        "offset": 0,
        "slot": "10",
        "type": "t_mapping(t_address,t_uint8)"
      },
      {
        "astId": 5017,
        "contract": "contracts/manager/OhAvalancheManager.sol:OhAvalancheManager",
        "label": "burner",
        "offset": 0,
        "slot": "11",
        "type": "t_address"
      }
    ],
    "types": {
      "t_address": {
        "encoding": "inplace",
        "label": "address",
        "numberOfBytes": "20"
      },
      "t_array(t_bytes32)dyn_storage": {
        "base": "t_bytes32",
        "encoding": "dynamic_array",
        "label": "bytes32[]",
        "numberOfBytes": "32"
      },
      "t_bool": {
        "encoding": "inplace",
        "label": "bool",
        "numberOfBytes": "1"
      },
      "t_bytes32": {
        "encoding": "inplace",
        "label": "bytes32",
        "numberOfBytes": "32"
      },
      "t_mapping(t_address,t_address)": {
        "encoding": "mapping",
        "key": "t_address",
        "label": "mapping(address => address)",
        "numberOfBytes": "32",
        "value": "t_address"
      },
      "t_mapping(t_address,t_bool)": {
        "encoding": "mapping",
        "key": "t_address",
        "label": "mapping(address => bool)",
        "numberOfBytes": "32",
        "value": "t_bool"
      },
      "t_mapping(t_address,t_mapping(t_address,t_address))": {
        "encoding": "mapping",
        "key": "t_address",
        "label": "mapping(address => mapping(address => address))",
        "numberOfBytes": "32",
        "value": "t_mapping(t_address,t_address)"
      },
      "t_mapping(t_address,t_struct(AddressSet)4705_storage)": {
        "encoding": "mapping",
        "key": "t_address",
        "label": "mapping(address => struct EnumerableSet.AddressSet)",
        "numberOfBytes": "32",
        "value": "t_struct(AddressSet)4705_storage"
      },
      "t_mapping(t_address,t_uint8)": {
        "encoding": "mapping",
        "key": "t_address",
        "label": "mapping(address => uint8)",
        "numberOfBytes": "32",
        "value": "t_uint8"
      },
      "t_mapping(t_bytes32,t_uint256)": {
        "encoding": "mapping",
        "key": "t_bytes32",
        "label": "mapping(bytes32 => uint256)",
        "numberOfBytes": "32",
        "value": "t_uint256"
      },
      "t_struct(AddressSet)4705_storage": {
        "encoding": "inplace",
        "label": "struct EnumerableSet.AddressSet",
        "members": [
          {
            "astId": 4704,
            "contract": "contracts/manager/OhAvalancheManager.sol:OhAvalancheManager",
            "label": "_inner",
            "offset": 0,
            "slot": "0",
            "type": "t_struct(Set)4440_storage"
          }
        ],
        "numberOfBytes": "64"
      },
      "t_struct(Set)4440_storage": {
        "encoding": "inplace",
        "label": "struct EnumerableSet.Set",
        "members": [
          {
            "astId": 4435,
            "contract": "contracts/manager/OhAvalancheManager.sol:OhAvalancheManager",
            "label": "_values",
            "offset": 0,
            "slot": "0",
            "type": "t_array(t_bytes32)dyn_storage"
          },
          {
            "astId": 4439,
            "contract": "contracts/manager/OhAvalancheManager.sol:OhAvalancheManager",
            "label": "_indexes",
            "offset": 0,
            "slot": "1",
            "type": "t_mapping(t_bytes32,t_uint256)"
          }
        ],
        "numberOfBytes": "64"
      },
      "t_uint256": {
        "encoding": "inplace",
        "label": "uint256",
        "numberOfBytes": "32"
      },
      "t_uint8": {
        "encoding": "inplace",
        "label": "uint8",
        "numberOfBytes": "1"
      }
    }
  }
}