{
  "address": "0xEC79aDd691eB3760F888dC2e3B32a22F676a245F",
  "abi": [
    {
      "inputs": [],
      "stateMutability": "nonpayable",
      "type": "constructor"
    },
    {
      "anonymous": false,
      "inputs": [
        {
          "indexed": true,
          "internalType": "address",
          "name": "router",
          "type": "address"
        },
        {
          "indexed": true,
          "internalType": "address",
          "name": "token",
          "type": "address"
        },
        {
          "indexed": false,
          "internalType": "uint256",
          "name": "amount",
          "type": "uint256"
        }
      ],
      "name": "Liquidate",
      "type": "event"
    },
    {
      "anonymous": false,
      "inputs": [
        {
          "indexed": true,
          "internalType": "address",
          "name": "token",
          "type": "address"
        },
        {
          "indexed": false,
          "internalType": "uint256",
          "name": "amount",
          "type": "uint256"
        },
        {
          "indexed": false,
          "internalType": "address",
          "name": "recipient",
          "type": "address"
        }
      ],
      "name": "Sweep",
      "type": "event"
    },
    {
      "inputs": [],
      "name": "bank",
      "outputs": [
        {
          "internalType": "address",
          "name": "",
          "type": "address"
        }
      ],
      "stateMutability": "view",
      "type": "function"
    },
    {
      "inputs": [],
      "name": "derivative",
      "outputs": [
        {
          "internalType": "address",
          "name": "",
          "type": "address"
        }
      ],
      "stateMutability": "view",
      "type": "function"
    },
    {
      "inputs": [],
      "name": "derivativeBalance",
      "outputs": [
        {
          "internalType": "uint256",
          "name": "",
          "type": "uint256"
        }
      ],
      "stateMutability": "view",
      "type": "function"
    },
    {
      "inputs": [],
      "name": "extraReward",
      "outputs": [
        {
          "internalType": "address",
          "name": "",
          "type": "address"
        }
      ],
      "stateMutability": "view",
      "type": "function"
    },
    {
      "inputs": [],
      "name": "extraRewardBalance",
      "outputs": [
        {
          "internalType": "uint256",
          "name": "",
          "type": "uint256"
        }
      ],
      "stateMutability": "view",
      "type": "function"
    },
    {
      "inputs": [],
      "name": "governance",
      "outputs": [
        {
          "internalType": "address",
          "name": "",
          "type": "address"
        }
      ],
      "stateMutability": "view",
      "type": "function"
    },
    {
      "inputs": [
        {
          "internalType": "address",
          "name": "registry_",
          "type": "address"
        },
        {
          "internalType": "address",
          "name": "bank_",
          "type": "address"
        },
        {
          "internalType": "address",
          "name": "underlying_",
          "type": "address"
        },
        {
          "internalType": "address",
          "name": "derivative_",
          "type": "address"
        },
        {
          "internalType": "address",
          "name": "reward_",
          "type": "address"
        },
        {
          "internalType": "address",
          "name": "extraReward_",
          "type": "address"
        },
        {
          "internalType": "address",
          "name": "joetroller_",
          "type": "address"
        }
      ],
      "name": "initializeBankerJoeStrategy",
      "outputs": [],
      "stateMutability": "nonpayable",
      "type": "function"
    },
    {
      "inputs": [],
      "name": "invest",
      "outputs": [],
      "stateMutability": "nonpayable",
      "type": "function"
    },
    {
      "inputs": [],
      "name": "investedBalance",
      "outputs": [
        {
          "internalType": "uint256",
          "name": "",
          "type": "uint256"
        }
      ],
      "stateMutability": "view",
      "type": "function"
    },
    {
      "inputs": [],
      "name": "joetroller",
      "outputs": [
        {
          "internalType": "address",
          "name": "",
          "type": "address"
        }
      ],
      "stateMutability": "view",
      "type": "function"
    },
    {
      "inputs": [],
      "name": "manager",
      "outputs": [
        {
          "internalType": "address",
          "name": "",
          "type": "address"
        }
      ],
      "stateMutability": "view",
      "type": "function"
    },
    {
      "inputs": [],
      "name": "registry",
      "outputs": [
        {
          "internalType": "address",
          "name": "",
          "type": "address"
        }
      ],
      "stateMutability": "view",
      "type": "function"
    },
    {
      "inputs": [],
      "name": "reward",
      "outputs": [
        {
          "internalType": "address",
          "name": "",
          "type": "address"
        }
      ],
      "stateMutability": "view",
      "type": "function"
    },
    {
      "inputs": [],
      "name": "rewardBalance",
      "outputs": [
        {
          "internalType": "uint256",
          "name": "",
          "type": "uint256"
        }
      ],
      "stateMutability": "view",
      "type": "function"
    },
    {
      "inputs": [
        {
          "internalType": "address",
          "name": "registry_",
          "type": "address"
        }
      ],
      "name": "setRegistry",
      "outputs": [],
      "stateMutability": "nonpayable",
      "type": "function"
    },
    {
      "inputs": [
        {
          "internalType": "address",
          "name": "token",
          "type": "address"
        },
        {
          "internalType": "uint256",
          "name": "amount",
          "type": "uint256"
        },
        {
          "internalType": "address",
          "name": "recipient",
          "type": "address"
        }
      ],
      "name": "sweep",
      "outputs": [],
      "stateMutability": "nonpayable",
      "type": "function"
    },
    {
      "inputs": [],
      "name": "underlying",
      "outputs": [
        {
          "internalType": "address",
          "name": "",
          "type": "address"
        }
      ],
      "stateMutability": "view",
      "type": "function"
    },
    {
      "inputs": [],
      "name": "underlyingBalance",
      "outputs": [
        {
          "internalType": "uint256",
          "name": "",
          "type": "uint256"
        }
      ],
      "stateMutability": "view",
      "type": "function"
    },
    {
      "inputs": [
        {
          "internalType": "uint256",
          "name": "amount",
          "type": "uint256"
        }
      ],
      "name": "withdraw",
      "outputs": [
        {
          "internalType": "uint256",
          "name": "",
          "type": "uint256"
        }
      ],
      "stateMutability": "nonpayable",
      "type": "function"
    },
    {
      "inputs": [],
      "name": "withdrawAll",
      "outputs": [],
      "stateMutability": "nonpayable",
      "type": "function"
    },
    {
      "stateMutability": "payable",
      "type": "receive"
    }
  ],
  "transactionHash": "0xb1ee0c0e0642ab54ad3c3f373b005a48983e8fdc9f287a1c4b8006cc2891509f",
  "args": [],
  "solcInputHash": "bda25618f447c2b914f654c498263762",
  "bytecode": "0x60806040523480156200001157600080fd5b50600054610100900460ff16806200002e57506200002e62000134565b806200003d575060005460ff16155b6200007a5760405162461bcd60e51b815260040180806020018281038252602e81526020018062001f32602e913960400191505060405180910390fd5b600054610100900460ff16158015620000a6576000805460ff1961ff0019909116610100171660011790555b6000620000b262000152565b6001600160a01b031614620000c357fe5b6000620000cf62000184565b6001600160a01b031614620000e057fe5b6000620000ec620001b1565b6001600160a01b031614620000fd57fe5b600062000109620001de565b6001600160a01b0316146200011a57fe5b80156200012d576000805461ff00191690555b5062000215565b60006200014c306200020b60201b62000a781760201c565b15905090565b60006200017f7f1b5717851286d5e98a28354be764b8c0a20eb2fbd059120090ee8bcfe1a9bf6c62000211565b905090565b60006200017f7fd2eff96e29993ca5431993c3a205e12e198965c0e1fdd87b4899b57f1e611c7462000211565b60006200017f7f0fad97fe3ec7d6c1e9191a09a0c4ccb7a831b6605392e57d2fedb8501a4dc81262000211565b60006200017f7faeb865605058f37eedb4467ee2609ddec592b0c9a6f7f7cb0db3feabe544c71c62000211565b3b151590565b5490565b611d0d80620002256000396000f3fe6080604052600436106101235760003560e01c80636f307dc3116100a0578063aa5c3ab411610064578063aa5c3ab4146102cd578063c9168a59146102e2578063dc2c256f146102f7578063e8b5e51f1461033a578063f86ae3ef1461034f5761012a565b80636f307dc31461024457806376cdb03b146102595780637b1039991461026e578063853828b614610283578063a91ee0dc1461029a5761012a565b8063481c6a75116100e7578063481c6a75146101db57806359356c5c146101f05780635aa6e675146102055780636330533c1461021a57806369e30ab71461022f5761012a565b806319776d8e1461012f5780631985a89f14610156578063228cb733146101875780632e1a7d4d1461019c5780633a88ac0f146101c65761012a565b3661012a57005b600080fd5b34801561013b57600080fd5b506101446103b4565b60408051918252519081900360200190f35b34801561016257600080fd5b5061016b61045c565b604080516001600160a01b039092168252519081900360200190f35b34801561019357600080fd5b5061016b61048c565b3480156101a857600080fd5b50610144600480360360208110156101bf57600080fd5b50356104b7565b3480156101d257600080fd5b5061016b61052f565b3480156101e757600080fd5b5061016b61055a565b3480156101fc57600080fd5b5061014461059c565b34801561021157600080fd5b5061016b6105a6565b34801561022657600080fd5b5061016b6105e8565b34801561023b57600080fd5b50610144610613565b34801561025057600080fd5b5061016b61061d565b34801561026557600080fd5b5061016b610648565b34801561027a57600080fd5b5061016b610673565b34801561028f57600080fd5b5061029861069e565b005b3480156102a657600080fd5b50610298600480360360208110156102bd57600080fd5b50356001600160a01b031661071b565b3480156102d957600080fd5b50610144610801565b3480156102ee57600080fd5b5061014461082b565b34801561030357600080fd5b506102986004803603606081101561031a57600080fd5b506001600160a01b0381358116916020810135916040909101351661086a565b34801561034657600080fd5b5061029861092d565b34801561035b57600080fd5b50610298600480360360e081101561037257600080fd5b506001600160a01b038135811691602081013582169160408201358116916060810135821691608082013581169160a081013582169160c090910135166109a2565b6000806103bf61045c565b6001600160a01b031614156103d657506000610459565b6103de61045c565b6001600160a01b03166370a08231306040518263ffffffff1660e01b815260040180826001600160a01b0316815260200191505060206040518083038186803b15801561042a57600080fd5b505afa15801561043e573d6000803e3d6000fd5b505050506040513d602081101561045457600080fd5b505190505b90565b60006104877f4ff4c9b81c0bf267e01129f4817e03efc0163ee7133b87bd58118a96bbce43d3610a7e565b905090565b60006104877faeb865605058f37eedb4467ee2609ddec592b0c9a6f7f7cb0db3feabe544c71c610a7e565b60006104c1610648565b6001600160a01b0316336001600160a01b03161461051c576040805162461bcd60e51b815260206004820152601360248201527253747261746567793a204f6e6c792042616e6b60681b604482015290519081900360640190fd5b60006105283384610a82565b9392505050565b60006104877f439030740bcc4b8c94e60e9bf15b9e74cc71fa04931673ee32ca99cc75178a52610a7e565b6000610564610673565b6001600160a01b031663481c6a756040518163ffffffff1660e01b815260040160206040518083038186803b15801561042a57600080fd5b60006103de61061d565b60006105b0610673565b6001600160a01b0316635aa6e6756040518163ffffffff1660e01b815260040160206040518083038186803b15801561042a57600080fd5b60006104877f2161428b88882bba124b5a2dd4fd1884a906465a4c6e30d8494cf23a5c502d7e610a7e565b60006103de61052f565b60006104877f0fad97fe3ec7d6c1e9191a09a0c4ccb7a831b6605392e57d2fedb8501a4dc812610a7e565b60006104877fd2eff96e29993ca5431993c3a205e12e198965c0e1fdd87b4899b57f1e611c74610a7e565b60006104877f1b5717851286d5e98a28354be764b8c0a20eb2fbd059120090ee8bcfe1a9bf6c610a7e565b6106a6610648565b6001600160a01b0316336001600160a01b031614610701576040805162461bcd60e51b815260206004820152601360248201527253747261746567793a204f6e6c792042616e6b60681b604482015290519081900360640190fd5b600061070b61082b565b90506107173382610a82565b5050565b6107236105a6565b6001600160a01b0316336001600160a01b031614610788576040805162461bcd60e51b815260206004820152601b60248201527f537562736372696265723a204f6e6c7920476f7665726e616e63650000000000604482015290519081900360640190fd5b61079181610b21565b6107996105a6565b6001600160a01b0316336001600160a01b0316146107fe576040805162461bcd60e51b815260206004820152601a60248201527f537562736372696265723a2042616420476f7665726e616e6365000000000000604482015290519081900360640190fd5b50565b60008061080c61048c565b6001600160a01b0316141561082357506000610459565b6103de61048c565b60008061083e61083961045c565b610b4b565b9050610864670de0b6b3a764000061085e6108576103b4565b8490610bb8565b90610c11565b91505090565b6108726105a6565b6001600160a01b0316336001600160a01b0316146108d7576040805162461bcd60e51b815260206004820152601b60248201527f537562736372696265723a204f6e6c7920476f7665726e616e63650000000000604482015290519081900360640190fd5b6108e2818484610c78565b50604080518381526001600160a01b0383811660208301528251908616927f8d71d334346acd8aade4cdca3af39a37fca2620cd870d28ccf94ae4ade61c8f3928290030190a2505050565b610935610648565b6001600160a01b0316336001600160a01b031614610990576040805162461bcd60e51b815260206004820152601360248201527253747261746567793a204f6e6c792042616e6b60681b604482015290519081900360640190fd5b610998610d44565b6109a0610dc1565b565b600054610100900460ff16806109bb57506109bb610dec565b806109c9575060005460ff16155b610a045760405162461bcd60e51b815260040180806020018281038252602e815260200180611c29602e913960400191505060405180910390fd5b600054610100900460ff16158015610a2f576000805460ff1961ff0019909116610100171660011790555b610a3c8888888888610dfd565b610a468383610eb9565b610a5c6001600160a01b03861687600019610f6f565b8015610a6e576000805461ff00191690555b5050505050505050565b3b151590565b5490565b600081610a9157506000610b1b565b6000610a9b61082b565b90506000610ab58261085e86670de0b6b3a7640000610bb8565b90506000610acf670de0b6b3a764000061085e8486610bb8565b905082811115610aef57610aea610ae461045c565b84611082565b610b00565b610b00610afa61045c565b82611082565b6000610b1487610b0e61061d565b88610c78565b9450505050505b92915050565b6107fe7f1b5717851286d5e98a28354be764b8c0a20eb2fbd059120090ee8bcfe1a9bf6c82611155565b6000816001600160a01b031663182df0f56040518163ffffffff1660e01b815260040160206040518083038186803b158015610b8657600080fd5b505afa158015610b9a573d6000803e3d6000fd5b505050506040513d6020811015610bb057600080fd5b505192915050565b600082610bc757506000610b1b565b82820282848281610bd457fe5b04146105285760405162461bcd60e51b8152600401808060200182810382526021815260200180611c576021913960400191505060405180910390fd5b6000808211610c67576040805162461bcd60e51b815260206004820152601a60248201527f536166654d6174683a206469766973696f6e206279207a65726f000000000000604482015290519081900360640190fd5b818381610c7057fe5b049392505050565b600081610c8757506000610528565b6000836001600160a01b03166370a08231306040518263ffffffff1660e01b815260040180826001600160a01b0316815260200191505060206040518083038186803b158015610cd657600080fd5b505afa158015610cea573d6000803e3d6000fd5b505050506040513d6020811015610d0057600080fd5b5051905082811015610d2757610d206001600160a01b0385168683611159565b9050610528565b610d3b6001600160a01b0385168685611159565b50909392505050565b610d56610d4f6105e8565b60006111ab565b6000610d60610801565b90508015610d8157610d81610d7361048c565b610d7b61061d565b8361120f565b610d93610d8c6105e8565b60016111ab565b610da4610d9e61052f565b476113dc565b6000610dae610613565b9050801561071757610717610d7361052f565b6000610dcb61059c565b905080156107fe576107fe610dde61061d565b610de661045c565b8361143e565b6000610df730610a78565b15905090565b600054610100900460ff1680610e165750610e16610dec565b80610e24575060005460ff16155b610e5f5760405162461bcd60e51b815260040180806020018281038252602e815260200180611c29602e913960400191505060405180910390fd5b600054610100900460ff16158015610e8a576000805460ff1961ff0019909116610100171660011790555b610e938661152b565b610e9f85858585611630565b8015610eb1576000805461ff00191690555b505050505050565b600054610100900460ff1680610ed25750610ed2610dec565b80610ee0575060005460ff16155b610f1b5760405162461bcd60e51b815260040180806020018281038252602e815260200180611c29602e913960400191505060405180910390fd5b600054610100900460ff16158015610f46576000805460ff1961ff0019909116610100171660011790555b610f4f836116fa565b610f5882611724565b8015610f6a576000805461ff00191690555b505050565b801580610ff5575060408051636eb1769f60e11b81523060048201526001600160a01b03848116602483015291519185169163dd62ed3e91604480820192602092909190829003018186803b158015610fc757600080fd5b505afa158015610fdb573d6000803e3d6000fd5b505050506040513d6020811015610ff157600080fd5b5051155b6110305760405162461bcd60e51b8152600401808060200182810382526036815260200180611ca26036913960400191505060405180910390fd5b604080516001600160a01b038416602482015260448082018490528251808303909101815260649091019091526020810180516001600160e01b031663095ea7b360e01b179052610f6a90849061174e565b8061108c57610717565b6000826001600160a01b031663852a12e3836040518263ffffffff1660e01b815260040180828152602001915050602060405180830381600087803b1580156110d457600080fd5b505af11580156110e8573d6000803e3d6000fd5b505050506040513d60208110156110fe57600080fd5b505190508015610f6a576040805162461bcd60e51b815260206004820152601c60248201527f42616e6b65724a6f653a2052656465656d20756e6465726c79696e6700000000604482015290519081900360640190fd5b9055565b604080516001600160a01b038416602482015260448082018490528251808303909101815260649091019091526020810180516001600160e01b031663a9059cbb60e01b179052610f6a90849061174e565b60408051630952c56360e01b815260ff8316600482015230602482015290516001600160a01b03841691630952c56391604480830192600092919082900301818387803b1580156111fb57600080fd5b505af1158015610eb1573d6000803e3d6000fd5b600061121961055a565b90506000816001600160a01b031663921c86d286866040518363ffffffff1660e01b815260040180836001600160a01b03168152602001826001600160a01b031681526020019250505060206040518083038186803b15801561127b57600080fd5b505afa15801561128f573d6000803e3d6000fd5b505050506040513d60208110156112a557600080fd5b505190506112b4818685610c78565b5060408051636f70e66f60e01b81526001600160a01b0384811660048301528781166024830152868116604483015260648201869052600160848301529151600092841691636f70e66f9160a480830192602092919082900301818787803b15801561131f57600080fd5b505af1158015611333573d6000803e3d6000fd5b505050506040513d602081101561134957600080fd5b505190506001600160a01b0383166348930428611364610648565b87846040518463ffffffff1660e01b815260040180846001600160a01b03168152602001836001600160a01b031681526020018281526020019350505050600060405180830381600087803b1580156113bc57600080fd5b505af11580156113d0573d6000803e3d6000fd5b50505050505050505050565b806113e657610717565b816001600160a01b031663d0e30db0826040518263ffffffff1660e01b81526004016000604051808303818588803b15801561142157600080fd5b505af1158015611435573d6000803e3d6000fd5b50505050505050565b8061144857610f6a565b61145c6001600160a01b03841683836117ff565b6000826001600160a01b031663a0712d68836040518263ffffffff1660e01b815260040180828152602001915050602060405180830381600087803b1580156114a457600080fd5b505af11580156114b8573d6000803e3d6000fd5b505050506040513d60208110156114ce57600080fd5b505190508015611525576040805162461bcd60e51b815260206004820152601860248201527f42616e6b65724a6f653a20426f72726f77206661696c65640000000000000000604482015290519081900360640190fd5b50505050565b600054610100900460ff16806115445750611544610dec565b80611552575060005460ff16155b61158d5760405162461bcd60e51b815260040180806020018281038252602e815260200180611c29602e913960400191505060405180910390fd5b600054610100900460ff161580156115b8576000805460ff1961ff0019909116610100171660011790555b6115c182610a78565b611612576040805162461bcd60e51b815260206004820152601c60248201527f537562736372696265723a20496e76616c696420526567697374727900000000604482015290519081900360640190fd5b61161b82610b21565b8015610717576000805461ff00191690555050565b600054610100900460ff16806116495750611649610dec565b80611657575060005460ff16155b6116925760405162461bcd60e51b815260040180806020018281038252602e815260200180611c29602e913960400191505060405180910390fd5b600054610100900460ff161580156116bd576000805460ff1961ff0019909116610100171660011790555b6116c6856118ea565b6116cf84611914565b6116d88361193e565b6116e182611968565b80156116f3576000805461ff00191690555b5050505050565b6107fe7f439030740bcc4b8c94e60e9bf15b9e74cc71fa04931673ee32ca99cc75178a5282611155565b6107fe7f2161428b88882bba124b5a2dd4fd1884a906465a4c6e30d8494cf23a5c502d7e82611155565b60006117a3826040518060400160405280602081526020017f5361666545524332303a206c6f772d6c6576656c2063616c6c206661696c6564815250856001600160a01b03166119929092919063ffffffff16565b805190915015610f6a578080602001905160208110156117c257600080fd5b5051610f6a5760405162461bcd60e51b815260040180806020018281038252602a815260200180611c78602a913960400191505060405180910390fd5b600061189582856001600160a01b031663dd62ed3e30876040518363ffffffff1660e01b815260040180836001600160a01b03168152602001826001600160a01b031681526020019250505060206040518083038186803b15801561186357600080fd5b505afa158015611877573d6000803e3d6000fd5b505050506040513d602081101561188d57600080fd5b5051906119a9565b604080516001600160a01b038616602482015260448082018490528251808303909101815260649091019091526020810180516001600160e01b031663095ea7b360e01b17905290915061152590859061174e565b6107fe7fd2eff96e29993ca5431993c3a205e12e198965c0e1fdd87b4899b57f1e611c7482611155565b6107fe7f0fad97fe3ec7d6c1e9191a09a0c4ccb7a831b6605392e57d2fedb8501a4dc81282611155565b6107fe7f4ff4c9b81c0bf267e01129f4817e03efc0163ee7133b87bd58118a96bbce43d382611155565b6107fe7faeb865605058f37eedb4467ee2609ddec592b0c9a6f7f7cb0db3feabe544c71c82611155565b60606119a18484600085611a03565b949350505050565b600082820183811015610528576040805162461bcd60e51b815260206004820152601b60248201527f536166654d6174683a206164646974696f6e206f766572666c6f770000000000604482015290519081900360640190fd5b606082471015611a445760405162461bcd60e51b8152600401808060200182810382526026815260200180611c036026913960400191505060405180910390fd5b611a4d85610a78565b611a9e576040805162461bcd60e51b815260206004820152601d60248201527f416464726573733a2063616c6c20746f206e6f6e2d636f6e7472616374000000604482015290519081900360640190fd5b600080866001600160a01b031685876040518082805190602001908083835b60208310611adc5780518252601f199092019160209182019101611abd565b6001836020036101000a03801982511681845116808217855250505050505090500191505060006040518083038185875af1925050503d8060008114611b3e576040519150601f19603f3d011682016040523d82523d6000602084013e611b43565b606091505b5091509150611b53828286611b5e565b979650505050505050565b60608315611b6d575081610528565b825115611b7d5782518084602001fd5b8160405162461bcd60e51b81526004018080602001828103825283818151815260200191508051906020019080838360005b83811015611bc7578181015183820152602001611baf565b50505050905090810190601f168015611bf45780820380516001836020036101000a031916815260200191505b509250505060405180910390fdfe416464726573733a20696e73756666696369656e742062616c616e636520666f722063616c6c496e697469616c697a61626c653a20636f6e747261637420697320616c726561647920696e697469616c697a6564536166654d6174683a206d756c7469706c69636174696f6e206f766572666c6f775361666545524332303a204552433230206f7065726174696f6e20646964206e6f7420737563636565645361666545524332303a20617070726f76652066726f6d206e6f6e2d7a65726f20746f206e6f6e2d7a65726f20616c6c6f77616e6365a264697066735822122099413f90aabcdb586592475d5ea74c8d3d19307ff5e5d2e308760695ec52591264736f6c63430007060033496e697469616c697a61626c653a20636f6e747261637420697320616c726561647920696e697469616c697a6564",
  "devdoc": {
    "details": "https://docs.traderjoexyz.com/",
    "kind": "dev",
    "methods": {
      "derivativeBalance()": {
        "details": "Balance of derivative tokens received from Strategy, if applicable",
        "returns": {
          "_0": "The balance of derivative tokens"
        }
      },
      "governance()": {
        "returns": {
          "_0": "The current Governance address"
        }
      },
      "initializeBankerJoeStrategy(address,address,address,address,address,address,address)": {
        "details": "The function should be called at time of deployment",
        "params": {
          "bank_": "the bank associated with the strategy",
          "derivative_": "the JToken address received from BankerJoe",
          "joetroller_": "the BankerJoe rewards contract",
          "registry_": "the registry contract",
          "reward_": "the address of the reward token JOE",
          "underlying_": "the underlying token that is deposited"
        }
      },
      "investedBalance()": {
        "details": "Get the exchange rate (which is scaled up by 1e18) and multiply by amount of JTokens",
        "returns": {
          "_0": "The amount of underlying the strategy has invested"
        }
      },
      "manager()": {
        "returns": {
          "_0": "The current Manager address"
        }
      },
      "registry()": {
        "returns": {
          "_0": "The current Registry address"
        }
      },
      "rewardBalance()": {
        "details": "Balance of reward tokens awaiting liquidation, if applicable"
      },
      "setRegistry(address)": {
        "details": "Requires sender to be Governance of the new Registry to avoid bricking.Ideally should not be used",
        "params": {
          "registry_": "The new registry"
        }
      },
      "sweep(address,uint256,address)": {
        "params": {
          "amount": "The amount of tokens to sweep",
          "recipient": "The address to send the sweeped tokens to",
          "token": "The address of the token to sweep"
        }
      },
      "underlyingBalance()": {
        "details": "Balance of underlying awaiting Strategy investment"
      }
    },
    "title": "Oh! Finance Banker Joe Strategy",
    "version": 1
  },
  "userdoc": {
    "kind": "user",
    "methods": {
      "bank()": {
        "notice": "The Bank that the Strategy is associated with"
      },
      "constructor": {
        "notice": "Initialize the BankerJoe Strategy Logic"
      },
      "derivative()": {
        "notice": "The derivative token received from AaveV2 (aToken)"
      },
      "governance()": {
        "notice": "Get the Governance address"
      },
      "initializeBankerJoeStrategy(address,address,address,address,address,address,address)": {
        "notice": "Initializes the BankerJoe Strategy Proxy"
      },
      "investedBalance()": {
        "notice": "Get the balance of underlying invested by the Strategy"
      },
      "manager()": {
        "notice": "Get the Manager address"
      },
      "registry()": {
        "notice": "Get the Registry address"
      },
      "reward()": {
        "notice": "The reward token received from AaveV2 (stkAave)"
      },
      "setRegistry(address)": {
        "notice": "Set the Registry for the contract. Only callable by Governance."
      },
      "sweep(address,uint256,address)": {
        "notice": "Governance function to sweep any stuck / airdrop tokens to a given recipient"
      },
      "underlying()": {
        "notice": "The underlying token the Strategy invests in AaveV2"
      }
    },
    "notice": "Standard, unleveraged strategy. Invest underlying tokens into derivative JTokens",
    "version": 1
  },
  "storageLayout": {
    "storage": [
      {
        "astId": 3184,
        "contract": "contracts/strategies/bankerjoe/OhAvalancheBankerJoeStrategy.sol:OhAvalancheBankerJoeStrategy",
        "label": "_initialized",
        "offset": 0,
        "slot": "0",
        "type": "t_bool"
      },
      {
        "astId": 3187,
        "contract": "contracts/strategies/bankerjoe/OhAvalancheBankerJoeStrategy.sol:OhAvalancheBankerJoeStrategy",
        "label": "_initializing",
        "offset": 1,
        "slot": "0",
        "type": "t_bool"
      }
    ],
    "types": {
      "t_bool": {
        "encoding": "inplace",
        "label": "bool",
        "numberOfBytes": "1"
      }
    }
  }
}