{
  "address": "0xA2e9311D2881265fDfdb09f86859D9F09b9a7950",
  "abi": [
    {
      "inputs": [],
      "stateMutability": "nonpayable",
      "type": "constructor"
    },
    {
      "anonymous": false,
      "inputs": [
        {
          "indexed": true,
          "internalType": "address",
          "name": "router",
          "type": "address"
        },
        {
          "indexed": true,
          "internalType": "address",
          "name": "token",
          "type": "address"
        },
        {
          "indexed": false,
          "internalType": "uint256",
          "name": "amount",
          "type": "uint256"
        }
      ],
      "name": "Liquidate",
      "type": "event"
    },
    {
      "anonymous": false,
      "inputs": [
        {
          "indexed": true,
          "internalType": "address",
          "name": "token",
          "type": "address"
        },
        {
          "indexed": false,
          "internalType": "uint256",
          "name": "amount",
          "type": "uint256"
        },
        {
          "indexed": false,
          "internalType": "address",
          "name": "recipient",
          "type": "address"
        }
      ],
      "name": "Sweep",
      "type": "event"
    },
    {
      "inputs": [],
      "name": "bank",
      "outputs": [
        {
          "internalType": "address",
          "name": "",
          "type": "address"
        }
      ],
      "stateMutability": "view",
      "type": "function"
    },
    {
      "inputs": [],
      "name": "borrowedUnderlying",
      "outputs": [
        {
          "internalType": "uint256",
          "name": "",
          "type": "uint256"
        }
      ],
      "stateMutability": "view",
      "type": "function"
    },
    {
      "inputs": [],
      "name": "collateralFactorDenominator",
      "outputs": [
        {
          "internalType": "uint256",
          "name": "",
          "type": "uint256"
        }
      ],
      "stateMutability": "view",
      "type": "function"
    },
    {
      "inputs": [],
      "name": "collateralFactorNumerator",
      "outputs": [
        {
          "internalType": "uint256",
          "name": "",
          "type": "uint256"
        }
      ],
      "stateMutability": "view",
      "type": "function"
    },
    {
      "inputs": [],
      "name": "derivative",
      "outputs": [
        {
          "internalType": "address",
          "name": "",
          "type": "address"
        }
      ],
      "stateMutability": "view",
      "type": "function"
    },
    {
      "inputs": [],
      "name": "derivativeBalance",
      "outputs": [
        {
          "internalType": "uint256",
          "name": "",
          "type": "uint256"
        }
      ],
      "stateMutability": "view",
      "type": "function"
    },
    {
      "inputs": [],
      "name": "folds",
      "outputs": [
        {
          "internalType": "uint256",
          "name": "",
          "type": "uint256"
        }
      ],
      "stateMutability": "view",
      "type": "function"
    },
    {
      "inputs": [],
      "name": "governance",
      "outputs": [
        {
          "internalType": "address",
          "name": "",
          "type": "address"
        }
      ],
      "stateMutability": "view",
      "type": "function"
    },
    {
      "inputs": [
        {
          "internalType": "address",
          "name": "registry_",
          "type": "address"
        },
        {
          "internalType": "address",
          "name": "bank_",
          "type": "address"
        },
        {
          "internalType": "address",
          "name": "underlying_",
          "type": "address"
        },
        {
          "internalType": "address",
          "name": "derivative_",
          "type": "address"
        },
        {
          "internalType": "address",
          "name": "reward_",
          "type": "address"
        },
        {
          "internalType": "address",
          "name": "joetroller_",
          "type": "address"
        },
        {
          "internalType": "uint256",
          "name": "folds_",
          "type": "uint256"
        },
        {
          "internalType": "uint256",
          "name": "collateralFactorNumerator_",
          "type": "uint256"
        },
        {
          "internalType": "uint256",
          "name": "collateralFactorDenominator_",
          "type": "uint256"
        }
      ],
      "name": "initializeBankerJoeFoldingStrategy",
      "outputs": [],
      "stateMutability": "nonpayable",
      "type": "function"
    },
    {
      "inputs": [],
      "name": "invest",
      "outputs": [],
      "stateMutability": "nonpayable",
      "type": "function"
    },
    {
      "inputs": [],
      "name": "investedBalance",
      "outputs": [
        {
          "internalType": "uint256",
          "name": "",
          "type": "uint256"
        }
      ],
      "stateMutability": "view",
      "type": "function"
    },
    {
      "inputs": [],
      "name": "joetroller",
      "outputs": [
        {
          "internalType": "address",
          "name": "",
          "type": "address"
        }
      ],
      "stateMutability": "view",
      "type": "function"
    },
    {
      "inputs": [],
      "name": "manager",
      "outputs": [
        {
          "internalType": "address",
          "name": "",
          "type": "address"
        }
      ],
      "stateMutability": "view",
      "type": "function"
    },
    {
      "inputs": [],
      "name": "registry",
      "outputs": [
        {
          "internalType": "address",
          "name": "",
          "type": "address"
        }
      ],
      "stateMutability": "view",
      "type": "function"
    },
    {
      "inputs": [],
      "name": "reward",
      "outputs": [
        {
          "internalType": "address",
          "name": "",
          "type": "address"
        }
      ],
      "stateMutability": "view",
      "type": "function"
    },
    {
      "inputs": [],
      "name": "rewardBalance",
      "outputs": [
        {
          "internalType": "uint256",
          "name": "",
          "type": "uint256"
        }
      ],
      "stateMutability": "view",
      "type": "function"
    },
    {
      "inputs": [
        {
          "internalType": "uint256",
          "name": "borrowedUnderlying_",
          "type": "uint256"
        }
      ],
      "name": "setBorrowedUnderlying",
      "outputs": [],
      "stateMutability": "nonpayable",
      "type": "function"
    },
    {
      "inputs": [
        {
          "internalType": "address",
          "name": "registry_",
          "type": "address"
        }
      ],
      "name": "setRegistry",
      "outputs": [],
      "stateMutability": "nonpayable",
      "type": "function"
    },
    {
      "inputs": [
        {
          "internalType": "uint256",
          "name": "suppliedUnderlying_",
          "type": "uint256"
        }
      ],
      "name": "setSuppliedUnderlying",
      "outputs": [],
      "stateMutability": "nonpayable",
      "type": "function"
    },
    {
      "inputs": [],
      "name": "suppliedUnderlying",
      "outputs": [
        {
          "internalType": "uint256",
          "name": "",
          "type": "uint256"
        }
      ],
      "stateMutability": "view",
      "type": "function"
    },
    {
      "inputs": [
        {
          "internalType": "address",
          "name": "token",
          "type": "address"
        },
        {
          "internalType": "uint256",
          "name": "amount",
          "type": "uint256"
        },
        {
          "internalType": "address",
          "name": "recipient",
          "type": "address"
        }
      ],
      "name": "sweep",
      "outputs": [],
      "stateMutability": "nonpayable",
      "type": "function"
    },
    {
      "inputs": [],
      "name": "underlying",
      "outputs": [
        {
          "internalType": "address",
          "name": "",
          "type": "address"
        }
      ],
      "stateMutability": "view",
      "type": "function"
    },
    {
      "inputs": [],
      "name": "underlyingBalance",
      "outputs": [
        {
          "internalType": "uint256",
          "name": "",
          "type": "uint256"
        }
      ],
      "stateMutability": "view",
      "type": "function"
    },
    {
      "inputs": [
        {
          "internalType": "uint256",
          "name": "amount",
          "type": "uint256"
        }
      ],
      "name": "withdraw",
      "outputs": [
        {
          "internalType": "uint256",
          "name": "",
          "type": "uint256"
        }
      ],
      "stateMutability": "nonpayable",
      "type": "function"
    },
    {
      "inputs": [],
      "name": "withdrawAll",
      "outputs": [],
      "stateMutability": "nonpayable",
      "type": "function"
    },
    {
      "stateMutability": "payable",
      "type": "receive"
    }
  ],
  "transactionHash": "0x0da1687dc530b3712190a082e001deb86588c18825f945408c2dbae0470592a3",
  "args": [],
  "solcInputHash": "2f5fa08249d0094ae8d0a7c375a4db6a",
  "bytecode": "0x60806040523480156200001157600080fd5b50600054610100900460ff16806200002e57506200002e62000134565b806200003d575060005460ff16155b6200007a5760405162461bcd60e51b815260040180806020018281038252602e815260200180620026b8602e913960400191505060405180910390fd5b600054610100900460ff16158015620000a6576000805460ff1961ff0019909116610100171660011790555b6000620000b262000152565b6001600160a01b031614620000c357fe5b6000620000cf62000184565b6001600160a01b031614620000e057fe5b6000620000ec620001b1565b6001600160a01b031614620000fd57fe5b600062000109620001de565b6001600160a01b0316146200011a57fe5b80156200012d576000805461ff00191690555b5062000215565b60006200014c306200020b60201b62000c441760201c565b15905090565b60006200017f7f1b5717851286d5e98a28354be764b8c0a20eb2fbd059120090ee8bcfe1a9bf6c62000211565b905090565b60006200017f7fd2eff96e29993ca5431993c3a205e12e198965c0e1fdd87b4899b57f1e611c7462000211565b60006200017f7f0fad97fe3ec7d6c1e9191a09a0c4ccb7a831b6605392e57d2fedb8501a4dc81262000211565b60006200017f7faeb865605058f37eedb4467ee2609ddec592b0c9a6f7f7cb0db3feabe544c71c62000211565b3b151590565b5490565b61249380620002256000396000f3fe60806040526004361061016a5760003560e01c80636330533c116100d1578063919019451161008a578063b5d7a94f11610064578063b5d7a94f14610418578063c9168a591461042d578063dc2c256f14610442578063e8b5e51f1461048557610171565b806391901945146103bb578063a91ee0dc146103d0578063aa5c3ab41461040357610171565b80636330533c1461033d5780636f307dc31461035257806376cdb03b146103675780637b1039991461037c5780637bf3c4d114610391578063853828b6146103a657610171565b8063481c6a7511610123578063481c6a7514610263578063588cfb841461027857806359356c5c1461028d5780635aa6e675146102a25780635f25d3b2146102b7578063622377491461032857610171565b806313ed45ec1461017657806319776d8e146101a25780631985a89f146101c9578063228cb733146101fa57806325f2a61b1461020f5780632e1a7d4d1461023957610171565b3661017157005b600080fd5b34801561018257600080fd5b506101a06004803603602081101561019957600080fd5b503561049a565b005b3480156101ae57600080fd5b506101b76104c7565b60408051918252519081900360200190f35b3480156101d557600080fd5b506101de61056f565b604080516001600160a01b039092168252519081900360200190f35b34801561020657600080fd5b506101de61059f565b34801561021b57600080fd5b506101a06004803603602081101561023257600080fd5b50356105ca565b34801561024557600080fd5b506101b76004803603602081101561025c57600080fd5b50356105f4565b34801561026f57600080fd5b506101de610674565b34801561028457600080fd5b506101b76106b6565b34801561029957600080fd5b506101b76106e1565b3480156102ae57600080fd5b506101de6106eb565b3480156102c357600080fd5b506101a060048036036101208110156102db57600080fd5b506001600160a01b038135811691602081013582169160408201358116916060810135821691608082013581169160a08101359091169060c08101359060e081013590610100013561072d565b34801561033457600080fd5b506101b7610807565b34801561034957600080fd5b506101de610832565b34801561035e57600080fd5b506101de61085d565b34801561037357600080fd5b506101de610888565b34801561038857600080fd5b506101de6108b3565b34801561039d57600080fd5b506101b76108de565b3480156103b257600080fd5b506101a0610909565b3480156103c757600080fd5b506101b761098e565b3480156103dc57600080fd5b506101a0600480360360208110156103f357600080fd5b50356001600160a01b03166109b9565b34801561040f57600080fd5b506101b7610a9c565b34801561042457600080fd5b506101b7610ac6565b34801561043957600080fd5b506101b7610af1565b34801561044e57600080fd5b506101a06004803603606081101561046557600080fd5b506001600160a01b03813581169160208101359160409091013516610b0c565b34801561049157600080fd5b506101a0610bcf565b6104c47f24d7357e790aaef7672d5161e8993dbbae37ca571a36629afb4d93cdff80bf3682610c4a565b50565b6000806104d261056f565b6001600160a01b031614156104e95750600061056c565b6104f161056f565b6001600160a01b03166370a08231306040518263ffffffff1660e01b815260040180826001600160a01b0316815260200191505060206040518083038186803b15801561053d57600080fd5b505afa158015610551573d6000803e3d6000fd5b505050506040513d602081101561056757600080fd5b505190505b90565b600061059a7f4ff4c9b81c0bf267e01129f4817e03efc0163ee7133b87bd58118a96bbce43d3610c4e565b905090565b600061059a7faeb865605058f37eedb4467ee2609ddec592b0c9a6f7f7cb0db3feabe544c71c610c4e565b6104c47f142313439ce87f0d58e0f7d4947bc31c1124d9fab1eec74dc028983fec37c48a82610c4a565b60006105fe610888565b6001600160a01b0316336001600160a01b031614610659576040805162461bcd60e51b815260206004820152601360248201527253747261746567793a204f6e6c792042616e6b60681b604482015290519081900360640190fd5b610661610c52565b600061066d3384610c84565b9392505050565b600061067e6108b3565b6001600160a01b031663481c6a756040518163ffffffff1660e01b815260040160206040518083038186803b15801561053d57600080fd5b600061059a7f3f7ee994563fc1c4ce9783c52305490733b6dbde7985bc669d8320bf0782dda8610c4e565b60006104f161085d565b60006106f56108b3565b6001600160a01b0316635aa6e6756040518163ffffffff1660e01b815260040160206040518083038186803b15801561053d57600080fd5b600054610100900460ff16806107465750610746610d7c565b80610754575060005460ff16155b61078f5760405162461bcd60e51b815260040180806020018281038252602e81526020018061235f602e913960400191505060405180910390fd5b600054610100900460ff161580156107ba576000805460ff1961ff0019909116610100171660011790555b6107c78a8a8a8a8a610d8d565b6107d385858585610e49565b6107e96001600160a01b03881689600019610f27565b80156107fb576000805461ff00191690555b50505050505050505050565b600061059a7f89897de7bf54873cd4b26bf44ee19d24f2bf9ea7480517440d5f2213ec2770d8610c4e565b600061059a7fa8500b33177885436fffd1cad82f3d2505b0c5599689e0cc7ddc3cd69e835a0a610c4e565b600061059a7f0fad97fe3ec7d6c1e9191a09a0c4ccb7a831b6605392e57d2fedb8501a4dc812610c4e565b600061059a7fd2eff96e29993ca5431993c3a205e12e198965c0e1fdd87b4899b57f1e611c74610c4e565b600061059a7f1b5717851286d5e98a28354be764b8c0a20eb2fbd059120090ee8bcfe1a9bf6c610c4e565b600061059a7f24d7357e790aaef7672d5161e8993dbbae37ca571a36629afb4d93cdff80bf36610c4e565b610911610888565b6001600160a01b0316336001600160a01b03161461096c576040805162461bcd60e51b815260206004820152601360248201527253747261746567793a204f6e6c792042616e6b60681b604482015290519081900360640190fd5b610974610c52565b600061097e610af1565b905061098a3382610c84565b5050565b600061059a7f142313439ce87f0d58e0f7d4947bc31c1124d9fab1eec74dc028983fec37c48a610c4e565b6109c16106eb565b6001600160a01b0316336001600160a01b031614610a26576040805162461bcd60e51b815260206004820152601b60248201527f537562736372696265723a204f6e6c7920476f7665726e616e63650000000000604482015290519081900360640190fd5b610a2f8161103f565b610a376106eb565b6001600160a01b0316336001600160a01b0316146104c4576040805162461bcd60e51b815260206004820152601a60248201527f537562736372696265723a2042616420476f7665726e616e6365000000000000604482015290519081900360640190fd5b600080610aa761059f565b6001600160a01b03161415610abe5750600061056c565b6104f161059f565b600061059a7f2583c2fe9a19a2c5d372d3844edcdcb06f04785322744fde694dc2cf87b09907610c4e565b600061059a610afe6108de565b610b0661098e565b90611069565b610b146106eb565b6001600160a01b0316336001600160a01b031614610b79576040805162461bcd60e51b815260206004820152601b60248201527f537562736372696265723a204f6e6c7920476f7665726e616e63650000000000604482015290519081900360640190fd5b610b848184846110c6565b50604080518381526001600160a01b0383811660208301528251908616927f8d71d334346acd8aade4cdca3af39a37fca2620cd870d28ccf94ae4ade61c8f3928290030190a2505050565b610bd7610888565b6001600160a01b0316336001600160a01b031614610c32576040805162461bcd60e51b815260206004820152601360248201527253747261746567793a204f6e6c792042616e6b60681b604482015290519081900360640190fd5b610c3a611192565b610c426111c5565b565b3b151590565b9055565b5490565b610c6b610c66610c6061056f565b30611270565b6105ca565b610c42610c7f610c7961056f565b306112f4565b61049a565b600081610c9357506000610d76565b6000610c9d610af1565b905080610cae576000915050610d76565b600080610ccd83610cc787670de0b6b3a7640000611345565b9061139e565b90506000610ce7670de0b6b3a7640000610cc78487611345565b9050610cf16106e1565b8111610d1557610d0987610d0361085d565b886110c6565b9450610d769350505050565b83811115610d2b57610d2684611405565b610d34565b610d3481611405565b610d4087610d0361085d565b9250600a610d4c6106e1565b1115610d6757610d5a611192565b610d626111c5565b610d6f565b610d6f610c52565b5090925050505b92915050565b6000610d8730610c44565b15905090565b600054610100900460ff1680610da65750610da6610d7c565b80610db4575060005460ff16155b610def5760405162461bcd60e51b815260040180806020018281038252602e81526020018061235f602e913960400191505060405180910390fd5b600054610100900460ff16158015610e1a576000805460ff1961ff0019909116610100171660011790555b610e23866114a1565b610e2f858585856115a6565b8015610e41576000805461ff00191690555b505050505050565b600054610100900460ff1680610e625750610e62610d7c565b80610e70575060005460ff16155b610eab5760405162461bcd60e51b815260040180806020018281038252602e81526020018061235f602e913960400191505060405180910390fd5b600054610100900460ff16158015610ed6576000805460ff1961ff0019909116610100171660011790555b610edf85611657565b610ee884611681565b610ef1836116ab565b610efa826116d5565b610f0460006105ca565b610f0e600061049a565b8015610f20576000805461ff00191690555b5050505050565b801580610fad575060408051636eb1769f60e11b81523060048201526001600160a01b03848116602483015291519185169163dd62ed3e91604480820192602092909190829003018186803b158015610f7f57600080fd5b505afa158015610f93573d6000803e3d6000fd5b505050506040513d6020811015610fa957600080fd5b5051155b610fe85760405162461bcd60e51b81526004018080602001828103825260368152602001806124286036913960400191505060405180910390fd5b604080516001600160a01b038416602482015260448082018490528251808303909101815260649091019091526020810180516001600160e01b031663095ea7b360e01b17905261103a9084906116ff565b505050565b6104c47f1b5717851286d5e98a28354be764b8c0a20eb2fbd059120090ee8bcfe1a9bf6c82610c4a565b6000828211156110c0576040805162461bcd60e51b815260206004820152601e60248201527f536166654d6174683a207375627472616374696f6e206f766572666c6f770000604482015290519081900360640190fd5b50900390565b6000816110d55750600061066d565b6000836001600160a01b03166370a08231306040518263ffffffff1660e01b815260040180826001600160a01b0316815260200191505060206040518083038186803b15801561112457600080fd5b505afa158015611138573d6000803e3d6000fd5b505050506040513d602081101561114e57600080fd5b50519050828110156111755761116e6001600160a01b03851686836117b0565b905061066d565b6111896001600160a01b03851686856117b0565b50909392505050565b61119a611802565b60006111a4610a9c565b905080156104c4576104c46111b761059f565b6111bf61085d565b83611814565b60006111cf6106e1565b90508015611268576111f06111e261085d565b6111ea61056f565b836119d5565b60006111fa6106b6565b905060005b81811015611265576000611226611214610807565b610cc761121f610ac6565b8790611345565b905061123961123361056f565b82611abd565b6112416106e1565b935061125c61124e61085d565b61125661056f565b866119d5565b506001016111ff565b50505b6104c4610c52565b6000826001600160a01b0316633af9e669836040518263ffffffff1660e01b815260040180826001600160a01b03168152602001915050602060405180830381600087803b1580156112c157600080fd5b505af11580156112d5573d6000803e3d6000fd5b505050506040513d60208110156112eb57600080fd5b50519392505050565b6000826001600160a01b03166317bfdfbc836040518263ffffffff1660e01b815260040180826001600160a01b03168152602001915050602060405180830381600087803b1580156112c157600080fd5b60008261135457506000610d76565b8282028284828161136157fe5b041461066d5760405162461bcd60e51b815260040180806020018281038252602181526020018061238d6021913960400191505060405180910390fd5b60008082116113f4576040805162461bcd60e51b815260206004820152601a60248201527f536166654d6174683a206469766973696f6e206279207a65726f000000000000604482015290519081900360640190fd5b8183816113fd57fe5b049392505050565b8061141661141161056f565b611b96565b10156114535760405162461bcd60e51b81526004018080602001828103825260228152602001806124066022913960400191505060405180910390fd5b61145b611c03565b806114646106e1565b10156104c45760405162461bcd60e51b815260040180806020018281038252602e8152602001806123ae602e913960400191505060405180910390fd5b600054610100900460ff16806114ba57506114ba610d7c565b806114c8575060005460ff16155b6115035760405162461bcd60e51b815260040180806020018281038252602e81526020018061235f602e913960400191505060405180910390fd5b600054610100900460ff1615801561152e576000805460ff1961ff0019909116610100171660011790555b61153782610c44565b611588576040805162461bcd60e51b815260206004820152601c60248201527f537562736372696265723a20496e76616c696420526567697374727900000000604482015290519081900360640190fd5b6115918261103f565b801561098a576000805461ff00191690555050565b600054610100900460ff16806115bf57506115bf610d7c565b806115cd575060005460ff16155b6116085760405162461bcd60e51b815260040180806020018281038252602e81526020018061235f602e913960400191505060405180910390fd5b600054610100900460ff16158015611633576000805460ff1961ff0019909116610100171660011790555b61163c85611d01565b61164584611d2b565b61164e83611d55565b610f0e82611d7f565b6104c47fa8500b33177885436fffd1cad82f3d2505b0c5599689e0cc7ddc3cd69e835a0a82610c4a565b6104c47f3f7ee994563fc1c4ce9783c52305490733b6dbde7985bc669d8320bf0782dda882610c4a565b6104c47f2583c2fe9a19a2c5d372d3844edcdcb06f04785322744fde694dc2cf87b0990782610c4a565b6104c47f89897de7bf54873cd4b26bf44ee19d24f2bf9ea7480517440d5f2213ec2770d882610c4a565b6000611754826040518060400160405280602081526020017f5361666545524332303a206c6f772d6c6576656c2063616c6c206661696c6564815250856001600160a01b0316611da99092919063ffffffff16565b80519091501561103a5780806020019051602081101561177357600080fd5b505161103a5760405162461bcd60e51b815260040180806020018281038252602a8152602001806123dc602a913960400191505060405180910390fd5b604080516001600160a01b038416602482015260448082018490528251808303909101815260649091019091526020810180516001600160e01b031663a9059cbb60e01b17905261103a9084906116ff565b610c4261180d610832565b6000611dc0565b600061181e610674565b90506000816001600160a01b031663921c86d286866040518363ffffffff1660e01b815260040180836001600160a01b03168152602001826001600160a01b031681526020019250505060206040518083038186803b15801561188057600080fd5b505afa158015611894573d6000803e3d6000fd5b505050506040513d60208110156118aa57600080fd5b505190506118b98186856110c6565b5060408051636f70e66f60e01b81526001600160a01b0384811660048301528781166024830152868116604483015260648201869052600160848301529151600092841691636f70e66f9160a480830192602092919082900301818787803b15801561192457600080fd5b505af1158015611938573d6000803e3d6000fd5b505050506040513d602081101561194e57600080fd5b505190506001600160a01b0383166348930428611969610888565b87846040518463ffffffff1660e01b815260040180846001600160a01b03168152602001836001600160a01b031681526020018281526020019350505050600060405180830381600087803b1580156119c157600080fd5b505af11580156107fb573d6000803e3d6000fd5b806119df5761103a565b6119f36001600160a01b0384168383611e24565b6000826001600160a01b031663a0712d68836040518263ffffffff1660e01b815260040180828152602001915050602060405180830381600087803b158015611a3b57600080fd5b505af1158015611a4f573d6000803e3d6000fd5b505050506040513d6020811015611a6557600080fd5b505190508015611ab7576040805162461bcd60e51b815260206004820152601860248201527710985b9ad95c929bd94e88109bdc9c9bddc819985a5b195960421b604482015290519081900360640190fd5b50505050565b670de0b6b3a7640000811015611ad25761098a565b6000826001600160a01b031663c5ebeaec836040518263ffffffff1660e01b815260040180828152602001915050602060405180830381600087803b158015611b1a57600080fd5b505af1158015611b2e573d6000803e3d6000fd5b505050506040513d6020811015611b4457600080fd5b50519050801561103a576040805162461bcd60e51b815260206004820152601860248201527710985b9ad95c929bd94e88109bdc9c9bddc819985a5b195960421b604482015290519081900360640190fd5b6000816001600160a01b0316633b1d21a26040518163ffffffff1660e01b815260040160206040518083038186803b158015611bd157600080fd5b505afa158015611be5573d6000803e3d6000fd5b505050506040513d6020811015611bfb57600080fd5b505192915050565b6000611c1061141161056f565b90506000611c1f610c6061056f565b90506000611c2e610c7961056f565b90505b8015611cec576000611c65611c44610ac6565b610cc7611c546002610cc7610ac6565b611c5f61121f610807565b90611f0f565b90506000611c738483611069565b9050611c8f611c8061056f565b611c8a8388611f69565b611f7f565b6000611c996106e1565b9050611cbd611ca661085d565b611cae61056f565b611cb88785611f69565b612052565b611cc861141161056f565b9550611cd5610c6061056f565b9450611ce2610c7961056f565b9350505050611c31565b61103a611cf761056f565b611c8a8585611f69565b6104c47fd2eff96e29993ca5431993c3a205e12e198965c0e1fdd87b4899b57f1e611c7482610c4a565b6104c47f0fad97fe3ec7d6c1e9191a09a0c4ccb7a831b6605392e57d2fedb8501a4dc81282610c4a565b6104c47f4ff4c9b81c0bf267e01129f4817e03efc0163ee7133b87bd58118a96bbce43d382610c4a565b6104c47faeb865605058f37eedb4467ee2609ddec592b0c9a6f7f7cb0db3feabe544c71c82610c4a565b6060611db88484600085612139565b949350505050565b60408051630952c56360e01b815260ff8316600482015230602482015290516001600160a01b03841691630952c56391604480830192600092919082900301818387803b158015611e1057600080fd5b505af1158015610e41573d6000803e3d6000fd5b6000611eba82856001600160a01b031663dd62ed3e30876040518363ffffffff1660e01b815260040180836001600160a01b03168152602001826001600160a01b031681526020019250505060206040518083038186803b158015611e8857600080fd5b505afa158015611e9c573d6000803e3d6000fd5b505050506040513d6020811015611eb257600080fd5b505190611f0f565b604080516001600160a01b038616602482015260448082018490528251808303909101815260649091019091526020810180516001600160e01b031663095ea7b360e01b179052909150611ab79085906116ff565b60008282018381101561066d576040805162461bcd60e51b815260206004820152601b60248201527f536166654d6174683a206164646974696f6e206f766572666c6f770000000000604482015290519081900360640190fd5b6000818310611f78578161066d565b5090919050565b80611f895761098a565b6000826001600160a01b031663852a12e3836040518263ffffffff1660e01b815260040180828152602001915050602060405180830381600087803b158015611fd157600080fd5b505af1158015611fe5573d6000803e3d6000fd5b505050506040513d6020811015611ffb57600080fd5b50519050801561103a576040805162461bcd60e51b815260206004820152601c60248201527f42616e6b65724a6f653a2052656465656d20756e6465726c79696e6700000000604482015290519081900360640190fd5b8061205c5761103a565b6120706001600160a01b0384168383611e24565b6000826001600160a01b0316630e752702836040518263ffffffff1660e01b815260040180828152602001915050602060405180830381600087803b1580156120b857600080fd5b505af11580156120cc573d6000803e3d6000fd5b505050506040513d60208110156120e257600080fd5b505190508015611ab7576040805162461bcd60e51b815260206004820152601760248201527f42616e6b65724a6f653a205265706179206661696c6564000000000000000000604482015290519081900360640190fd5b60608247101561217a5760405162461bcd60e51b81526004018080602001828103825260268152602001806123396026913960400191505060405180910390fd5b61218385610c44565b6121d4576040805162461bcd60e51b815260206004820152601d60248201527f416464726573733a2063616c6c20746f206e6f6e2d636f6e7472616374000000604482015290519081900360640190fd5b600080866001600160a01b031685876040518082805190602001908083835b602083106122125780518252601f1990920191602091820191016121f3565b6001836020036101000a03801982511681845116808217855250505050505090500191505060006040518083038185875af1925050503d8060008114612274576040519150601f19603f3d011682016040523d82523d6000602084013e612279565b606091505b5091509150612289828286612294565b979650505050505050565b606083156122a357508161066d565b8251156122b35782518084602001fd5b8160405162461bcd60e51b81526004018080602001828103825283818151815260200191508051906020019080838360005b838110156122fd5781810151838201526020016122e5565b50505050905090810190601f16801561232a5780820380516001836020036101000a031916815260200191505b509250505060405180910390fdfe416464726573733a20696e73756666696369656e742062616c616e636520666f722063616c6c496e697469616c697a61626c653a20636f6e747261637420697320616c726561647920696e697469616c697a6564536166654d6174683a206d756c7469706c69636174696f6e206f766572666c6f77556e61626c6520746f2077697468647261772074686520656e7469726520616d6f756e74556e6465726c79696e675361666545524332303a204552433230206f7065726174696f6e20646964206e6f7420737563636565646d61726b657420636173682063616e6e6f7420636f766572206c69717569646974795361666545524332303a20617070726f76652066726f6d206e6f6e2d7a65726f20746f206e6f6e2d7a65726f20616c6c6f77616e6365a2646970667358221220d181228ff482deb11826d6b8d4be2a2acab2e6be91861e2cc07766a82edb76c964736f6c63430007060033496e697469616c697a61626c653a20636f6e747261637420697320616c726561647920696e697469616c697a6564",
  "devdoc": {
    "details": "https://docs.traderjoexyz.com/",
    "kind": "dev",
    "methods": {
      "derivativeBalance()": {
        "details": "Balance of derivative tokens received from Strategy, if applicable",
        "returns": {
          "_0": "The balance of derivative tokens"
        }
      },
      "governance()": {
        "returns": {
          "_0": "The current Governance address"
        }
      },
      "initializeBankerJoeFoldingStrategy(address,address,address,address,address,address,uint256,uint256,uint256)": {
        "details": "The function should be called at time of deployment",
        "params": {
          "bank_": "the bank associated with the strategy",
          "derivative_": "the JToken address received from BankerJoe",
          "joetroller_": "the BankerJoe rewards contract",
          "registry_": "the registry contract",
          "reward_": "the address of the reward token JOE",
          "underlying_": "the underlying token that is deposited"
        }
      },
      "investedBalance()": {
        "details": "Get the exchange rate (which is scaled up by 1e18) and multiply by amount of JTokens",
        "returns": {
          "_0": "The amount of underlying the strategy has invested"
        }
      },
      "manager()": {
        "returns": {
          "_0": "The current Manager address"
        }
      },
      "registry()": {
        "returns": {
          "_0": "The current Registry address"
        }
      },
      "rewardBalance()": {
        "details": "Balance of reward tokens awaiting liquidation, if applicable"
      },
      "setRegistry(address)": {
        "details": "Requires sender to be Governance of the new Registry to avoid bricking.Ideally should not be used",
        "params": {
          "registry_": "The new registry"
        }
      },
      "sweep(address,uint256,address)": {
        "params": {
          "amount": "The amount of tokens to sweep",
          "recipient": "The address to send the sweeped tokens to",
          "token": "The address of the token to sweep"
        }
      },
      "underlyingBalance()": {
        "details": "Balance of underlying awaiting Strategy investment"
      }
    },
    "title": "Oh! Finance Banker Joe Strategy",
    "version": 1
  },
  "userdoc": {
    "kind": "user",
    "methods": {
      "bank()": {
        "notice": "The Bank that the Strategy is associated with"
      },
      "constructor": {
        "notice": "Initialize the BankerJoe Strategy Logic"
      },
      "derivative()": {
        "notice": "The derivative token received from AaveV2 (aToken)"
      },
      "governance()": {
        "notice": "Get the Governance address"
      },
      "initializeBankerJoeFoldingStrategy(address,address,address,address,address,address,uint256,uint256,uint256)": {
        "notice": "Initializes the BankerJoe Folding Strategy Proxy"
      },
      "investedBalance()": {
        "notice": "Get the balance of underlying invested by the Strategy"
      },
      "manager()": {
        "notice": "Get the Manager address"
      },
      "registry()": {
        "notice": "Get the Registry address"
      },
      "reward()": {
        "notice": "The reward token received from AaveV2 (stkAave)"
      },
      "setRegistry(address)": {
        "notice": "Set the Registry for the contract. Only callable by Governance."
      },
      "sweep(address,uint256,address)": {
        "notice": "Governance function to sweep any stuck / airdrop tokens to a given recipient"
      },
      "underlying()": {
        "notice": "The underlying token the Strategy invests in AaveV2"
      }
    },
    "notice": "Standard, unleveraged strategy. Invest underlying tokens into derivative JTokens",
    "version": 1
  },
  "storageLayout": {
    "storage": [
      {
        "astId": 3184,
        "contract": "contracts/strategies/bankerjoe/OhAvalancheBankerJoeFoldingStrategy.sol:OhAvalancheBankerJoeFoldingStrategy",
        "label": "_initialized",
        "offset": 0,
        "slot": "0",
        "type": "t_bool"
      },
      {
        "astId": 3187,
        "contract": "contracts/strategies/bankerjoe/OhAvalancheBankerJoeFoldingStrategy.sol:OhAvalancheBankerJoeFoldingStrategy",
        "label": "_initializing",
        "offset": 1,
        "slot": "0",
        "type": "t_bool"
      }
    ],
    "types": {
      "t_bool": {
        "encoding": "inplace",
        "label": "bool",
        "numberOfBytes": "1"
      }
    }
  }
}