{
  "address": "0x5038F968B974Ec5f65E98B7a6cAc616520Cb9C60",
  "abi": [
    {
      "inputs": [],
      "stateMutability": "nonpayable",
      "type": "constructor"
    },
    {
      "anonymous": false,
      "inputs": [
        {
          "indexed": true,
          "internalType": "address",
          "name": "router",
          "type": "address"
        },
        {
          "indexed": true,
          "internalType": "address",
          "name": "token",
          "type": "address"
        },
        {
          "indexed": false,
          "internalType": "uint256",
          "name": "amount",
          "type": "uint256"
        }
      ],
      "name": "Liquidate",
      "type": "event"
    },
    {
      "anonymous": false,
      "inputs": [
        {
          "indexed": true,
          "internalType": "address",
          "name": "token",
          "type": "address"
        },
        {
          "indexed": false,
          "internalType": "uint256",
          "name": "amount",
          "type": "uint256"
        },
        {
          "indexed": false,
          "internalType": "address",
          "name": "recipient",
          "type": "address"
        }
      ],
      "name": "Sweep",
      "type": "event"
    },
    {
      "inputs": [],
      "name": "bank",
      "outputs": [
        {
          "internalType": "address",
          "name": "",
          "type": "address"
        }
      ],
      "stateMutability": "view",
      "type": "function"
    },
    {
      "inputs": [],
      "name": "derivative",
      "outputs": [
        {
          "internalType": "address",
          "name": "",
          "type": "address"
        }
      ],
      "stateMutability": "view",
      "type": "function"
    },
    {
      "inputs": [],
      "name": "derivativeBalance",
      "outputs": [
        {
          "internalType": "uint256",
          "name": "",
          "type": "uint256"
        }
      ],
      "stateMutability": "view",
      "type": "function"
    },
    {
      "inputs": [],
      "name": "governance",
      "outputs": [
        {
          "internalType": "address",
          "name": "",
          "type": "address"
        }
      ],
      "stateMutability": "view",
      "type": "function"
    },
    {
      "inputs": [],
      "name": "incentivesController",
      "outputs": [
        {
          "internalType": "address",
          "name": "",
          "type": "address"
        }
      ],
      "stateMutability": "view",
      "type": "function"
    },
    {
      "inputs": [
        {
          "internalType": "address",
          "name": "registry_",
          "type": "address"
        },
        {
          "internalType": "address",
          "name": "bank_",
          "type": "address"
        },
        {
          "internalType": "address",
          "name": "underlying_",
          "type": "address"
        },
        {
          "internalType": "address",
          "name": "derivative_",
          "type": "address"
        },
        {
          "internalType": "address",
          "name": "reward_",
          "type": "address"
        },
        {
          "internalType": "address",
          "name": "lendingPool_",
          "type": "address"
        },
        {
          "internalType": "address",
          "name": "incentivesController_",
          "type": "address"
        }
      ],
      "name": "initializeAaveV2Strategy",
      "outputs": [],
      "stateMutability": "nonpayable",
      "type": "function"
    },
    {
      "inputs": [],
      "name": "invest",
      "outputs": [],
      "stateMutability": "nonpayable",
      "type": "function"
    },
    {
      "inputs": [],
      "name": "investedBalance",
      "outputs": [
        {
          "internalType": "uint256",
          "name": "",
          "type": "uint256"
        }
      ],
      "stateMutability": "view",
      "type": "function"
    },
    {
      "inputs": [],
      "name": "lendingPool",
      "outputs": [
        {
          "internalType": "address",
          "name": "",
          "type": "address"
        }
      ],
      "stateMutability": "view",
      "type": "function"
    },
    {
      "inputs": [],
      "name": "manager",
      "outputs": [
        {
          "internalType": "address",
          "name": "",
          "type": "address"
        }
      ],
      "stateMutability": "view",
      "type": "function"
    },
    {
      "inputs": [],
      "name": "registry",
      "outputs": [
        {
          "internalType": "address",
          "name": "",
          "type": "address"
        }
      ],
      "stateMutability": "view",
      "type": "function"
    },
    {
      "inputs": [],
      "name": "reward",
      "outputs": [
        {
          "internalType": "address",
          "name": "",
          "type": "address"
        }
      ],
      "stateMutability": "view",
      "type": "function"
    },
    {
      "inputs": [],
      "name": "rewardBalance",
      "outputs": [
        {
          "internalType": "uint256",
          "name": "",
          "type": "uint256"
        }
      ],
      "stateMutability": "view",
      "type": "function"
    },
    {
      "inputs": [
        {
          "internalType": "address",
          "name": "registry_",
          "type": "address"
        }
      ],
      "name": "setRegistry",
      "outputs": [],
      "stateMutability": "nonpayable",
      "type": "function"
    },
    {
      "inputs": [
        {
          "internalType": "address",
          "name": "token",
          "type": "address"
        },
        {
          "internalType": "uint256",
          "name": "amount",
          "type": "uint256"
        },
        {
          "internalType": "address",
          "name": "recipient",
          "type": "address"
        }
      ],
      "name": "sweep",
      "outputs": [],
      "stateMutability": "nonpayable",
      "type": "function"
    },
    {
      "inputs": [],
      "name": "underlying",
      "outputs": [
        {
          "internalType": "address",
          "name": "",
          "type": "address"
        }
      ],
      "stateMutability": "view",
      "type": "function"
    },
    {
      "inputs": [],
      "name": "underlyingBalance",
      "outputs": [
        {
          "internalType": "uint256",
          "name": "",
          "type": "uint256"
        }
      ],
      "stateMutability": "view",
      "type": "function"
    },
    {
      "inputs": [
        {
          "internalType": "uint256",
          "name": "amount",
          "type": "uint256"
        }
      ],
      "name": "withdraw",
      "outputs": [
        {
          "internalType": "uint256",
          "name": "",
          "type": "uint256"
        }
      ],
      "stateMutability": "nonpayable",
      "type": "function"
    },
    {
      "inputs": [],
      "name": "withdrawAll",
      "outputs": [],
      "stateMutability": "nonpayable",
      "type": "function"
    }
  ],
  "transactionHash": "0x215e716ac884b61963b503dcb8e145552aa10b637621a8b70185d86725d35ca9",
  "args": [],
  "solcInputHash": "bda25618f447c2b914f654c498263762",
  "bytecode": "0x60806040523480156200001157600080fd5b50600054610100900460ff16806200002e57506200002e62000134565b806200003d575060005460ff16155b6200007a5760405162461bcd60e51b815260040180806020018281038252602e81526020018062001c28602e913960400191505060405180910390fd5b600054610100900460ff16158015620000a6576000805460ff1961ff0019909116610100171660011790555b6000620000b262000152565b6001600160a01b031614620000c357fe5b6000620000cf62000184565b6001600160a01b031614620000e057fe5b6000620000ec620001b1565b6001600160a01b031614620000fd57fe5b600062000109620001de565b6001600160a01b0316146200011a57fe5b80156200012d576000805461ff00191690555b5062000215565b60006200014c306200020b60201b6200090e1760201c565b15905090565b60006200017f7f1b5717851286d5e98a28354be764b8c0a20eb2fbd059120090ee8bcfe1a9bf6c62000211565b905090565b60006200017f7fd2eff96e29993ca5431993c3a205e12e198965c0e1fdd87b4899b57f1e611c7462000211565b60006200017f7f0fad97fe3ec7d6c1e9191a09a0c4ccb7a831b6605392e57d2fedb8501a4dc81262000211565b60006200017f7faeb865605058f37eedb4467ee2609ddec592b0c9a6f7f7cb0db3feabe544c71c62000211565b3b151590565b5490565b611a0380620002256000396000f3fe608060405234801561001057600080fd5b50600436106101215760003560e01c80637b103999116100ad578063aa8bb02111610071578063aa8bb021146101f9578063af1df25514610251578063c9168a5914610259578063dc2c256f14610261578063e8b5e51f1461029757610121565b80637b103999146101b1578063853828b6146101b9578063a59a9973146101c3578063a91ee0dc146101cb578063aa5c3ab4146101f157610121565b8063481c6a75116100f4578063481c6a751461018957806359356c5c146101915780635aa6e675146101995780636f307dc3146101a157806376cdb03b146101a957610121565b806319776d8e146101265780631985a89f14610140578063228cb733146101645780632e1a7d4d1461016c575b600080fd5b61012e61029f565b60408051918252519081900360200190f35b610148610347565b604080516001600160a01b039092168252519081900360200190f35b610148610377565b61012e6004803603602081101561018257600080fd5b50356103a2565b61014861041a565b61012e61045c565b610148610466565b6101486104a8565b6101486104d3565b6101486104fe565b6101c1610529565b005b6101486105a6565b6101c1600480360360208110156101e157600080fd5b50356001600160a01b03166105d1565b61012e6106b7565b6101c1600480360360e081101561020f57600080fd5b506001600160a01b038135811691602081013582169160408201358116916060810135821691608082013581169160a081013582169160c090910135166106e1565b6101486107a1565b61012e6107cc565b6101c16004803603606081101561027757600080fd5b506001600160a01b038135811691602081013591604090910135166107d6565b6101c1610899565b6000806102aa610347565b6001600160a01b031614156102c157506000610344565b6102c9610347565b6001600160a01b03166370a08231306040518263ffffffff1660e01b815260040180826001600160a01b0316815260200191505060206040518083038186803b15801561031557600080fd5b505afa158015610329573d6000803e3d6000fd5b505050506040513d602081101561033f57600080fd5b505190505b90565b60006103727f4ff4c9b81c0bf267e01129f4817e03efc0163ee7133b87bd58118a96bbce43d3610914565b905090565b60006103727faeb865605058f37eedb4467ee2609ddec592b0c9a6f7f7cb0db3feabe544c71c610914565b60006103ac6104d3565b6001600160a01b0316336001600160a01b031614610407576040805162461bcd60e51b815260206004820152601360248201527253747261746567793a204f6e6c792042616e6b60681b604482015290519081900360640190fd5b60006104133384610918565b9392505050565b60006104246104fe565b6001600160a01b031663481c6a756040518163ffffffff1660e01b815260040160206040518083038186803b15801561031557600080fd5b60006102c96104a8565b60006104706104fe565b6001600160a01b0316635aa6e6756040518163ffffffff1660e01b815260040160206040518083038186803b15801561031557600080fd5b60006103727f0fad97fe3ec7d6c1e9191a09a0c4ccb7a831b6605392e57d2fedb8501a4dc812610914565b60006103727fd2eff96e29993ca5431993c3a205e12e198965c0e1fdd87b4899b57f1e611c74610914565b60006103727f1b5717851286d5e98a28354be764b8c0a20eb2fbd059120090ee8bcfe1a9bf6c610914565b6105316104d3565b6001600160a01b0316336001600160a01b03161461058c576040805162461bcd60e51b815260206004820152601360248201527253747261746567793a204f6e6c792042616e6b60681b604482015290519081900360640190fd5b600061059661029f565b90506105a23382610918565b5050565b60006103727f32da969ce0980814ec712773a44ab0fbc7a926f6c25ab5c3ab143cbaf257713b610914565b6105d9610466565b6001600160a01b0316336001600160a01b03161461063e576040805162461bcd60e51b815260206004820152601b60248201527f537562736372696265723a204f6e6c7920476f7665726e616e63650000000000604482015290519081900360640190fd5b61064781610963565b61064f610466565b6001600160a01b0316336001600160a01b0316146106b4576040805162461bcd60e51b815260206004820152601a60248201527f537562736372696265723a2042616420476f7665726e616e6365000000000000604482015290519081900360640190fd5b50565b6000806106c2610377565b6001600160a01b031614156106d957506000610344565b6102c9610377565b600054610100900460ff16806106fa57506106fa61098d565b80610708575060005460ff16155b6107435760405162461bcd60e51b815260040180806020018281038252602e815260200180611976602e913960400191505060405180910390fd5b600054610100900460ff1615801561076e576000805460ff1961ff0019909116610100171660011790555b61077b888888888861099e565b6107858383610a5a565b8015610797576000805461ff00191690555b5050505050505050565b60006103727f8354a0ba382ef5f265c75cfb638fc27db941b9db0fd5dc17719a651d5d4cda15610914565b600061037261029f565b6107de610466565b6001600160a01b0316336001600160a01b031614610843576040805162461bcd60e51b815260206004820152601b60248201527f537562736372696265723a204f6e6c7920476f7665726e616e63650000000000604482015290519081900360640190fd5b61084e818484610b10565b50604080518381526001600160a01b0383811660208301528251908616927f8d71d334346acd8aade4cdca3af39a37fca2620cd870d28ccf94ae4ade61c8f3928290030190a2505050565b6108a16104d3565b6001600160a01b0316336001600160a01b0316146108fc576040805162461bcd60e51b815260206004820152601360248201527253747261746567793a204f6e6c792042616e6b60681b604482015290519081900360640190fd5b610904610bdc565b61090c610c1f565b565b3b151590565b5490565b6000816109275750600061095d565b60006109426109346105a6565b61093c6104a8565b85610c4a565b90506000610958856109526104a8565b84610b10565b925050505b92915050565b6106b47f1b5717851286d5e98a28354be764b8c0a20eb2fbd059120090ee8bcfe1a9bf6c82610dd8565b60006109983061090e565b15905090565b600054610100900460ff16806109b757506109b761098d565b806109c5575060005460ff16155b610a005760405162461bcd60e51b815260040180806020018281038252602e815260200180611976602e913960400191505060405180910390fd5b600054610100900460ff16158015610a2b576000805460ff1961ff0019909116610100171660011790555b610a3486610ddc565b610a4085858585610ee1565b8015610a52576000805461ff00191690555b505050505050565b600054610100900460ff1680610a735750610a7361098d565b80610a81575060005460ff16155b610abc5760405162461bcd60e51b815260040180806020018281038252602e815260200180611976602e913960400191505060405180910390fd5b600054610100900460ff16158015610ae7576000805460ff1961ff0019909116610100171660011790555b610af083610fab565b610af982610fd5565b8015610b0b576000805461ff00191690555b505050565b600081610b1f57506000610413565b6000836001600160a01b03166370a08231306040518263ffffffff1660e01b815260040180826001600160a01b0316815260200191505060206040518083038186803b158015610b6e57600080fd5b505afa158015610b82573d6000803e3d6000fd5b505050506040513d6020811015610b9857600080fd5b5051905082811015610bbf57610bb86001600160a01b0385168683610fff565b9050610413565b610bd36001600160a01b0385168685610fff565b50909392505050565b610bf4610be76107a1565b610bef610347565b611051565b6000610bfe6106b7565b905080156106b4576106b4610c11610377565b610c196104a8565b83611237565b6000610c2961045c565b905080156106b4576106b4610c3c6105a6565b610c446104a8565b83611404565b600081610c5957506000610413565b6000836001600160a01b03166370a08231306040518263ffffffff1660e01b815260040180826001600160a01b0316815260200191505060206040518083038186803b158015610ca857600080fd5b505afa158015610cbc573d6000803e3d6000fd5b505050506040513d6020811015610cd257600080fd5b50519050610cea6001600160a01b038516868561149b565b60408051631a4ca37b60e21b81526001600160a01b0386811660048301526024820186905230604483015291516000928816916369328dec91606480830192602092919082900301818787803b158015610d4357600080fd5b505af1158015610d57573d6000803e3d6000fd5b505050506040513d6020811015610d6d57600080fd5b5051905083811480610d7e57508181145b610dcf576040805162461bcd60e51b815260206004820152601760248201527f4161766556323a205769746864726177206661696c6564000000000000000000604482015290519081900360640190fd5b95945050505050565b9055565b600054610100900460ff1680610df55750610df561098d565b80610e03575060005460ff16155b610e3e5760405162461bcd60e51b815260040180806020018281038252602e815260200180611976602e913960400191505060405180910390fd5b600054610100900460ff16158015610e69576000805460ff1961ff0019909116610100171660011790555b610e728261090e565b610ec3576040805162461bcd60e51b815260206004820152601c60248201527f537562736372696265723a20496e76616c696420526567697374727900000000604482015290519081900360640190fd5b610ecc82610963565b80156105a2576000805461ff00191690555050565b600054610100900460ff1680610efa5750610efa61098d565b80610f08575060005460ff16155b610f435760405162461bcd60e51b815260040180806020018281038252602e815260200180611976602e913960400191505060405180910390fd5b600054610100900460ff16158015610f6e576000805460ff1961ff0019909116610100171660011790555b610f7785611586565b610f80846115b0565b610f89836115da565b610f9282611604565b8015610fa4576000805461ff00191690555b5050505050565b6106b47f32da969ce0980814ec712773a44ab0fbc7a926f6c25ab5c3ab143cbaf257713b82610dd8565b6106b47f8354a0ba382ef5f265c75cfb638fc27db941b9db0fd5dc17719a651d5d4cda1582610dd8565b604080516001600160a01b038416602482015260448082018490528251808303909101815260649091019091526020810180516001600160e01b031663a9059cbb60e01b179052610b0b90849061162e565b60408051600180825281830190925260009160208083019080368337019050509050818160008151811061108157fe5b60200260200101906001600160a01b031690816001600160a01b0316815250506000836001600160a01b0316638b599f2683306040518363ffffffff1660e01b81526004018080602001836001600160a01b03168152602001828103825284818151815260200191508051906020019060200280838360005b838110156111125781810151838201526020016110fa565b50505050905001935050505060206040518083038186803b15801561113657600080fd5b505afa15801561114a573d6000803e3d6000fd5b505050506040513d602081101561116057600080fd5b50519050801561123157836001600160a01b0316633111e7b38383306040518463ffffffff1660e01b81526004018080602001848152602001836001600160a01b03168152602001828103825285818151815260200191508051906020019060200280838360005b838110156111e05781810151838201526020016111c8565b50505050905001945050505050602060405180830381600087803b15801561120757600080fd5b505af115801561121b573d6000803e3d6000fd5b505050506040513d6020811015610a5257600080fd5b50505050565b600061124161041a565b90506000816001600160a01b031663921c86d286866040518363ffffffff1660e01b815260040180836001600160a01b03168152602001826001600160a01b031681526020019250505060206040518083038186803b1580156112a357600080fd5b505afa1580156112b7573d6000803e3d6000fd5b505050506040513d60208110156112cd57600080fd5b505190506112dc818685610b10565b5060408051636f70e66f60e01b81526001600160a01b0384811660048301528781166024830152868116604483015260648201869052600160848301529151600092841691636f70e66f9160a480830192602092919082900301818787803b15801561134757600080fd5b505af115801561135b573d6000803e3d6000fd5b505050506040513d602081101561137157600080fd5b505190506001600160a01b038316634893042861138c6104d3565b87846040518463ffffffff1660e01b815260040180846001600160a01b03168152602001836001600160a01b031681526020018281526020019350505050600060405180830381600087803b1580156113e457600080fd5b505af11580156113f8573d6000803e3d6000fd5b50505050505050505050565b8061140e57610b0b565b6114226001600160a01b038316848361149b565b6040805163e8eda9df60e01b81526001600160a01b0384811660048301526024820184905230604483015260006064830181905292519086169263e8eda9df926084808201939182900301818387803b15801561147e57600080fd5b505af1158015611492573d6000803e3d6000fd5b50505050505050565b600061153182856001600160a01b031663dd62ed3e30876040518363ffffffff1660e01b815260040180836001600160a01b03168152602001826001600160a01b031681526020019250505060206040518083038186803b1580156114ff57600080fd5b505afa158015611513573d6000803e3d6000fd5b505050506040513d602081101561152957600080fd5b5051906116df565b604080516001600160a01b038616602482015260448082018490528251808303909101815260649091019091526020810180516001600160e01b031663095ea7b360e01b17905290915061123190859061162e565b6106b47fd2eff96e29993ca5431993c3a205e12e198965c0e1fdd87b4899b57f1e611c7482610dd8565b6106b47f0fad97fe3ec7d6c1e9191a09a0c4ccb7a831b6605392e57d2fedb8501a4dc81282610dd8565b6106b47f4ff4c9b81c0bf267e01129f4817e03efc0163ee7133b87bd58118a96bbce43d382610dd8565b6106b47faeb865605058f37eedb4467ee2609ddec592b0c9a6f7f7cb0db3feabe544c71c82610dd8565b6000611683826040518060400160405280602081526020017f5361666545524332303a206c6f772d6c6576656c2063616c6c206661696c6564815250856001600160a01b03166117399092919063ffffffff16565b805190915015610b0b578080602001905160208110156116a257600080fd5b5051610b0b5760405162461bcd60e51b815260040180806020018281038252602a8152602001806119a4602a913960400191505060405180910390fd5b600082820183811015610413576040805162461bcd60e51b815260206004820152601b60248201527f536166654d6174683a206164646974696f6e206f766572666c6f770000000000604482015290519081900360640190fd5b60606117488484600085611750565b949350505050565b6060824710156117915760405162461bcd60e51b81526004018080602001828103825260268152602001806119506026913960400191505060405180910390fd5b61179a8561090e565b6117eb576040805162461bcd60e51b815260206004820152601d60248201527f416464726573733a2063616c6c20746f206e6f6e2d636f6e7472616374000000604482015290519081900360640190fd5b600080866001600160a01b031685876040518082805190602001908083835b602083106118295780518252601f19909201916020918201910161180a565b6001836020036101000a03801982511681845116808217855250505050505090500191505060006040518083038185875af1925050503d806000811461188b576040519150601f19603f3d011682016040523d82523d6000602084013e611890565b606091505b50915091506118a08282866118ab565b979650505050505050565b606083156118ba575081610413565b8251156118ca5782518084602001fd5b8160405162461bcd60e51b81526004018080602001828103825283818151815260200191508051906020019080838360005b838110156119145781810151838201526020016118fc565b50505050905090810190601f1680156119415780820380516001836020036101000a031916815260200191505b509250505060405180910390fdfe416464726573733a20696e73756666696369656e742062616c616e636520666f722063616c6c496e697469616c697a61626c653a20636f6e747261637420697320616c726561647920696e697469616c697a65645361666545524332303a204552433230206f7065726174696f6e20646964206e6f742073756363656564a2646970667358221220477e14c544d566639a5bb197bd9f770a451279652cd6f59310a01baac9eae3b964736f6c63430007060033496e697469616c697a61626c653a20636f6e747261637420697320616c726561647920696e697469616c697a6564",
  "devdoc": {
    "details": "Underlying: USDC, USDT, etc.Derivative: aToken, 1:1 ratio with underlyinghttps://docs.aave.com/developers/the-core-protocol/atokens",
    "kind": "dev",
    "methods": {
      "derivativeBalance()": {
        "details": "Balance of derivative tokens received from Strategy, if applicable",
        "returns": {
          "_0": "The balance of derivative tokens"
        }
      },
      "governance()": {
        "returns": {
          "_0": "The current Governance address"
        }
      },
      "initializeAaveV2Strategy(address,address,address,address,address,address,address)": {
        "details": "The function should be called at time of deployment",
        "params": {
          "bank_": "the bank associated with the strategy",
          "derivative_": "the aToken address received from Aave",
          "incentivesController_": "the AaveV2 rewards contract",
          "lendingPool_": "the AaveV2 lending pool that we lend to",
          "registry_": "the registry contract",
          "reward_": "the address of the reward token wAVAX",
          "underlying_": "the underlying token that is deposited"
        }
      },
      "invest()": {
        "details": "Compound by claiming stkAAVE, then unwrapping + liquidating if cooldown permitsDeposit all underlying to receive aTokens"
      },
      "investedBalance()": {
        "details": "aTokens are 1:1 with underlying, they are continuously distributed to users"
      },
      "manager()": {
        "returns": {
          "_0": "The current Manager address"
        }
      },
      "registry()": {
        "returns": {
          "_0": "The current Registry address"
        }
      },
      "rewardBalance()": {
        "details": "Balance of reward tokens awaiting liquidation, if applicable"
      },
      "setRegistry(address)": {
        "details": "Requires sender to be Governance of the new Registry to avoid bricking.Ideally should not be used",
        "params": {
          "registry_": "The new registry"
        }
      },
      "sweep(address,uint256,address)": {
        "params": {
          "amount": "The amount of tokens to sweep",
          "recipient": "The address to send the sweeped tokens to",
          "token": "The address of the token to sweep"
        }
      },
      "underlyingBalance()": {
        "details": "Balance of underlying awaiting Strategy investment"
      }
    },
    "title": "Oh! Finance Aave V2 Strategy",
    "version": 1
  },
  "userdoc": {
    "kind": "user",
    "methods": {
      "bank()": {
        "notice": "The Bank that the Strategy is associated with"
      },
      "constructor": {
        "notice": "Initialize the AaveV2 Strategy Logic"
      },
      "derivative()": {
        "notice": "The derivative token received from AaveV2 (aToken)"
      },
      "governance()": {
        "notice": "Get the Governance address"
      },
      "initializeAaveV2Strategy(address,address,address,address,address,address,address)": {
        "notice": "Initialize the AaveV2 Strategy Proxy"
      },
      "invest()": {
        "notice": "Invest in the AaveV2 Strategy"
      },
      "investedBalance()": {
        "notice": "Balance of underlying invested in AaveV2"
      },
      "manager()": {
        "notice": "Get the Manager address"
      },
      "registry()": {
        "notice": "Get the Registry address"
      },
      "reward()": {
        "notice": "The reward token received from AaveV2 (stkAave)"
      },
      "setRegistry(address)": {
        "notice": "Set the Registry for the contract. Only callable by Governance."
      },
      "sweep(address,uint256,address)": {
        "notice": "Governance function to sweep any stuck / airdrop tokens to a given recipient"
      },
      "underlying()": {
        "notice": "The underlying token the Strategy invests in AaveV2"
      }
    },
    "notice": "Standard strategy using Aave V2 Protocol",
    "version": 1
  },
  "storageLayout": {
    "storage": [
      {
        "astId": 3184,
        "contract": "contracts/strategies/aave/OhAvalancheAaveV2Strategy.sol:OhAvalancheAaveV2Strategy",
        "label": "_initialized",
        "offset": 0,
        "slot": "0",
        "type": "t_bool"
      },
      {
        "astId": 3187,
        "contract": "contracts/strategies/aave/OhAvalancheAaveV2Strategy.sol:OhAvalancheAaveV2Strategy",
        "label": "_initializing",
        "offset": 1,
        "slot": "0",
        "type": "t_bool"
      }
    ],
    "types": {
      "t_bool": {
        "encoding": "inplace",
        "label": "bool",
        "numberOfBytes": "1"
      }
    }
  }
}