{
  "address": "0x984E418C5d05c97F75156957405598CdE0475775",
  "abi": [
    {
      "inputs": [],
      "stateMutability": "nonpayable",
      "type": "constructor"
    },
    {
      "anonymous": false,
      "inputs": [
        {
          "indexed": true,
          "internalType": "address",
          "name": "router",
          "type": "address"
        },
        {
          "indexed": true,
          "internalType": "address",
          "name": "token",
          "type": "address"
        },
        {
          "indexed": false,
          "internalType": "uint256",
          "name": "amount",
          "type": "uint256"
        }
      ],
      "name": "Liquidate",
      "type": "event"
    },
    {
      "anonymous": false,
      "inputs": [
        {
          "indexed": true,
          "internalType": "address",
          "name": "token",
          "type": "address"
        },
        {
          "indexed": false,
          "internalType": "uint256",
          "name": "amount",
          "type": "uint256"
        },
        {
          "indexed": false,
          "internalType": "address",
          "name": "recipient",
          "type": "address"
        }
      ],
      "name": "Sweep",
      "type": "event"
    },
    {
      "inputs": [],
      "name": "bank",
      "outputs": [
        {
          "internalType": "address",
          "name": "",
          "type": "address"
        }
      ],
      "stateMutability": "view",
      "type": "function"
    },
    {
      "inputs": [],
      "name": "comptroller",
      "outputs": [
        {
          "internalType": "address",
          "name": "",
          "type": "address"
        }
      ],
      "stateMutability": "view",
      "type": "function"
    },
    {
      "inputs": [],
      "name": "derivative",
      "outputs": [
        {
          "internalType": "address",
          "name": "",
          "type": "address"
        }
      ],
      "stateMutability": "view",
      "type": "function"
    },
    {
      "inputs": [],
      "name": "derivativeBalance",
      "outputs": [
        {
          "internalType": "uint256",
          "name": "",
          "type": "uint256"
        }
      ],
      "stateMutability": "view",
      "type": "function"
    },
    {
      "inputs": [],
      "name": "extraReward",
      "outputs": [
        {
          "internalType": "address",
          "name": "",
          "type": "address"
        }
      ],
      "stateMutability": "view",
      "type": "function"
    },
    {
      "inputs": [],
      "name": "extraRewardBalance",
      "outputs": [
        {
          "internalType": "uint256",
          "name": "",
          "type": "uint256"
        }
      ],
      "stateMutability": "view",
      "type": "function"
    },
    {
      "inputs": [],
      "name": "governance",
      "outputs": [
        {
          "internalType": "address",
          "name": "",
          "type": "address"
        }
      ],
      "stateMutability": "view",
      "type": "function"
    },
    {
      "inputs": [
        {
          "internalType": "address",
          "name": "registry_",
          "type": "address"
        },
        {
          "internalType": "address",
          "name": "bank_",
          "type": "address"
        },
        {
          "internalType": "address",
          "name": "underlying_",
          "type": "address"
        },
        {
          "internalType": "address",
          "name": "derivative_",
          "type": "address"
        },
        {
          "internalType": "address",
          "name": "reward_",
          "type": "address"
        },
        {
          "internalType": "address",
          "name": "extraReward_",
          "type": "address"
        },
        {
          "internalType": "address",
          "name": "comptroller_",
          "type": "address"
        }
      ],
      "name": "initializeBenqiStrategy",
      "outputs": [],
      "stateMutability": "nonpayable",
      "type": "function"
    },
    {
      "inputs": [],
      "name": "invest",
      "outputs": [],
      "stateMutability": "nonpayable",
      "type": "function"
    },
    {
      "inputs": [],
      "name": "investedBalance",
      "outputs": [
        {
          "internalType": "uint256",
          "name": "",
          "type": "uint256"
        }
      ],
      "stateMutability": "view",
      "type": "function"
    },
    {
      "inputs": [],
      "name": "manager",
      "outputs": [
        {
          "internalType": "address",
          "name": "",
          "type": "address"
        }
      ],
      "stateMutability": "view",
      "type": "function"
    },
    {
      "inputs": [],
      "name": "registry",
      "outputs": [
        {
          "internalType": "address",
          "name": "",
          "type": "address"
        }
      ],
      "stateMutability": "view",
      "type": "function"
    },
    {
      "inputs": [],
      "name": "reward",
      "outputs": [
        {
          "internalType": "address",
          "name": "",
          "type": "address"
        }
      ],
      "stateMutability": "view",
      "type": "function"
    },
    {
      "inputs": [],
      "name": "rewardBalance",
      "outputs": [
        {
          "internalType": "uint256",
          "name": "",
          "type": "uint256"
        }
      ],
      "stateMutability": "view",
      "type": "function"
    },
    {
      "inputs": [
        {
          "internalType": "address",
          "name": "registry_",
          "type": "address"
        }
      ],
      "name": "setRegistry",
      "outputs": [],
      "stateMutability": "nonpayable",
      "type": "function"
    },
    {
      "inputs": [
        {
          "internalType": "address",
          "name": "token",
          "type": "address"
        },
        {
          "internalType": "uint256",
          "name": "amount",
          "type": "uint256"
        },
        {
          "internalType": "address",
          "name": "recipient",
          "type": "address"
        }
      ],
      "name": "sweep",
      "outputs": [],
      "stateMutability": "nonpayable",
      "type": "function"
    },
    {
      "inputs": [],
      "name": "underlying",
      "outputs": [
        {
          "internalType": "address",
          "name": "",
          "type": "address"
        }
      ],
      "stateMutability": "view",
      "type": "function"
    },
    {
      "inputs": [],
      "name": "underlyingBalance",
      "outputs": [
        {
          "internalType": "uint256",
          "name": "",
          "type": "uint256"
        }
      ],
      "stateMutability": "view",
      "type": "function"
    },
    {
      "inputs": [
        {
          "internalType": "uint256",
          "name": "amount",
          "type": "uint256"
        }
      ],
      "name": "withdraw",
      "outputs": [
        {
          "internalType": "uint256",
          "name": "",
          "type": "uint256"
        }
      ],
      "stateMutability": "nonpayable",
      "type": "function"
    },
    {
      "inputs": [],
      "name": "withdrawAll",
      "outputs": [],
      "stateMutability": "nonpayable",
      "type": "function"
    },
    {
      "stateMutability": "payable",
      "type": "receive"
    }
  ],
  "transactionHash": "0x251d5eef63ef3a9b896f5b623bef362e53db33a2f4774d42573cb181819cf34a",
  "args": [],
  "solcInputHash": "bda25618f447c2b914f654c498263762",
  "bytecode": "0x60806040523480156200001157600080fd5b50600054610100900460ff16806200002e57506200002e62000134565b806200003d575060005460ff16155b6200007a5760405162461bcd60e51b815260040180806020018281038252602e81526020018062001f29602e913960400191505060405180910390fd5b600054610100900460ff16158015620000a6576000805460ff1961ff0019909116610100171660011790555b6000620000b262000152565b6001600160a01b031614620000c357fe5b6000620000cf62000184565b6001600160a01b031614620000e057fe5b6000620000ec620001b1565b6001600160a01b031614620000fd57fe5b600062000109620001de565b6001600160a01b0316146200011a57fe5b80156200012d576000805461ff00191690555b5062000215565b60006200014c306200020b60201b62000a781760201c565b15905090565b60006200017f7f1b5717851286d5e98a28354be764b8c0a20eb2fbd059120090ee8bcfe1a9bf6c62000211565b905090565b60006200017f7fd2eff96e29993ca5431993c3a205e12e198965c0e1fdd87b4899b57f1e611c7462000211565b60006200017f7f0fad97fe3ec7d6c1e9191a09a0c4ccb7a831b6605392e57d2fedb8501a4dc81262000211565b60006200017f7faeb865605058f37eedb4467ee2609ddec592b0c9a6f7f7cb0db3feabe544c71c62000211565b3b151590565b5490565b611d0480620002256000396000f3fe6080604052600436106101235760003560e01c806369e30ab7116100a0578063a91ee0dc11610064578063a91ee0dc146102ff578063aa5c3ab414610332578063c9168a5914610347578063dc2c256f1461035c578063e8b5e51f1461039f5761012a565b806369e30ab7146102965780636f307dc3146102ab57806376cdb03b146102c05780637b103999146102d5578063853828b6146102ea5761012a565b80633a88ac0f116100e75780633a88ac0f1461022d578063481c6a751461024257806359356c5c146102575780635aa6e6751461026c5780635fe3b567146102815761012a565b80631417030e1461012f57806319776d8e146101965780631985a89f146101bd578063228cb733146101ee5780632e1a7d4d146102035761012a565b3661012a57005b600080fd5b34801561013b57600080fd5b50610194600480360360e081101561015257600080fd5b506001600160a01b038135811691602081013582169160408201358116916060810135821691608082013581169160a081013582169160c090910135166103b4565b005b3480156101a257600080fd5b506101ab61048a565b60408051918252519081900360200190f35b3480156101c957600080fd5b506101d2610532565b604080516001600160a01b039092168252519081900360200190f35b3480156101fa57600080fd5b506101d2610562565b34801561020f57600080fd5b506101ab6004803603602081101561022657600080fd5b503561058d565b34801561023957600080fd5b506101d2610605565b34801561024e57600080fd5b506101d2610630565b34801561026357600080fd5b506101ab610672565b34801561027857600080fd5b506101d261067c565b34801561028d57600080fd5b506101d26106be565b3480156102a257600080fd5b506101ab6106e9565b3480156102b757600080fd5b506101d26106f3565b3480156102cc57600080fd5b506101d261071e565b3480156102e157600080fd5b506101d2610749565b3480156102f657600080fd5b50610194610774565b34801561030b57600080fd5b506101946004803603602081101561032257600080fd5b50356001600160a01b03166107f1565b34801561033e57600080fd5b506101ab6108d7565b34801561035357600080fd5b506101ab610901565b34801561036857600080fd5b506101946004803603606081101561037f57600080fd5b506001600160a01b03813581169160208101359160409091013516610940565b3480156103ab57600080fd5b50610194610a03565b600054610100900460ff16806103cd57506103cd610a7e565b806103db575060005460ff16155b6104165760405162461bcd60e51b815260040180806020018281038252602e815260200180611c20602e913960400191505060405180910390fd5b600054610100900460ff16158015610441576000805460ff1961ff0019909116610100171660011790555b61044e8888888888610a8f565b6104588383610b4b565b61046e6001600160a01b03861687600019610c01565b8015610480576000805461ff00191690555b5050505050505050565b600080610495610532565b6001600160a01b031614156104ac5750600061052f565b6104b4610532565b6001600160a01b03166370a08231306040518263ffffffff1660e01b815260040180826001600160a01b0316815260200191505060206040518083038186803b15801561050057600080fd5b505afa158015610514573d6000803e3d6000fd5b505050506040513d602081101561052a57600080fd5b505190505b90565b600061055d7f4ff4c9b81c0bf267e01129f4817e03efc0163ee7133b87bd58118a96bbce43d3610d14565b905090565b600061055d7faeb865605058f37eedb4467ee2609ddec592b0c9a6f7f7cb0db3feabe544c71c610d14565b600061059761071e565b6001600160a01b0316336001600160a01b0316146105f2576040805162461bcd60e51b815260206004820152601360248201527253747261746567793a204f6e6c792042616e6b60681b604482015290519081900360640190fd5b60006105fe3384610d18565b9392505050565b600061055d7ff2cb7633197ad5c3d2c45444a2d158a3bab1c87ccd1ead8e7d92ff6b3750217d610d14565b600061063a610749565b6001600160a01b031663481c6a756040518163ffffffff1660e01b815260040160206040518083038186803b15801561050057600080fd5b60006104b46106f3565b6000610686610749565b6001600160a01b0316635aa6e6756040518163ffffffff1660e01b815260040160206040518083038186803b15801561050057600080fd5b600061055d7f2ef367ab1438cccede22571406f238368481af421cdc06cfd765d150e76c9965610d14565b60006104b4610605565b600061055d7f0fad97fe3ec7d6c1e9191a09a0c4ccb7a831b6605392e57d2fedb8501a4dc812610d14565b600061055d7fd2eff96e29993ca5431993c3a205e12e198965c0e1fdd87b4899b57f1e611c74610d14565b600061055d7f1b5717851286d5e98a28354be764b8c0a20eb2fbd059120090ee8bcfe1a9bf6c610d14565b61077c61071e565b6001600160a01b0316336001600160a01b0316146107d7576040805162461bcd60e51b815260206004820152601360248201527253747261746567793a204f6e6c792042616e6b60681b604482015290519081900360640190fd5b60006107e1610901565b90506107ed3382610d18565b5050565b6107f961067c565b6001600160a01b0316336001600160a01b03161461085e576040805162461bcd60e51b815260206004820152601b60248201527f537562736372696265723a204f6e6c7920476f7665726e616e63650000000000604482015290519081900360640190fd5b61086781610db7565b61086f61067c565b6001600160a01b0316336001600160a01b0316146108d4576040805162461bcd60e51b815260206004820152601a60248201527f537562736372696265723a2042616420476f7665726e616e6365000000000000604482015290519081900360640190fd5b50565b6000806108e2610562565b6001600160a01b031614156108f95750600061052f565b6104b4610562565b60008061091461090f610532565b610de1565b905061093a670de0b6b3a764000061093461092d61048a565b8490610e4e565b90610ea7565b91505090565b61094861067c565b6001600160a01b0316336001600160a01b0316146109ad576040805162461bcd60e51b815260206004820152601b60248201527f537562736372696265723a204f6e6c7920476f7665726e616e63650000000000604482015290519081900360640190fd5b6109b8818484610f0e565b50604080518381526001600160a01b0383811660208301528251908616927f8d71d334346acd8aade4cdca3af39a37fca2620cd870d28ccf94ae4ade61c8f3928290030190a2505050565b610a0b61071e565b6001600160a01b0316336001600160a01b031614610a66576040805162461bcd60e51b815260206004820152601360248201527253747261746567793a204f6e6c792042616e6b60681b604482015290519081900360640190fd5b610a6e610fda565b610a76611057565b565b3b151590565b6000610a8930610a78565b15905090565b600054610100900460ff1680610aa85750610aa8610a7e565b80610ab6575060005460ff16155b610af15760405162461bcd60e51b815260040180806020018281038252602e815260200180611c20602e913960400191505060405180910390fd5b600054610100900460ff16158015610b1c576000805460ff1961ff0019909116610100171660011790555b610b2586611082565b610b3185858585611187565b8015610b43576000805461ff00191690555b505050505050565b600054610100900460ff1680610b645750610b64610a7e565b80610b72575060005460ff16155b610bad5760405162461bcd60e51b815260040180806020018281038252602e815260200180611c20602e913960400191505060405180910390fd5b600054610100900460ff16158015610bd8576000805460ff1961ff0019909116610100171660011790555b610be183611251565b610bea8261127b565b8015610bfc576000805461ff00191690555b505050565b801580610c87575060408051636eb1769f60e11b81523060048201526001600160a01b03848116602483015291519185169163dd62ed3e91604480820192602092909190829003018186803b158015610c5957600080fd5b505afa158015610c6d573d6000803e3d6000fd5b505050506040513d6020811015610c8357600080fd5b5051155b610cc25760405162461bcd60e51b8152600401808060200182810382526036815260200180611c996036913960400191505060405180910390fd5b604080516001600160a01b038416602482015260448082018490528251808303909101815260649091019091526020810180516001600160e01b031663095ea7b360e01b179052610bfc9084906112a5565b5490565b600081610d2757506000610db1565b6000610d31610901565b90506000610d4b8261093486670de0b6b3a7640000610e4e565b90506000610d65670de0b6b3a76400006109348486610e4e565b905082811115610d8557610d80610d7a610532565b84611356565b610d96565b610d96610d90610532565b82611356565b6000610daa87610da46106f3565b88610f0e565b9450505050505b92915050565b6108d47f1b5717851286d5e98a28354be764b8c0a20eb2fbd059120090ee8bcfe1a9bf6c82611429565b6000816001600160a01b031663182df0f56040518163ffffffff1660e01b815260040160206040518083038186803b158015610e1c57600080fd5b505afa158015610e30573d6000803e3d6000fd5b505050506040513d6020811015610e4657600080fd5b505192915050565b600082610e5d57506000610db1565b82820282848281610e6a57fe5b04146105fe5760405162461bcd60e51b8152600401808060200182810382526021815260200180611c4e6021913960400191505060405180910390fd5b6000808211610efd576040805162461bcd60e51b815260206004820152601a60248201527f536166654d6174683a206469766973696f6e206279207a65726f000000000000604482015290519081900360640190fd5b818381610f0657fe5b049392505050565b600081610f1d575060006105fe565b6000836001600160a01b03166370a08231306040518263ffffffff1660e01b815260040180826001600160a01b0316815260200191505060206040518083038186803b158015610f6c57600080fd5b505afa158015610f80573d6000803e3d6000fd5b505050506040513d6020811015610f9657600080fd5b5051905082811015610fbd57610fb66001600160a01b038516868361142d565b90506105fe565b610fd16001600160a01b038516868561142d565b50909392505050565b610fec610fe56106be565b600061147f565b6000610ff66108d7565b9050801561101757611017611009610562565b6110116106f3565b836114e3565b6110296110226106be565b600161147f565b61103a611034610605565b476116b0565b60006110446106e9565b905080156107ed576107ed611009610605565b6000611061610672565b905080156108d4576108d46110746106f3565b61107c610532565b83611712565b600054610100900460ff168061109b575061109b610a7e565b806110a9575060005460ff16155b6110e45760405162461bcd60e51b815260040180806020018281038252602e815260200180611c20602e913960400191505060405180910390fd5b600054610100900460ff1615801561110f576000805460ff1961ff0019909116610100171660011790555b61111882610a78565b611169576040805162461bcd60e51b815260206004820152601c60248201527f537562736372696265723a20496e76616c696420526567697374727900000000604482015290519081900360640190fd5b61117282610db7565b80156107ed576000805461ff00191690555050565b600054610100900460ff16806111a057506111a0610a7e565b806111ae575060005460ff16155b6111e95760405162461bcd60e51b815260040180806020018281038252602e815260200180611c20602e913960400191505060405180910390fd5b600054610100900460ff16158015611214576000805460ff1961ff0019909116610100171660011790555b61121d856117f6565b61122684611820565b61122f8361184a565b61123882611874565b801561124a576000805461ff00191690555b5050505050565b6108d47ff2cb7633197ad5c3d2c45444a2d158a3bab1c87ccd1ead8e7d92ff6b3750217d82611429565b6108d47f2ef367ab1438cccede22571406f238368481af421cdc06cfd765d150e76c996582611429565b60006112fa826040518060400160405280602081526020017f5361666545524332303a206c6f772d6c6576656c2063616c6c206661696c6564815250856001600160a01b031661189e9092919063ffffffff16565b805190915015610bfc5780806020019051602081101561131957600080fd5b5051610bfc5760405162461bcd60e51b815260040180806020018281038252602a815260200180611c6f602a913960400191505060405180910390fd5b80611360576107ed565b6000826001600160a01b031663852a12e3836040518263ffffffff1660e01b815260040180828152602001915050602060405180830381600087803b1580156113a857600080fd5b505af11580156113bc573d6000803e3d6000fd5b505050506040513d60208110156113d257600080fd5b505190508015610bfc576040805162461bcd60e51b815260206004820152601860248201527f42656e71693a2052656465656d20756e6465726c79696e670000000000000000604482015290519081900360640190fd5b9055565b604080516001600160a01b038416602482015260448082018490528251808303909101815260649091019091526020810180516001600160e01b031663a9059cbb60e01b179052610bfc9084906112a5565b60408051630952c56360e01b815260ff8316600482015230602482015290516001600160a01b03841691630952c56391604480830192600092919082900301818387803b1580156114cf57600080fd5b505af1158015610b43573d6000803e3d6000fd5b60006114ed610630565b90506000816001600160a01b031663921c86d286866040518363ffffffff1660e01b815260040180836001600160a01b03168152602001826001600160a01b031681526020019250505060206040518083038186803b15801561154f57600080fd5b505afa158015611563573d6000803e3d6000fd5b505050506040513d602081101561157957600080fd5b50519050611588818685610f0e565b5060408051636f70e66f60e01b81526001600160a01b0384811660048301528781166024830152868116604483015260648201869052600160848301529151600092841691636f70e66f9160a480830192602092919082900301818787803b1580156115f357600080fd5b505af1158015611607573d6000803e3d6000fd5b505050506040513d602081101561161d57600080fd5b505190506001600160a01b038316634893042861163861071e565b87846040518463ffffffff1660e01b815260040180846001600160a01b03168152602001836001600160a01b031681526020018281526020019350505050600060405180830381600087803b15801561169057600080fd5b505af11580156116a4573d6000803e3d6000fd5b50505050505050505050565b806116ba576107ed565b816001600160a01b031663d0e30db0826040518263ffffffff1660e01b81526004016000604051808303818588803b1580156116f557600080fd5b505af1158015611709573d6000803e3d6000fd5b50505050505050565b8061171c57610bfc565b6117306001600160a01b03841683836118b5565b6000826001600160a01b031663a0712d68836040518263ffffffff1660e01b815260040180828152602001915050602060405180830381600087803b15801561177857600080fd5b505af115801561178c573d6000803e3d6000fd5b505050506040513d60208110156117a257600080fd5b5051905080156117f0576040805162461bcd60e51b815260206004820152601460248201527310995b9c5a4e88109bdc9c9bddc819985a5b195960621b604482015290519081900360640190fd5b50505050565b6108d47fd2eff96e29993ca5431993c3a205e12e198965c0e1fdd87b4899b57f1e611c7482611429565b6108d47f0fad97fe3ec7d6c1e9191a09a0c4ccb7a831b6605392e57d2fedb8501a4dc81282611429565b6108d47f4ff4c9b81c0bf267e01129f4817e03efc0163ee7133b87bd58118a96bbce43d382611429565b6108d47faeb865605058f37eedb4467ee2609ddec592b0c9a6f7f7cb0db3feabe544c71c82611429565b60606118ad84846000856119a0565b949350505050565b600061194b82856001600160a01b031663dd62ed3e30876040518363ffffffff1660e01b815260040180836001600160a01b03168152602001826001600160a01b031681526020019250505060206040518083038186803b15801561191957600080fd5b505afa15801561192d573d6000803e3d6000fd5b505050506040513d602081101561194357600080fd5b505190611afb565b604080516001600160a01b038616602482015260448082018490528251808303909101815260649091019091526020810180516001600160e01b031663095ea7b360e01b1790529091506117f09085906112a5565b6060824710156119e15760405162461bcd60e51b8152600401808060200182810382526026815260200180611bfa6026913960400191505060405180910390fd5b6119ea85610a78565b611a3b576040805162461bcd60e51b815260206004820152601d60248201527f416464726573733a2063616c6c20746f206e6f6e2d636f6e7472616374000000604482015290519081900360640190fd5b600080866001600160a01b031685876040518082805190602001908083835b60208310611a795780518252601f199092019160209182019101611a5a565b6001836020036101000a03801982511681845116808217855250505050505090500191505060006040518083038185875af1925050503d8060008114611adb576040519150601f19603f3d011682016040523d82523d6000602084013e611ae0565b606091505b5091509150611af0828286611b55565b979650505050505050565b6000828201838110156105fe576040805162461bcd60e51b815260206004820152601b60248201527f536166654d6174683a206164646974696f6e206f766572666c6f770000000000604482015290519081900360640190fd5b60608315611b645750816105fe565b825115611b745782518084602001fd5b8160405162461bcd60e51b81526004018080602001828103825283818151815260200191508051906020019080838360005b83811015611bbe578181015183820152602001611ba6565b50505050905090810190601f168015611beb5780820380516001836020036101000a031916815260200191505b509250505060405180910390fdfe416464726573733a20696e73756666696369656e742062616c616e636520666f722063616c6c496e697469616c697a61626c653a20636f6e747261637420697320616c726561647920696e697469616c697a6564536166654d6174683a206d756c7469706c69636174696f6e206f766572666c6f775361666545524332303a204552433230206f7065726174696f6e20646964206e6f7420737563636565645361666545524332303a20617070726f76652066726f6d206e6f6e2d7a65726f20746f206e6f6e2d7a65726f20616c6c6f77616e6365a2646970667358221220f248a4b9baeeca6477939cefc1dc198172177ef1fa2ecf8ec7abcb6eb00122b264736f6c63430007060033496e697469616c697a61626c653a20636f6e747261637420697320616c726561647920696e697469616c697a6564",
  "devdoc": {
    "details": "https://compound.finance/docs/ctokens",
    "kind": "dev",
    "methods": {
      "derivativeBalance()": {
        "details": "Balance of derivative tokens received from Strategy, if applicable",
        "returns": {
          "_0": "The balance of derivative tokens"
        }
      },
      "governance()": {
        "returns": {
          "_0": "The current Governance address"
        }
      },
      "initializeBenqiStrategy(address,address,address,address,address,address,address)": {
        "details": "The function should be called at time of deployment",
        "params": {
          "bank_": "the bank associated with the strategy",
          "comptroller_": "the Benqi rewards contract",
          "derivative_": "the qiToken address received from Benqi",
          "extraReward_": "the address of the reward token WAVAX",
          "registry_": "the registry contract",
          "reward_": "the address of the reward token QI",
          "underlying_": "the underlying token that is deposited"
        }
      },
      "investedBalance()": {
        "details": "Get the exchange rate (which is scaled up by 1e18) and multiply by amount of qiTokens",
        "returns": {
          "_0": "The amount of underlying the strategy has invested"
        }
      },
      "manager()": {
        "returns": {
          "_0": "The current Manager address"
        }
      },
      "registry()": {
        "returns": {
          "_0": "The current Registry address"
        }
      },
      "rewardBalance()": {
        "details": "Balance of reward tokens awaiting liquidation, if applicable"
      },
      "setRegistry(address)": {
        "details": "Requires sender to be Governance of the new Registry to avoid bricking.Ideally should not be used",
        "params": {
          "registry_": "The new registry"
        }
      },
      "sweep(address,uint256,address)": {
        "params": {
          "amount": "The amount of tokens to sweep",
          "recipient": "The address to send the sweeped tokens to",
          "token": "The address of the token to sweep"
        }
      },
      "underlyingBalance()": {
        "details": "Balance of underlying awaiting Strategy investment"
      }
    },
    "title": "Oh! Finance Benqi Strategy",
    "version": 1
  },
  "userdoc": {
    "kind": "user",
    "methods": {
      "bank()": {
        "notice": "The Bank that the Strategy is associated with"
      },
      "constructor": {
        "notice": "Initialize the Benqi Strategy Logic"
      },
      "derivative()": {
        "notice": "The derivative token received from AaveV2 (aToken)"
      },
      "governance()": {
        "notice": "Get the Governance address"
      },
      "initializeBenqiStrategy(address,address,address,address,address,address,address)": {
        "notice": "Initializes the Benqi Strategy Proxy"
      },
      "investedBalance()": {
        "notice": "Get the balance of underlying invested by the Strategy"
      },
      "manager()": {
        "notice": "Get the Manager address"
      },
      "registry()": {
        "notice": "Get the Registry address"
      },
      "reward()": {
        "notice": "The reward token received from AaveV2 (stkAave)"
      },
      "setRegistry(address)": {
        "notice": "Set the Registry for the contract. Only callable by Governance."
      },
      "sweep(address,uint256,address)": {
        "notice": "Governance function to sweep any stuck / airdrop tokens to a given recipient"
      },
      "underlying()": {
        "notice": "The underlying token the Strategy invests in AaveV2"
      }
    },
    "notice": "Standard, unleveraged strategy. Invest underlying tokens into derivative cTokens",
    "version": 1
  },
  "storageLayout": {
    "storage": [
      {
        "astId": 3184,
        "contract": "contracts/strategies/benqi/OhAvalancheBenqiStrategy.sol:OhAvalancheBenqiStrategy",
        "label": "_initialized",
        "offset": 0,
        "slot": "0",
        "type": "t_bool"
      },
      {
        "astId": 3187,
        "contract": "contracts/strategies/benqi/OhAvalancheBenqiStrategy.sol:OhAvalancheBenqiStrategy",
        "label": "_initializing",
        "offset": 1,
        "slot": "0",
        "type": "t_bool"
      }
    ],
    "types": {
      "t_bool": {
        "encoding": "inplace",
        "label": "bool",
        "numberOfBytes": "1"
      }
    }
  }
}