{
  "address": "0xc3Fad1Dc2C4Bb3FFc86CCFE43B276e64aC3639E0",
  "abi": [
    {
      "inputs": [],
      "stateMutability": "nonpayable",
      "type": "constructor"
    },
    {
      "anonymous": false,
      "inputs": [
        {
          "indexed": true,
          "internalType": "address",
          "name": "router",
          "type": "address"
        },
        {
          "indexed": true,
          "internalType": "address",
          "name": "token",
          "type": "address"
        },
        {
          "indexed": false,
          "internalType": "uint256",
          "name": "amount",
          "type": "uint256"
        }
      ],
      "name": "Liquidate",
      "type": "event"
    },
    {
      "anonymous": false,
      "inputs": [
        {
          "indexed": true,
          "internalType": "address",
          "name": "token",
          "type": "address"
        },
        {
          "indexed": false,
          "internalType": "uint256",
          "name": "amount",
          "type": "uint256"
        },
        {
          "indexed": false,
          "internalType": "address",
          "name": "recipient",
          "type": "address"
        }
      ],
      "name": "Sweep",
      "type": "event"
    },
    {
      "inputs": [],
      "name": "bank",
      "outputs": [
        {
          "internalType": "address",
          "name": "",
          "type": "address"
        }
      ],
      "stateMutability": "view",
      "type": "function"
    },
    {
      "inputs": [],
      "name": "derivative",
      "outputs": [
        {
          "internalType": "address",
          "name": "",
          "type": "address"
        }
      ],
      "stateMutability": "view",
      "type": "function"
    },
    {
      "inputs": [],
      "name": "derivativeBalance",
      "outputs": [
        {
          "internalType": "uint256",
          "name": "",
          "type": "uint256"
        }
      ],
      "stateMutability": "view",
      "type": "function"
    },
    {
      "inputs": [],
      "name": "gauge",
      "outputs": [
        {
          "internalType": "address",
          "name": "",
          "type": "address"
        }
      ],
      "stateMutability": "view",
      "type": "function"
    },
    {
      "inputs": [],
      "name": "governance",
      "outputs": [
        {
          "internalType": "address",
          "name": "",
          "type": "address"
        }
      ],
      "stateMutability": "view",
      "type": "function"
    },
    {
      "inputs": [],
      "name": "index",
      "outputs": [
        {
          "internalType": "uint256",
          "name": "",
          "type": "uint256"
        }
      ],
      "stateMutability": "view",
      "type": "function"
    },
    {
      "inputs": [
        {
          "internalType": "address",
          "name": "registry_",
          "type": "address"
        },
        {
          "internalType": "address",
          "name": "bank_",
          "type": "address"
        },
        {
          "internalType": "address",
          "name": "underlying_",
          "type": "address"
        },
        {
          "internalType": "address",
          "name": "derivative_",
          "type": "address"
        },
        {
          "internalType": "address",
          "name": "reward_",
          "type": "address"
        },
        {
          "internalType": "address",
          "name": "secondaryReward_",
          "type": "address"
        },
        {
          "internalType": "address",
          "name": "pool_",
          "type": "address"
        },
        {
          "internalType": "address",
          "name": "gauge_",
          "type": "address"
        },
        {
          "internalType": "uint256",
          "name": "index_",
          "type": "uint256"
        }
      ],
      "name": "initializeCurveAPoolStrategy",
      "outputs": [],
      "stateMutability": "nonpayable",
      "type": "function"
    },
    {
      "inputs": [],
      "name": "invest",
      "outputs": [],
      "stateMutability": "nonpayable",
      "type": "function"
    },
    {
      "inputs": [],
      "name": "investedBalance",
      "outputs": [
        {
          "internalType": "uint256",
          "name": "",
          "type": "uint256"
        }
      ],
      "stateMutability": "view",
      "type": "function"
    },
    {
      "inputs": [],
      "name": "manager",
      "outputs": [
        {
          "internalType": "address",
          "name": "",
          "type": "address"
        }
      ],
      "stateMutability": "view",
      "type": "function"
    },
    {
      "inputs": [],
      "name": "pool",
      "outputs": [
        {
          "internalType": "address",
          "name": "",
          "type": "address"
        }
      ],
      "stateMutability": "view",
      "type": "function"
    },
    {
      "inputs": [],
      "name": "registry",
      "outputs": [
        {
          "internalType": "address",
          "name": "",
          "type": "address"
        }
      ],
      "stateMutability": "view",
      "type": "function"
    },
    {
      "inputs": [],
      "name": "reward",
      "outputs": [
        {
          "internalType": "address",
          "name": "",
          "type": "address"
        }
      ],
      "stateMutability": "view",
      "type": "function"
    },
    {
      "inputs": [],
      "name": "rewardBalance",
      "outputs": [
        {
          "internalType": "uint256",
          "name": "",
          "type": "uint256"
        }
      ],
      "stateMutability": "view",
      "type": "function"
    },
    {
      "inputs": [],
      "name": "secondaryReward",
      "outputs": [
        {
          "internalType": "address",
          "name": "",
          "type": "address"
        }
      ],
      "stateMutability": "view",
      "type": "function"
    },
    {
      "inputs": [],
      "name": "secondaryRewardBalance",
      "outputs": [
        {
          "internalType": "uint256",
          "name": "",
          "type": "uint256"
        }
      ],
      "stateMutability": "view",
      "type": "function"
    },
    {
      "inputs": [
        {
          "internalType": "address",
          "name": "registry_",
          "type": "address"
        }
      ],
      "name": "setRegistry",
      "outputs": [],
      "stateMutability": "nonpayable",
      "type": "function"
    },
    {
      "inputs": [],
      "name": "stakedBalance",
      "outputs": [
        {
          "internalType": "uint256",
          "name": "",
          "type": "uint256"
        }
      ],
      "stateMutability": "view",
      "type": "function"
    },
    {
      "inputs": [
        {
          "internalType": "address",
          "name": "token",
          "type": "address"
        },
        {
          "internalType": "uint256",
          "name": "amount",
          "type": "uint256"
        },
        {
          "internalType": "address",
          "name": "recipient",
          "type": "address"
        }
      ],
      "name": "sweep",
      "outputs": [],
      "stateMutability": "nonpayable",
      "type": "function"
    },
    {
      "inputs": [],
      "name": "underlying",
      "outputs": [
        {
          "internalType": "address",
          "name": "",
          "type": "address"
        }
      ],
      "stateMutability": "view",
      "type": "function"
    },
    {
      "inputs": [],
      "name": "underlyingBalance",
      "outputs": [
        {
          "internalType": "uint256",
          "name": "",
          "type": "uint256"
        }
      ],
      "stateMutability": "view",
      "type": "function"
    },
    {
      "inputs": [
        {
          "internalType": "uint256",
          "name": "amount",
          "type": "uint256"
        }
      ],
      "name": "withdraw",
      "outputs": [
        {
          "internalType": "uint256",
          "name": "",
          "type": "uint256"
        }
      ],
      "stateMutability": "nonpayable",
      "type": "function"
    },
    {
      "inputs": [],
      "name": "withdrawAll",
      "outputs": [],
      "stateMutability": "nonpayable",
      "type": "function"
    }
  ],
  "transactionHash": "0x80b53d2f63c22755bb2e43039b0dbc4a77652e50602d3310817a16cfa68a99f9",
  "args": [],
  "solcInputHash": "a99717a97f393596d3bf3896b6d70776",
  "bytecode": "0x60806040523480156200001157600080fd5b50600054610100900460ff16806200002e57506200002e62000134565b806200003d575060005460ff16155b6200007a5760405162461bcd60e51b815260040180806020018281038252602e81526020018062001f65602e913960400191505060405180910390fd5b600054610100900460ff16158015620000a6576000805460ff1961ff0019909116610100171660011790555b6000620000b262000152565b6001600160a01b031614620000c357fe5b6000620000cf62000184565b6001600160a01b031614620000e057fe5b6000620000ec620001b1565b6001600160a01b031614620000fd57fe5b600062000109620001de565b6001600160a01b0316146200011a57fe5b80156200012d576000805461ff00191690555b5062000215565b60006200014c306200020b60201b62000a8b1760201c565b15905090565b60006200017f7f1b5717851286d5e98a28354be764b8c0a20eb2fbd059120090ee8bcfe1a9bf6c62000211565b905090565b60006200017f7fd2eff96e29993ca5431993c3a205e12e198965c0e1fdd87b4899b57f1e611c7462000211565b60006200017f7f0fad97fe3ec7d6c1e9191a09a0c4ccb7a831b6605392e57d2fedb8501a4dc81262000211565b60006200017f7faeb865605058f37eedb4467ee2609ddec592b0c9a6f7f7cb0db3feabe544c71c62000211565b3b151590565b5490565b611d4080620002256000396000f3fe608060405234801561001057600080fd5b506004361061014d5760003560e01c80636f307dc3116100c3578063aa5c3ab41161007c578063aa5c3ab41461023d578063c9168a5914610245578063dc2c256f1461024d578063e8b5e51f14610283578063e8da1fd11461028b578063f1d742d5146102f35761014d565b80636f307dc3146101ed57806376cdb03b146101f55780637b103999146101fd578063853828b614610205578063a6f19c841461020f578063a91ee0dc146102175761014d565b80632e1a7d4d116101155780632e1a7d4d146101a857806330ff0b4e146101c5578063481c6a75146101cd57806359356c5c146101d55780635aa6e675146101dd5780635b9f0016146101e55761014d565b806316f0115b1461015257806319776d8e146101765780631985a89f14610190578063228cb733146101985780632986c0e5146101a0575b600080fd5b61015a6102fb565b604080516001600160a01b039092168252519081900360200190f35b61017e61032c565b60408051918252519081900360200190f35b61015a6103d3565b61015a6103fe565b61017e610429565b61017e600480360360208110156101be57600080fd5b5035610454565b61015a6104cc565b61015a6104f7565b61017e610539565b61015a610543565b61017e610585565b61015a610597565b61015a6105c2565b61015a6105ed565b61020d610618565b005b61015a610695565b61020d6004803603602081101561022d57600080fd5b50356001600160a01b03166106c0565b61017e6107a6565b61017e6107d0565b61020d6004803603606081101561026357600080fd5b506001600160a01b038135811691602081013591604090910135166107f2565b61020d6108b5565b61020d60048036036101208110156102a257600080fd5b506001600160a01b038135811691602081013582169160408201358116916060810135821691608082013581169160a081013582169160c082013581169160e081013590911690610100013561092a565b61017e6109ee565b60006103267f330f10e3036378592f49e68634d0df63784e4e3fc8e020d4b867b13c5238eba4610a91565b90505b90565b6000806103376103d3565b6001600160a01b0316141561034e57506000610329565b6103566103d3565b6001600160a01b03166370a08231306040518263ffffffff1660e01b815260040180826001600160a01b0316815260200191505060206040518083038186803b1580156103a257600080fd5b505afa1580156103b6573d6000803e3d6000fd5b505050506040513d60208110156103cc57600080fd5b5051905090565b60006103267f4ff4c9b81c0bf267e01129f4817e03efc0163ee7133b87bd58118a96bbce43d3610a91565b60006103267faeb865605058f37eedb4467ee2609ddec592b0c9a6f7f7cb0db3feabe544c71c610a91565b60006103267fb6b51a75a44d9b0046bc08b5d45e10870e79dec03d49ff1beeb7491b35bfe32f610a91565b600061045e6105c2565b6001600160a01b0316336001600160a01b0316146104b9576040805162461bcd60e51b815260206004820152601360248201527253747261746567793a204f6e6c792042616e6b60681b604482015290519081900360640190fd5b60006104c53384610a95565b9392505050565b60006103267f5998c690f9a1844257ca5c21cb39f78d4bbd2eae05acb65890e299ab4a7bfa4f610a91565b60006105016105ed565b6001600160a01b031663481c6a756040518163ffffffff1660e01b815260040160206040518083038186803b1580156103a257600080fd5b6000610356610597565b600061054d6105ed565b6001600160a01b0316635aa6e6756040518163ffffffff1660e01b815260040160206040518083038186803b1580156103a257600080fd5b6000610326610592610695565b610b7a565b60006103267f0fad97fe3ec7d6c1e9191a09a0c4ccb7a831b6605392e57d2fedb8501a4dc812610a91565b60006103267fd2eff96e29993ca5431993c3a205e12e198965c0e1fdd87b4899b57f1e611c74610a91565b60006103267f1b5717851286d5e98a28354be764b8c0a20eb2fbd059120090ee8bcfe1a9bf6c610a91565b6106206105c2565b6001600160a01b0316336001600160a01b03161461067b576040805162461bcd60e51b815260206004820152601360248201527253747261746567793a204f6e6c792042616e6b60681b604482015290519081900360640190fd5b60006106856107d0565b90506106913382610a95565b5050565b60006103267f42abdd437833f719b2143194014e248a0b88732beec95d86e79864eea92009b2610a91565b6106c8610543565b6001600160a01b0316336001600160a01b03161461072d576040805162461bcd60e51b815260206004820152601b60248201527f537562736372696265723a204f6e6c7920476f7665726e616e63650000000000604482015290519081900360640190fd5b61073681610bfb565b61073e610543565b6001600160a01b0316336001600160a01b0316146107a3576040805162461bcd60e51b815260206004820152601a60248201527f537562736372696265723a2042616420476f7665726e616e6365000000000000604482015290519081900360640190fd5b50565b6000806107b16103fe565b6001600160a01b031614156107c857506000610329565b6103566103fe565b60006103266107dd6102fb565b6107e5610585565b6107ed610429565b610c25565b6107fa610543565b6001600160a01b0316336001600160a01b03161461085f576040805162461bcd60e51b815260206004820152601b60248201527f537562736372696265723a204f6e6c7920476f7665726e616e63650000000000604482015290519081900360640190fd5b61086a818484610cb7565b50604080518381526001600160a01b0383811660208301528251908616927f8d71d334346acd8aade4cdca3af39a37fca2620cd870d28ccf94ae4ade61c8f3928290030190a2505050565b6108bd6105c2565b6001600160a01b0316336001600160a01b031614610918576040805162461bcd60e51b815260206004820152601360248201527253747261746567793a204f6e6c792042616e6b60681b604482015290519081900360640190fd5b610920610d83565b610928610ddb565b565b600054610100900460ff16806109435750610943610e30565b80610951575060005460ff16155b61098c5760405162461bcd60e51b815260040180806020018281038252602e815260200180611c92602e913960400191505060405180910390fd5b600054610100900460ff161580156109b7576000805460ff1961ff0019909116610100171660011790555b6109c48a8a8a8a8a610e41565b6109d085858585610efd565b80156109e2576000805461ff00191690555b50505050505050505050565b6000806109f96104cc565b90506001600160a01b038116610a13576000915050610329565b604080516370a0823160e01b815230600482015290516001600160a01b038316916370a08231916024808301926020929190829003018186803b158015610a5957600080fd5b505afa158015610a6d573d6000803e3d6000fd5b505050506040513d6020811015610a8357600080fd5b505191505090565b3b151590565b5490565b600081610aa457506000610b74565b6000610aae6107d0565b905080610abf576000915050610b74565b6000610ac9610585565b90506000610ae983610ae387670de0b6b3a7640000610fc7565b90611020565b90506000610b0c83610b07670de0b6b3a7640000610ae38684610fc7565b611087565b90506000610b2a85610b07670de0b6b3a7640000610ae38784610fc7565b9050610b3d610b37610695565b8361109d565b610b57610b486102fb565b610b50610429565b8484611101565b6000610b6b89610b65610597565b8a610cb7565b96505050505050505b92915050565b6000816001600160a01b03166370a08231306040518263ffffffff1660e01b815260040180826001600160a01b0316815260200191505060206040518083038186803b158015610bc957600080fd5b505afa158015610bdd573d6000803e3d6000fd5b505050506040513d6020811015610bf357600080fd5b505192915050565b6107a37f1b5717851286d5e98a28354be764b8c0a20eb2fbd059120090ee8bcfe1a9bf6c8261118a565b600082610c34575060006104c5565b836001600160a01b031663cc2b27d784846040518363ffffffff1660e01b81526004018083815260200182600f0b81526020019250505060206040518083038186803b158015610c8357600080fd5b505afa158015610c97573d6000803e3d6000fd5b505050506040513d6020811015610cad57600080fd5b5051949350505050565b600081610cc6575060006104c5565b6000836001600160a01b03166370a08231306040518263ffffffff1660e01b815260040180826001600160a01b0316815260200191505060206040518083038186803b158015610d1557600080fd5b505afa158015610d29573d6000803e3d6000fd5b505050506040513d6020811015610d3f57600080fd5b5051905082811015610d6657610d5f6001600160a01b038516868361118e565b90506104c5565b610d7a6001600160a01b038516868561118e565b829150506104c5565b610d93610d8e610695565b6111e5565b6000610d9d6107a6565b90508015610dbe57610dbe610db06103fe565b610db8610597565b83611247565b6000610dc86109ee565b9050801561069157610691610db06104cc565b6000610de5610539565b905080156107a357610e10610df86102fb565b610e00610597565b610e08610429565b846001611408565b6107a3610e1b610695565b610e236103d3565b610e2b61032c565b6114d8565b6000610e3b30610a8b565b15905090565b600054610100900460ff1680610e5a5750610e5a610e30565b80610e68575060005460ff16155b610ea35760405162461bcd60e51b815260040180806020018281038252602e815260200180611c92602e913960400191505060405180910390fd5b600054610100900460ff16158015610ece576000805460ff1961ff0019909116610100171660011790555b610ed786611559565b610ee38585858561165e565b8015610ef5576000805461ff00191690555b505050505050565b600054610100900460ff1680610f165750610f16610e30565b80610f24575060005460ff16155b610f5f5760405162461bcd60e51b815260040180806020018281038252602e815260200180611c92602e913960400191505060405180910390fd5b600054610100900460ff16158015610f8a576000805460ff1961ff0019909116610100171660011790555b610f938561170f565b610f9c84611739565b610fa583611763565b610fae8261178d565b8015610fc0576000805461ff00191690555b5050505050565b600082610fd657506000610b74565b82820282848281610fe357fe5b04146104c55760405162461bcd60e51b8152600401808060200182810382526021815260200180611cc06021913960400191505060405180910390fd5b6000808211611076576040805162461bcd60e51b815260206004820152601a60248201527f536166654d6174683a206469766973696f6e206279207a65726f000000000000604482015290519081900360640190fd5b81838161107f57fe5b049392505050565b600081831061109657816104c5565b5090919050565b806110a757610691565b816001600160a01b0316632e1a7d4d826040518263ffffffff1660e01b815260040180828152602001915050600060405180830381600087803b1580156110ed57600080fd5b505af1158015610ef5573d6000803e3d6000fd5b8161110b57611184565b6040805163517a55a360e01b815260048101849052600f85900b6024820152604481018390526001606482015290516001600160a01b0386169163517a55a391608480830192600092919082900301818387803b15801561116b57600080fd5b505af115801561117f573d6000803e3d6000fd5b505050505b50505050565b9055565b604080516001600160a01b038416602482015260448082018490528251808303909101815260649091019091526020810180516001600160e01b031663a9059cbb60e01b1790526111e09084906117b7565b505050565b60408051639faceb1b60e01b81523060048201819052602482015290516001600160a01b03831691639faceb1b91604480830192600092919082900301818387803b15801561123357600080fd5b505af1158015610fc0573d6000803e3d6000fd5b60006112516104f7565b90506000816001600160a01b031663921c86d286866040518363ffffffff1660e01b815260040180836001600160a01b03168152602001826001600160a01b031681526020019250505060206040518083038186803b1580156112b357600080fd5b505afa1580156112c7573d6000803e3d6000fd5b505050506040513d60208110156112dd57600080fd5b505190506112ec818685610cb7565b5060408051636f70e66f60e01b81526001600160a01b0384811660048301528781166024830152868116604483015260648201869052600160848301529151600092841691636f70e66f9160a480830192602092919082900301818787803b15801561135757600080fd5b505af115801561136b573d6000803e3d6000fd5b505050506040513d602081101561138157600080fd5b505190506001600160a01b038316634893042861139c6105c2565b87846040518463ffffffff1660e01b815260040180846001600160a01b03168152602001836001600160a01b031681526020018281526020019350505050600060405180830381600087803b1580156113f457600080fd5b505af11580156109e2573d6000803e3d6000fd5b8161141257610fc0565b600060405180606001604052806000815260200160008152602001600081525090508281856003811061144157fe5b602002015261145a6001600160a01b0386168785611868565b6040516315b74c9d60e11b81526001600160a01b03871690632b6e993a90839085906001906004018084606080838360005b838110156114a457818101518382015260200161148c565b5050505090500183815260200182151581526020019350505050600060405180830381600087803b1580156113f457600080fd5b806114e2576111e0565b6114f66001600160a01b0383168483611868565b826001600160a01b031663b6b55f25826040518263ffffffff1660e01b815260040180828152602001915050600060405180830381600087803b15801561153c57600080fd5b505af1158015611550573d6000803e3d6000fd5b50505050505050565b600054610100900460ff16806115725750611572610e30565b80611580575060005460ff16155b6115bb5760405162461bcd60e51b815260040180806020018281038252602e815260200180611c92602e913960400191505060405180910390fd5b600054610100900460ff161580156115e6576000805460ff1961ff0019909116610100171660011790555b6115ef82610a8b565b611640576040805162461bcd60e51b815260206004820152601c60248201527f537562736372696265723a20496e76616c696420526567697374727900000000604482015290519081900360640190fd5b61164982610bfb565b8015610691576000805461ff00191690555050565b600054610100900460ff16806116775750611677610e30565b80611685575060005460ff16155b6116c05760405162461bcd60e51b815260040180806020018281038252602e815260200180611c92602e913960400191505060405180910390fd5b600054610100900460ff161580156116eb576000805460ff1961ff0019909116610100171660011790555b6116f485611953565b6116fd8461197d565b611706836119a7565b610fae826119d1565b6107a37f5998c690f9a1844257ca5c21cb39f78d4bbd2eae05acb65890e299ab4a7bfa4f8261118a565b6107a37f330f10e3036378592f49e68634d0df63784e4e3fc8e020d4b867b13c5238eba48261118a565b6107a37f42abdd437833f719b2143194014e248a0b88732beec95d86e79864eea92009b28261118a565b6107a37fb6b51a75a44d9b0046bc08b5d45e10870e79dec03d49ff1beeb7491b35bfe32f8261118a565b600061180c826040518060400160405280602081526020017f5361666545524332303a206c6f772d6c6576656c2063616c6c206661696c6564815250856001600160a01b03166119fb9092919063ffffffff16565b8051909150156111e05780806020019051602081101561182b57600080fd5b50516111e05760405162461bcd60e51b815260040180806020018281038252602a815260200180611ce1602a913960400191505060405180910390fd5b60006118fe82856001600160a01b031663dd62ed3e30876040518363ffffffff1660e01b815260040180836001600160a01b03168152602001826001600160a01b031681526020019250505060206040518083038186803b1580156118cc57600080fd5b505afa1580156118e0573d6000803e3d6000fd5b505050506040513d60208110156118f657600080fd5b505190611a12565b604080516001600160a01b038616602482015260448082018490528251808303909101815260649091019091526020810180516001600160e01b031663095ea7b360e01b1790529091506111849085906117b7565b6107a37fd2eff96e29993ca5431993c3a205e12e198965c0e1fdd87b4899b57f1e611c748261118a565b6107a37f0fad97fe3ec7d6c1e9191a09a0c4ccb7a831b6605392e57d2fedb8501a4dc8128261118a565b6107a37f4ff4c9b81c0bf267e01129f4817e03efc0163ee7133b87bd58118a96bbce43d38261118a565b6107a37faeb865605058f37eedb4467ee2609ddec592b0c9a6f7f7cb0db3feabe544c71c8261118a565b6060611a0a8484600085611a6c565b949350505050565b6000828201838110156104c5576040805162461bcd60e51b815260206004820152601b60248201527f536166654d6174683a206164646974696f6e206f766572666c6f770000000000604482015290519081900360640190fd5b606082471015611aad5760405162461bcd60e51b8152600401808060200182810382526026815260200180611c6c6026913960400191505060405180910390fd5b611ab685610a8b565b611b07576040805162461bcd60e51b815260206004820152601d60248201527f416464726573733a2063616c6c20746f206e6f6e2d636f6e7472616374000000604482015290519081900360640190fd5b600080866001600160a01b031685876040518082805190602001908083835b60208310611b455780518252601f199092019160209182019101611b26565b6001836020036101000a03801982511681845116808217855250505050505090500191505060006040518083038185875af1925050503d8060008114611ba7576040519150601f19603f3d011682016040523d82523d6000602084013e611bac565b606091505b5091509150611bbc828286611bc7565b979650505050505050565b60608315611bd65750816104c5565b825115611be65782518084602001fd5b8160405162461bcd60e51b81526004018080602001828103825283818151815260200191508051906020019080838360005b83811015611c30578181015183820152602001611c18565b50505050905090810190601f168015611c5d5780820380516001836020036101000a031916815260200191505b509250505060405180910390fdfe416464726573733a20696e73756666696369656e742062616c616e636520666f722063616c6c496e697469616c697a61626c653a20636f6e747261637420697320616c726561647920696e697469616c697a6564536166654d6174683a206d756c7469706c69636174696f6e206f766572666c6f775361666545524332303a204552433230206f7065726174696f6e20646964206e6f742073756363656564a26469706673582212202f84ad3334159c1c422cd97ba83d904f8d97b5a1ad2dd2ef8af7a4b95d82a15464736f6c63430007060033496e697469616c697a61626c653a20636f6e747261637420697320616c726561647920696e697469616c697a6564",
  "devdoc": {
    "kind": "dev",
    "methods": {
      "derivativeBalance()": {
        "details": "Balance of derivative tokens received from Strategy, if applicable",
        "returns": {
          "_0": "The balance of derivative tokens"
        }
      },
      "governance()": {
        "returns": {
          "_0": "The current Governance address"
        }
      },
      "initializeCurveAPoolStrategy(address,address,address,address,address,address,address,address,uint256)": {
        "params": {
          "bank_": "Address of the Bank",
          "derivative_": "3CRV LP Token",
          "gauge_": "Curve Gauge, Staking Contract",
          "index_": "Underlying APool Index",
          "pool_": "Address of the Curve APool",
          "registry_": "Address of the Registry",
          "reward_": "CRV Gov Token",
          "underlying_": "Underlying (DAI, USDC, USDT)"
        }
      },
      "invest()": {
        "details": "Compound CRV Yield, Add Liquidity, Stake into Gauge"
      },
      "manager()": {
        "returns": {
          "_0": "The current Manager address"
        }
      },
      "registry()": {
        "returns": {
          "_0": "The current Registry address"
        }
      },
      "rewardBalance()": {
        "details": "Balance of reward tokens awaiting liquidation, if applicable"
      },
      "setRegistry(address)": {
        "details": "Requires sender to be Governance of the new Registry to avoid bricking.Ideally should not be used",
        "params": {
          "registry_": "The new registry"
        }
      },
      "sweep(address,uint256,address)": {
        "params": {
          "amount": "The amount of tokens to sweep",
          "recipient": "The address to send the sweeped tokens to",
          "token": "The address of the token to sweep"
        }
      },
      "underlyingBalance()": {
        "details": "Balance of underlying awaiting Strategy investment"
      },
      "withdraw(uint256)": {
        "details": "Unstake from Gauge, Remove Liquidity",
        "params": {
          "amount": "Amount of Underlying tokens to withdraw"
        }
      },
      "withdrawAll()": {
        "details": "Unstake from Gauge, Remove Liquidity"
      }
    },
    "title": "Oh! Finance Curve APool Strategy",
    "version": 1
  },
  "userdoc": {
    "kind": "user",
    "methods": {
      "bank()": {
        "notice": "The Bank that the Strategy is associated with"
      },
      "constructor": {
        "notice": "Initialize the Curve APool Strategy Logic"
      },
      "derivative()": {
        "notice": "The derivative token received from AaveV2 (aToken)"
      },
      "governance()": {
        "notice": "Get the Governance address"
      },
      "initializeCurveAPoolStrategy(address,address,address,address,address,address,address,address,uint256)": {
        "notice": "Initialize the Curve APool Strategy Proxy"
      },
      "invest()": {
        "notice": "Execute the Curve APool Strategy"
      },
      "manager()": {
        "notice": "Get the Manager address"
      },
      "registry()": {
        "notice": "Get the Registry address"
      },
      "reward()": {
        "notice": "The reward token received from AaveV2 (stkAave)"
      },
      "setRegistry(address)": {
        "notice": "Set the Registry for the contract. Only callable by Governance."
      },
      "sweep(address,uint256,address)": {
        "notice": "Governance function to sweep any stuck / airdrop tokens to a given recipient"
      },
      "underlying()": {
        "notice": "The underlying token the Strategy invests in AaveV2"
      },
      "withdraw(uint256)": {
        "notice": "Withdraw an amount of underlying from Curve APool Strategy"
      },
      "withdrawAll()": {
        "notice": "Withdraw all underlying from Curve APool Strategy"
      }
    },
    "notice": "Standard Curve APool LP + Gauge Single Underlying StrategyAPool Underlying, in order: (aDAI, aUSDC, aUSDT)",
    "version": 1
  },
  "storageLayout": {
    "storage": [
      {
        "astId": 3184,
        "contract": "contracts/strategies/curve/OhCurveAPoolStrategy.sol:OhCurveAPoolStrategy",
        "label": "_initialized",
        "offset": 0,
        "slot": "0",
        "type": "t_bool"
      },
      {
        "astId": 3187,
        "contract": "contracts/strategies/curve/OhCurveAPoolStrategy.sol:OhCurveAPoolStrategy",
        "label": "_initializing",
        "offset": 1,
        "slot": "0",
        "type": "t_bool"
      }
    ],
    "types": {
      "t_bool": {
        "encoding": "inplace",
        "label": "bool",
        "numberOfBytes": "1"
      }
    }
  }
}